:020000040800F2
:1000000088D60020DD010008B31A00084511000859
:10001000AF1A0008BF050008812D0008000000008D
:100020000000000000000000000000004501000882
:10003000210800080000000089010008392B000891
:10004000F7010008F7010008F7010008F7010008B0
:10005000F7010008F7010008F7010008F7010008A0
:10006000F7010008F7010008F7010008F701000890
:10007000F7010008F7010008F7010008F701000880
:10008000F7010008F7010008F7010008F701000870
:10009000F7010008F7010008F7010008F701000860
:1000A000F7010008F7010008F7010008F701000850
:1000B000F7010008F7010008F7010008F701000840
:1000C000F7010008F7010008F7010008F701000830
:1000D000F7010008F7010008F7010008F701000820
:1000E000F7010008F7010008F7010008F701000810
:1000F000F7010008F7010008F7010008F701000800
:10010000F7010008F7010008F7010008F7010008EF
:10011000F7010008F7010008F7010008F7010008DF
:10012000F7010008F7010008F7010008F7010008CF
:10013000DFF80CD000F006FA00480047ADCC02080A
:1001400088D60020224B19680868B0E8F00F80F3C9
:100150000988BFF36F8F4FF0000080F311884EF0D5
:100160000D0E70470000000006480068006880F32C
:10017000088862B661B6BFF34F8FBFF36F8F00DFA1
:1001800000BF00BF08ED00E0EFF30980BFF36F8F01
:100190000F4B1A6820E9F00F106008B54FF05000BF
:1001A00080F31188BFF34F8FBFF36F8F33F0CAF91D
:1001B0004FF0000080F31188BDE808401968086816
:1001C000B0E8F00F80F30988BFF36F8F704700BF6E
:1001D00028000020EFF305807047000006488047A4
:1001E00006480047FEE7FEE7FEE7FEE7FEE7FEE71C
:1001F000FEE7FEE7FEE7FEE78D2B00083101000871
:100200002DE9F05F0546002092469B46884606464B
:10021000814640241BE0284641464746224600F0DE
:100220004AF953465A46C01A914110D3114618460E
:10023000224600F031F92D1A67EB01084F4622469D
:100240000120002100F028F917EB00094E41201E83
:10025000A4F10104DFDC484631462A464346BDE8A6
:10026000F09F40EA01039B0703D009E008C9121F71
:1002700008C0042AFAD203E011F8013B00F8013B60
:10028000521EF9D27047D2B201E000F8012B491E8C
:10029000FBD270470022F6E710B513460A46044623
:1002A0001946FFF7F0FF204610BDCAB2401E10F8F5
:1002B000011F8A4202D00029F9D100207047421C58
:1002C00010F8011B0029FBD1801A704710B50022DD
:1002D00000E0521C835C8C5CA34201D1002BF8D15E
:1002E000D8B2E1B2401A10BD30B504460020034632
:1002F00000E05B1C934203D2E05CCD5C401BF8D075
:1003000030BD034611F8012B00F8012B002AF9D16A
:1003100018467047F0B480EA0102D40F4200B2EBF5
:10032000410F02D20246084611464A0042D0C30D90
:10033000DDB2C1F3C752AD1A202D35DAC1F3160173
:1003400041F4000204B15242C5F1200602FA06F15E
:100350002A411044B3EBD05F23D0C4B1012DA0EBF0
:10036000C35009DCF0BC4FF0004202EAC352DBB2DA
:1003700000F5000000F0B8B8400000F1807000EB1C
:10038000C350A0F1807040EAD170490009E04908EB
:1003900041EAC071A0EBC35000F50000400800EB3B
:1003A000C350F0BC00F097B86142012202EB41015A
:1003B000001BF6E7F0BC704781F00041AAE780F02F
:1003C0000040A7E780EA010210B502F000434000B8
:1003D00022D04A001FD0010E01EB1261C0F356007B
:1003E000C2F3560240F4000042F40002A0FB0220D7
:1003F00000047F39140400D0401C50EA124001D49C
:100400004000491EC2B20C0604EBD010401C40084C
:10041000802A02D003E0002010BD20F00100002956
:1004200000DA0020184310BDC10F80EAE0700844D4
:10043000CA079623002100F057B800F0004220F0D0
:100440000040C10DC0F3160040F400007F2901DA1E
:1004500000207047962903DCC1F19601C84001E0F5
:1004600096398840002AF4D04042704730B50B4698
:10047000014600202022012409E021FA02F59D42D4
:1004800005D303FA02F5491B04FA02F52844151EA8
:10049000A2F10102F1DC30BD202A04DB203A00FA8F
:1004A00002F1002070479140C2F1200320FA03F3CB
:1004B000194390407047202A04DB203A21FA02F0C9
:1004C0000021704721FA02F3D040C2F1200291408E
:1004D0000843194670470029A8BF7047401C4900CF
:1004E00008BF20F00100704710B4B0FA80FC00FA99
:1004F0000CF050EA010404BF10BC704749B1CCF1C4
:10050000200421FA04F411FA0CF118BF012121434F
:100510000843A3EB0C01CB1D4FEA00614FEA10200A
:1005200042BF002010BC704700EBC35010440029AC
:10053000A4BF10BC7047401C490008BF20F0010058
:1005400010BC7047064C074D06E0E06840F0010320
:1005500094E8070098471034AC42F6D3FFF7ECFD5F
:10056000846C0408A46C040870B58C1810F8015B46
:1005700015F0070301D110F8013B2A1106D110F83C
:10058000012B03E010F8016B01F8016B5B1EF9D140
:100590002B0705D40023521E0DD401F8013BFAE7C6
:1005A00010F8013BCB1A921C03E013F8015B01F831
:1005B000015B521EF9D5A142D8D3002070BD00BF07
:1005C000FEE770B500254FF4803400E0641E24B1CE
:1005D000802001F01FFC0028F8D014B9032528461C
:1005E00070BD40F2FF5001F0D3FB2846F8E7000051
:1005F000014600BF0748406B00F045000028F9D0D5
:1006000040F2FF50034A90631046406908221040B0
:10061000C0B270470080014070B500251048446B9F
:1006200001E00F48446B04F045000028F9D004F0C5
:10063000040028B10325042001F0AAFB284670BD60
:1006400004F0010028B10125012001F0A1FB28469A
:10065000F5E740F2FF5001F09BFB2846EFE7000072
:100660000080014070B500250B48446B01E00A484A
:10067000446B04F045000028F9D004F0040028B1D0
:100680000325042001F084FB284670BD40F2FF5092
:1006900001F07EFB2846F8E7008001402DE9F0419B
:1006A00006460F464FF000082248456B01E02148FE
:1006B000456B05F045000028F9D005F0040038B17D
:1006C0004FF00308042001F063FB4046BDE8F081D1
:1006D00005F0010030B14FF00108012001F058FB96
:1006E0004046F3E701F090FBB04203D04FF0100812
:1006F0004046EBE740F2FF5001F04AFB002001F0DA
:100700009DFB044604F4604018B9200C3880404634
:10071000DCE704F4005008B11320D7E704F480406C
:1007200008B11020D2E704F4004008B10F20CDE753
:100730004046CBE70080014070B500264FF480357D
:100740000F48446B02E06D1E0D48446B04F04500F9
:1007500008B9002DF7D115B104F0040028B1032623
:10076000042001F015FB304670BD04F0400028B1B4
:100770000026402001F00CFB3046F5E73046F3E759
:100780000080014000F0805111B10349086001E090
:100790000249486070470000040402400000024023
:1007A00021B1026842F00102026004E002684FF6E3
:1007B000FE731A400260704701460020002201F0DB
:1007C000805313B1054B1A6801E0054B1A6802EA21
:1007D00001030BB1012000E000207047000402403B
:1007E0000000024010B50022026847F6F0739A43F9
:1007F0000C6A8B6823430C6923434C6923438C693F
:100800002343CC6923434C6A23438C6A23431A4312
:100810000260CB6843600B6883604B68C36010BDA7
:100820007047000051B18200A2F1C042126842F04C
:1008300001038200A2F1C042136009E08200A2F12C
:10084000C0421268034B1A408300A3F1C0431A60F0
:1008500070470000FEFF0F00D0E901121143C2688B
:100860001143026911434269114382691143C2690C
:100870001143026A1143426A1143826A1143C26AF8
:100880001143026B114302689200A2F1C042116051
:10089000816808290BD101688900A1F1C04109686C
:1008A00041F0400201688900A1F1C0410A60416B3A
:1008B0000968426B526841EA0211426B926841EA50
:1008C0000221426B928941EA0241426B128A41EA5B
:1008D0000251426B127D41EA0261426B92691143FF
:1008E0000268521C9200A2F1C0421160C16AB1F5C7
:1008F000804F1BD1816B0968826B526841EA0211FB
:10090000826B926841EA0221826B128A41EA0251AB
:10091000826B127D41EA0261826B92691143026827
:100920009200A2F1C042C2F8041107E06FF07042D9
:1009300001688900A1F1C041C1F80421704700009D
:100940001FB502F05FF95AA002F070FC012266A107
:10095000664811F06DF866490870084600780D2861
:100960002AD164A002F062FC714B0FCB8DE80F001E
:100970004FF400736F4A69465BA010F005FD5C49B7
:1009800008700846007888B96BA002F04FFC01227D
:1009900055A1002011F04CF855490870012252A1D0
:1009A000524811F045F85249087004E06DA002F079
:1009B0003DFC00BFFEE70FE04D48007848B14C48D1
:1009C000017871A002F032FC7BA002F02FFC00BF86
:1009D000FEE786A002F02AFC93A002F027FC0A2280
:1009E0009EA1A64811F054F84149087008460078C5
:1009F000002820D1A24802F019FCA24B5B22A24998
:100A00009E4811F061FA3A4908700846007848B9E2
:100A10009C4801689DA002F009FC9B49A8A002F037
:100A200005FC04E032480178AFA002F0FFFB9348D8
:100A300010F098FC02E0B5A002F0F8FBBDA002F0B7
:100A4000F5FB012285A18D4811F022F82849087094
:100A50000846007800281ED1C3A002F0E7FB894BAE
:100A60004FF48062C749854811F010F92049087099
:100A70000846007848B983480168C3A002F0D6FB55
:100A8000C049CDA002F0D2FB08E019480178D5A0FA
:100A900002F0CCFB02E0DCA002F0C8FB774810F0CB
:100AA00061FC012210A1002010F0C2FF00BFFEE790
:100AB0000D0A2A2A2A2A2A2A20E8BF99E698AFE4B2
:100AC000B880E4B8AA5344E58DA120E69687E4BB3C
:100AD000B6E7B3BBE7BB9FE5AE9EE9AA8C202A2A06
:100AE0002A2A2A2A0D0A0000303A00002CC80020C9
:100AF0007C030020E3808B5344E58DA1E8BF98E69A
:100B0000B2A1E69C89E69687E4BBB6E7B3BBE7BB38
:100B10009FEFBC8CE58DB3E5B086E8BF9BE8A18C68
:100B2000E6A0BCE5BC8FE58C962E2E2E0D0A0000AB
:100B30005067040888D00020E3808B5344E58DA1E2
:100B4000E5B7B2E68890E58A9FE6A0BCE5BC8FE5F4
:100B50008C96E69687E4BBB6E7B3BBE7BB9FE38022
:100B6000820D0A00E3808AE3808AE6A0BCE5BC8FA0
:100B7000E58C96E5A4B1E8B4A5E38082E3808BE33D
:100B8000808B0D0A00000000EFBC81EFBC81534454
:100B9000E58DA1E68C82E8BDBDE69687E4BBB6E7AD
:100BA000B3BBE7BB9FE5A4B1E8B4A5E380822825E9
:100BB00064290D0A00000000EFBC81EFBC81E58FC5
:100BC000AFE883BDE58E9FE59BA0EFBC9A5344E55B
:100BD0008DA1E5889DE5A78BE58C96E4B88DE68828
:100BE00090E58A9FE380820D0A000000E3808BE697
:100BF0009687E4BBB6E7B3BBE7BB9FE68C82E8BD54
:100C0000BDE68890E58A9FEFBC8CE58FAFE4BBA57D
:100C1000E8BF9BE8A18CE8AFBBE58699E6B58BE819
:100C2000AF950D0A000000000D0A2A2A2A2A2A2A56
:100C300020E58DB3E5B086E8BF9BE8A18CE69687FA
:100C4000E4BBB6E58699E585A5E6B58BE8AF952EBC
:100C50002E2E202A2A2A2A2A2A0D0A00303A4661F4
:100C6000744673E8AFBBE58699E6B58BE8AF95E6C9
:100C70009687E4BBB62E74787400000060CA00202A
:100C80002C6C04088003002084030020E3808BE6A2
:100C90009687E4BBB6E58699E585A5E68890E58A62
:100CA0009FEFBC8CE58699E585A5E5AD97E88A823E
:100CB000E695B0E68DAEEFBC9A25640A0000000010
:100CC000E3808BE59091E69687E4BBB6E58699E5EF
:100CD00085A5E79A84E695B0E68DAEE4B8BAEFBC98
:100CE0009A0D0A25730D0A00EFBC81EFBC81E696D0
:100CF00087E4BBB6E58699E585A5E5A4B1E8B4A58A
:100D0000EFBC9A282564290A00000000EFBC81EF9F
:100D1000BC81E68993E5BC802FE5889BE5BBBAE6FC
:100D20009687E4BBB6E5A4B1E8B4A5E380820D0ADA
:100D3000000000002A2A2A2A2A2A20E58DB3E5B0DD
:100D400086E8BF9BE8A18CE69687E4BBB6E8AFBB1C
:100D5000E58F96E6B58BE8AF952E2E2E202A2A2A0F
:100D60002A2A2A0D0A000000E3808BE68993E5BC5D
:100D700080E69687E4BBB6E68890E58A9FE38082AA
:100D80000D0A000088CC0020E3808BE69687E4BB48
:100D9000B6E8AFBBE58F96E68890E58A9F2CE8AF72
:100DA000BBE588B0E5AD97E88A82E695B0E68DAE02
:100DB000EFBC9A25640D0A00E3808BE8AFBBE58F9A
:100DC00096E5BE97E79A84E69687E4BBB6E695B0CB
:100DD000E68DAEE4B8BAEFBC9A0D0A2573200D0A71
:100DE00000000000EFBC81EFBC81E69687E4BBB653
:100DF000E8AFBBE58F96E5A4B1E8B4A5EFBC9A28AF
:100E00002564290A00000000EFBC81EFBC81E6895F
:100E100093E5BC80E69687E4BBB6E5A4B1E8B4A54B
:100E2000E380820D0A0000002DE9FC4107460D46D3
:100E30000026002400200090019008205D490860F1
:100E400010204860402088600020C8604FF4806017
:100E50000861084601F02CF81020FFF7C9FB044692
:100E600014B12046BDE8FC81534800880004514974
:100E7000086037204860402088600020C8604FF438
:100E800080600861084601F013F83720FFF7B0FBD7
:100E900004460CB12046E5E74FF0FF3047490860B3
:100EA00008204860302088600220C8600020086167
:100EB00001204861084600F07DFF00203D490860A0
:100EC00033204860402088600020C8604FF4806074
:100ED0000861084600F0ECFF3320FFF789FB044669
:100EE0000CB12046BEE70CE04FF4001000F092FF7A
:100EF00038B100F0D7FF4DF82600761C012E00D93E
:100F000006E02F48406B40F22A6108400028EBD0F1
:100F100000BF082000F07EFF28B1082000F038FF55
:100F2000042420469EE7022000F074FF28B102202E
:100F300000F02EFF0224204694E7202000F06AFFF4
:100F400028B1202000F024FF062420468AE74FF431
:100F5000007000F05FFF30B14FF4007000F018FF38
:100F6000072420467EE740F2FF5000F011FF009872
:100F70000006009901F47F4140EA0120009901F444
:100F80007F0140EA1120009940EA116068600198F1
:100F90000006019901F47F4140EA0120019901F422
:100FA0007F0140EA1120019940EA11602860204643
:100FB00058E7000000C800206003002014C800208B
:100FC0000080014008B50121302000F0D9FD4FF428
:100FD000F850ADF8000003208DF8020018208DF8BD
:100FE00003006946094800F015F80420ADF8000038
:100FF0006946074800F00EF80121880200F0B0FDB4
:101000000121022000F0ACFD08BD000000100140ED
:10101000001401402DE9F041024600250026002081
:1010200000230024002791F803C00CF00F0591F86D
:1010300003C00CF0100CBCF1000F03D091F802C0FB
:101040004CEA050591F800C0BCF1000F31D01468DE
:1010500000202BE04FF0010C0CFA00F3B1F800C0B7
:101060000CEA03069E4220D183004FF00F0C0CFACD
:1010700003F7BC4305FA03FC4CEA040491F803C0EF
:10108000BCF1280F06D14FF0010C0CFA00FCC2F89D
:1010900014C00AE091F803C0BCF1480F05D14FF02D
:1010A000010C0CFA00FCC2F810C0401C0828D1D377
:1010B0001460B1F800C0BCF1FF0F34DD54680020AB
:1010C0002EE000F1080C4FF0010808FA0CF3B1F81B
:1010D00000C00CEA03069E4221D183004FF00F0CA2
:1010E0000CFA03F7BC4305FA03FC4CEA040491F83C
:1010F00003C0BCF1280F05D100F1080C08FA0CF868
:10110000C2F8148091F803C0BCF1480F07D100F178
:10111000080C4FF0010808FA0CF8C2F81080401CC7
:101120000828CED35460BDE8F081024600209368C1
:101130000B400BB1012000E0002070474161704777
:101140000161704702A002F071F800BFFEE70000E5
:10115000486172644661756C7400000010B5044605
:101160002CB14FF480510548FFF7E8FF04E04FF43D
:1011700080510248FFF7E4FF10BD00000014014059
:1011800001B502E00098401E009000980028F9D1B7
:1011900008BD00B597B03C2108A8FFF77BF81C21DB
:1011A00001A8FFF777F80121080200F0D9FC01201F
:1011B0000190042003908006079000200290049084
:1011C000059006900890099008200A9010200B9036
:1011D00000200C900E900F9010904FF480501190C2
:1011E000002012901390149001A81590169008A852
:1011F000FFF732FB01210020FFF714FB17B000BD01
:101200002DE9F84F05460E4617469846DDF828B0FA
:10121000781B401C1FFA80F9A8EB0600401C1FFA3F
:1012200080FA09FB0AF0009053464A4631462846A8
:1012300000F060F92C2000F007FC002404E03BF8EB
:10124000140000F005FC641C00988442F7D3BDE84C
:10125000F88F000008B50121602000F091FC032008
:101260008DF8020018208DF803004FF48040ADF88F
:10127000000069465B48FFF7CDFE4FF40040ADF833
:10128000000069465748FFF7C5FE0120ADF8000091
:1012900069465448FFF7BEFE0220ADF800006946DB
:1012A0005048FFF7B7FE8020ADF8000069464E4871
:1012B000FFF7B0FE4FF48070ADF8000069464A4871
:1012C000FFF7A8FE4FF40070ADF8000069464648ED
:1012D000FFF7A0FE4FF48060ADF800006946424879
:1012E000FFF798FE4FF40060ADF8000069463E48F5
:1012F000FFF790FE4FF48050ADF8000069463A4881
:10130000FFF788FE4FF40050ADF8000069463648FC
:10131000FFF780FE4FF48040ADF800006946324888
:10132000FFF778FE4FF40040ADF8000069462E4804
:10133000FFF770FE4FF48070ADF800006946294851
:10134000FFF768FE4FF40070ADF8000069462548CD
:10135000FFF760FE4FF48060ADF800006946214859
:10136000FFF758FE03208DF8020018208DF80300C7
:101370001020ADF8000069461A48FFF74BFE202008
:10138000ADF8000069461748FFF744FE8020ADF82D
:10139000000069461348FFF73DFE4FF40060ADF8CA
:1013A000000069460F48FFF735FE10208DF8030056
:1013B00003208DF802000220ADF8000069460A48BB
:1013C000FFF728FE10208DF8030003208DF802009F
:1013D0004FF48050ADF8000069460248FFF71AFE4E
:1013E00008BD0000001401400018014010B504467B
:1013F000072C00DD10BD31480470204604EBD0718D
:101400004910A4EB410139B9F0202D4908804FF46F
:10141000A0702C49088006E04FF4A070284908808D
:10142000F02028490880362000F00EFB264800886E
:1014300049F24131884205D1082141EA441000F0C7
:1014400007FB0AE02048008848F25251884204D144
:10145000002141EA441000F0FBFA2A2000F0F4FADF
:10146000002000F0F5FA002000F0F2FA1449098893
:10147000491EC1F3072000F0EBFA11490978491E13
:10148000C8B200F0E5FA2B2000F0DEFA002000F0F0
:10149000DFFA002000F0DCFA0A490988491EC1F38E
:1014A000072000F0D5FA07490978491EC8B200F0B4
:1014B000CFFA2C2000F0C8FA00BF9BE7880200207A
:1014C00084020020860200208A02002010B5FFF767
:1014D000C1FEFFF75EFE0120FFF740FE00F0A0FA1C
:1014E00000F038F802480078FFF780FF10BD0000D8
:1014F000880200202DE9F04104460D4616461F469D
:101500002A2000F0A1FA201200F0A2FAE0B200F0C6
:101510009FFAA119491EC1F30F2000F099FAA119F1
:10152000491EC8B200F094FA2B2000F08DFA281260
:1015300000F08EFAE8B200F08BFAE919491EC1F307
:101540000F2000F085FAE919491EC8B200F080FAB0
:10155000BDE8F08110B500F025FAFE490880084684
:10156000008849F2413188427ED1CF2000F06CFAE8
:10157000002000F06DFA812000F06AFA302000F0BF
:1015800067FAED2000F060FA642000F061FA0320B1
:1015900000F05EFA122000F05BFA812000F058FAA9
:1015A000E82000F051FA852000F052FA102000F0F7
:1015B0004FFA782000F04CFACB2000F045FA3920A1
:1015C00000F046FA2C2000F043FA002000F040FA28
:1015D000342000F03DFA062000F03AFAF72000F03F
:1015E00033FA202000F034FAEA2000F02DFA00202F
:1015F00000F02EFA002000F02BFAB12000F024FABF
:10160000002000F025FA1B2000F022FAB62000F09E
:101610001BFA0A2000F01CFAA22000F019FAC020E0
:1016200000F012FA352000F013FAC12000F00CFA95
:10163000112000F00DFAC52000F006FA452000F058
:1016400007FA452000F004FAC72000F0FDF9A220B7
:1016500000F0FEF9F22000F0F7F9002000F0F8F9B0
:10166000262000F0F1F900E096E0012000F0F0F90A
:10167000E02000F0E9F90F2000F0EAF9262000F060
:10168000E7F9242000F0E4F90B2000F0E1F90E2046
:1016900000F0DEF9092000F0DBF9542000F0D8F961
:1016A000A82000F0D5F9462000F0D2F90C2000F077
:1016B000CFF9172000F0CCF9092000F0C9F90F206C
:1016C00000F0C6F9072000F0C3F9002000F0C0F9CF
:1016D000E12000F0B9F9002000F0BAF9192000F07B
:1016E000B7F91B2000F0B4F9042000F0B1F9102084
:1016F00000F0AEF9072000F0ABF92A2000F0A8F9BD
:10170000472000F0A5F9392000F0A2F9032000F0ED
:101710009FF9062000F09CF9062000F099F930208E
:1017200000F096F9382000F093F90F2000F090F9BE
:10173000362000F089F9C82000F08AF92A2000F04C
:1017400083F9002000F084F9002000F081F90020E6
:1017500000F07EF9EF2000F07BF92B2000F074F907
:10176000002000F075F9002000F072F9012000F06F
:101770006FF93F2000F06CF93A2000F065F9552030
:1017800000F066F9112000F05FF97348FFF7F8FCEC
:10179000292000F059F901E16E48008848F25251C1
:1017A0008842F8D1CF2000F04FF9002000F050F926
:1017B000C12000F04DF9302000F04AF9ED2000F092
:1017C00043F9642000F044F9032000F041F91220AD
:1017D00000F03EF9812000F03BF9E82000F034F9F8
:1017E000852000F035F9102000F032F9782000F063
:1017F0002FF9CB2000F028F9392000F029F92C200E
:1018000000F026F9002000F023F9342000F020F940
:10181000022000F01DF9F72000F016F9202000F05A
:1018200017F9EA2000F010F9002000F011F900206B
:1018300000F00EF9C02000F007F9212000F008F9AF
:10184000C12000F001F9112000F002F9C52000F0DC
:10185000FBF82D2000F0FCF8332000F0F9F83620DA
:1018600000F0F2F8002000F0F3F83A2000F0ECF875
:10187000552000F0EDF8B12000F0E6F8002000F06F
:10188000E7F8172000F0E4F8B62000F0DDF80A20B1
:1018900000F0DEF8A22000F0DBF8F62000F0D4F82B
:1018A000012000F0D5F8302000F0D2F8F22000F04E
:1018B000CBF8002000F0CCF8262000F0C5F801207D
:1018C00000F0C6F8E02000F0BFF8D02000F0C0F82B
:1018D000002000F0BDF8022000F0BAF8072000F068
:1018E000B7F80B2000F0B4F81A2000F0B1F831205E
:1018F00000F0AEF8542000F0ABF8402000F0A8F85B
:10190000292000F0A5F8122000F0A2F8122000F023
:101910009FF8122000F09CF8172000F099F8E120C1
:1019200000F092F8D02000F093F8002000F090F83A
:10193000022000F08DF8072000F08AF8052000F062
:1019400087F8252000F084F82D2000F081F844204D
:1019500004E000008A020020FCBF020000F078F8DA
:10196000452000F075F81C2000F072F8182000F0F7
:101970006FF8162000F06CF81C2000F069F81D20AC
:1019800000F066F8112000F05FF80548FFF7F8FB5B
:10199000292000F059F82C2000F056F810BD000066
:1019A000FCBF020010B50024042000F04DF800BF79
:1019B0001748008800BF1648008800F02BF804463E
:1019C0004FF6FF7000EA042400F024F8044348F2C4
:1019D0005250844201D1204610BDD32000F034F88B
:1019E00000BF0B48008800BF0948008800F012F8CB
:1019F00004464FF6FF7000EA042400F00BF804439D
:101A000049F24130844201D12046E5E70020E3E776
:101A1000000002600148008870470000000002607A
:101A200010B502210748FFF789FB40F6FF20FFF7BA
:101A3000A7FB02210348FFF783FB40F6FF20FFF7D7
:101A40009FFB10BD001801404FF0C0410880704757
:101A50000149088070470000000002602DE9F04154
:101A600000BF19F08DF8074619F0E6F8054616F0A4
:101A7000D1FC044620461FF01DFA064606A130465A
:101A800020F020FA254600231A460921284621F095
:101A9000BBFC00BFBDE8F08168656C6C6F000000A6
:101AA00004E0052031F0B6FC2AF02AFBF9E700BF7C
:101AB000FEE7704708B54FF4C06000F047F83120EA
:101AC0008DF8000000208DF801008DF80200012043
:101AD0008DF80300684600F001F808BD70B50021DC
:101AE00000230F22C47804B3154C246804F4E06486
:101AF000C4F5E064210AC1F10403CA40447804FA41
:101B000003F184781440214309010E4C0678A15555
:101B1000047804F01F050124AC4005786D11AD0078
:101B200005F1E025C5F8004109E0047804F01F053F
:101B30000124AC40044D0678761145F8264070BD6E
:101B40000CED00E000E400E080E100E00249014328
:101B5000024A1160704700000000FA050CED00E039
:101B600029B1064A52690243044B5A6104E0034A10
:101B700052698243014B5A617047000000100240D5
:101B800029B1064A92690243044B9A6104E0034A70
:101B900092698243014B9A61704700000010024035
:101BA00030B500210022002400232D4D6D6805F082
:101BB0000C0121B1042905D0082923D105E0294DC4
:101BC000056022E0274D05601FE0254D6D6805F496
:101BD0007012234D6D6805F48034022505EB9242A6
:101BE0001CB9214D554305600BE01D4D6D6805F492
:101BF00000351DB11C4D5543056002E0194D55439C
:101C0000056002E0174D056000BF00BF144D6D6810
:101C100005F0F0010909154D6B5C0568DD40456074
:101C20000F4D6D6805F4E061090A104D6B5C456865
:101C3000DD4085600A4D6D6805F46051C90A0B4DA1
:101C40006B5C4568DD40C560054D6D6805F440413D
:101C5000890B074D6B5CC568B5FBF3F5056130BDBD
:101C60000010024000127A0000093D000000002030
:101C7000100000207CB50546002400200090019053
:101C800000F0DCF800F0007010B10E2420467CBD9E
:101C90003D49098888B26946FFF7C6F804460CB189
:101CA0002046F4E7012D36D1019800F48020002869
:101CB0002ED0354800880004344908603720486039
:101CC000402088600020C860A8020861084600F033
:101CD000EFF83720FEF78CFC04460CB12046D6E71F
:101CE00002202A49086006204860402088600020C1
:101CF000C8604FF480600861084600F0D9F80620FB
:101D0000FEF776FC04460CB12046C0E72046BEE74D
:101D100025242046BBE7019800F4803078B31A48A8
:101D20000088000419490860372048604020886016
:101D30000020C8604FF480600861084600F0B8F8E1
:101D40003720FEF755FC04460CB120469FE70020E3
:101D50000E49086006204860402088600020C86066
:101D60004FF480600861084600F0A2F80620FEF7F4
:101D70003FFC04460CB1204689E7204687E7FFE791
:101D80002524204683E700006003002000C80020CF
:101D900001498863704700000080014001490860E4
:101DA00070470000A0003042014908607047000001
:101DB0008C05304200210A4B02685A6242689A62DE
:101DC0001A46D16A21F0F701D0E902231A430369C8
:101DD0001A4343691A431143014AD1627047000014
:101DE0000080014000200649086048608860C860A3
:101DF00048628862C862034888630020C8637047ED
:101E000000800140FF07C00001480069C0B2704770
:101E10000080014001460020034A526B0A400AB18B
:101E2000012000E000207047008001400248006867
:101E300000F00300704700000080014008B5014633
:101E4000002000900248084400900098006808BDF7
:101E50001480014029B1064AD26B0243044BDA6375
:101E600004E0034AD26B8243014BDA6370470000FF
:101E70000080014000210A4A516847F6FF62914301
:101E8000027D83681A4343681A43C3681A43036890
:101E90001A4303691A431143014A51607047000015
:101EA00000800140014800687047000080800140C8
:101EB0000021094B02689A601A46D1686FF30A0143
:101EC000D0E901231A43C3681A4303691A43114333
:101ED000014AD1607047000000800140054909684F
:101EE00021F00301034A11601146096801431160A2
:101EF000704700000080014010B50248FEF75CFC0E
:101F000010BD00000020001030B58BB005460C4617
:101F10001348FEF737FC00211248FEF741FC124837
:101F20000090019500200290A008039000200490EA
:101F30008020059080000690800007900020089087
:101F40004FF40050099000200A9069460548FEF7BA
:101F500049FC01210348FEF723FC0BB030BD000013
:101F600000F00010440402408080014030B58BB086
:101F700005460C461348FEF705FC00211248FEF703
:101F80000FFC12480090019510200290A0080390C9
:101F9000002004908020059080000690800007902B
:101FA000002008904FF40050099000200A906946E4
:101FB0000548FEF717FC01210348FEF7F1FB0BB0C3
:101FC00030BD000000F00010440402408080014059
:101FD00070B50446002521480068032802D1272552
:101FE000284670BD1D48006838B11C4800680128AB
:101FF00003D01A48006802282ED1B4F5805F02D1C0
:1020000027252846EDE7B4F5006F14D10120FFF72E
:1020100031FE054605BB0120114908750020086006
:10202000486088604FF40060C8600020086108467E
:10203000FFF720FF10E00020FFF71CFE05465DB90A
:102040000120074908750020086048608860C86062
:1020500008610846FFF70EFF2846C2E75C03002030
:10206000E8C70020F0B5014600200022BC4B1B78D9
:1020700081F85630BB4B1B88A1F85430BA4B1B6813
:102080001A0E93090B70C2F383034B7002F0030323
:102090008B70B54B1B68C3F30742CA70B24B1B88E9
:1020A000C3F307220A71B04B1A784A715B681A0EA3
:1020B0001301CB80AC4B5B68C3F30742CB8843EA88
:1020C0001213CB8002F00F030B72A74B9B88C3F354
:1020D0000722D3094B72C2F380138B72C2F34013F1
:1020E000CB72C2F300130B7300234B739C4B1B6822
:1020F0001BB19B4B1B68012B4FD193071B0D0B6131
:10210000994B1A790B6943EA82030B61964B9B68E2
:102110001A0E0B6943EA92130B61C2F3C2030B75EB
:1021200002F007034B75904B9B68C3F307425309BA
:102130008B75C2F38203CB7593075B0F0B768A4BCB
:102140001B89C3F307220B7E43EAD2130B760B697C
:102150005B1C0024C1E912340B7ED1E912649B1C84
:10216000012505FA03F3DF17A6FB035C04FB03C399
:1021700006FB0733C1E912530C7A0123A3400B6518
:102180000027D1E912560B6DA5FB034C06FB03C3D8
:1021900005FB0733C1E912432DE0714B1B68022B8D
:1021A00029D1714B1A7993069B0A0B616E4B9B6880
:1021B0001A0E0B6943EA02230B616B4B9B68C3F356
:1021C00007420B6913430B61674B1B89C3F307225B
:1021D0000B695B1C4FF40074A3FB04344FF480665E
:1021E0000025A3FB067C04FB06C403FB0543C1E9F1
:1021F000127373100B65C2F3801301F8193F930635
:102200005B0E4B70584B1A7A4B7843EAD2134B70E3
:1022100002F07F038B70544BDB681A0ED309CB702E
:10222000C2F341130B71C2F382034B7193071B0F6F
:102230008B714D4BDB68C3F307428B7943EA9213F2
:102240008B71C2F34013CB7100230B7202F00103B8
:102250004B72454B9B89C3F30722D3098B72C2F3A0
:102260008013CB72C2F340130B73C2F300134B7392
:10227000C2F381038B7302F00303CB733A4B1A7BD7
:1022800053080B7401234B74384B1B681A0ECA7425
:102290001939364B1B68C3F307421402CC85334B04
:1022A0001B88C3F30722CB8D1343CB852F4B1A78A2
:1022B00014060C635B681A0E0B6B43EA02440C6352
:1022C0002A4B5B68C3F307420B6B43EA02240C639F
:1022D000264B9B88C3F307220B6B13430B63234BE3
:1022E0001A7934235A54214B9B681A0E35235A54B9
:1022F0001E4B9B68C3F3074214068C631B4B1B8960
:10230000C3F307228B6B43EA02448C63174B1A7AA0
:102310008B6B43EA02248C63144BDB681A0E8B6BC5
:1023200013438B63114BDB68C3F307423C235B5CB5
:1023300043EA12143C235C5413071C0DCC870B4B4F
:102340009B89C3F30722CB8F1343CB87074B1A7BA1
:10235000540840235C54012441235C54F0BD000028
:102360005C0300206003002060C7002070C70020CD
:1023700008B500200090684600F048FA08B1FF2038
:1023800008BD0098C0F34320FAE710B50424FFF716
:10239000EFFF0446042C01D1002010BDFF2C01D119
:1023A0000220FAE70120F8E710B50024FFF782FBCE
:1023B000FEF708FEFFF716FD00F0CEF804460CB15C
:1023C000204610BD00F02AF804460CB12046F8E77C
:1023D0000120104908750020086048608860C860C6
:1023E00008610846FFF746FD1CB90B48FFF73AFEA7
:1023F000044634B90849B1F85410080400F0ECF967
:10240000044624B94FF40060FFF7E2FD044620467D
:10241000D7E70000E8C7002090C7002038B50024A7
:1024200001200090FFF702FD10B92524204638BD99
:1024300044480068042828D000204349086002204E
:102440004860C02088600020C8604FF48060086148
:102450000846FFF72DFDFEF7DFF804460CB12046D5
:10246000E5E70020FFF7EAFC384908600420FFF7A1
:10247000E5FC364948600820FFF7E0FC33498860F6
:102480000C20FFF7DBFC3149C8602E48006858B1CA
:102490002C480068012807D02A480068062803D085
:1024A00028480068022816D1002027490860032028
:1024B0004860402088600020C8604FF48060086158
:1024C0000846FFF7F5FC69460320FEF7E7F80446E7
:1024D0000CB12046ABE71B48006804282ED0BDF89D
:1024E00000001B490860BDF80000000416490860A0
:1024F00009204860C02088600020C8604FF48060D8
:1025000008610846FFF7D4FCFEF786F804460CB1D4
:1025100020468CE70020FFF791FC0E49086004205C
:10252000FFF78CFC0B4948600820FFF787FC09493E
:1025300088600C20FFF782FC0649C8600024204612
:1025400075E700005C03002000C8002070C7002071
:102550006003002060C700202DE9F0410024002620
:1025600000250027A046B2205949087500200860C0
:1025700048608860C86008610846FFF77BFC03205C
:10258000FFF7ACFC0120FFF709FC0020514908606F
:1025900048608860C8604FF4806008610846FFF7B3
:1025A00087FCFEF70EF8044614B12046BDE8F08122
:1025B0004FF4D57047490860082048604020886083
:1025C0000020C8604FF4806008610846FFF770FC87
:1025D000FEF7B2F804462CB901203F4908604FF0DD
:1025E000804812E000203B490860372048604020C6
:1025F00088600020C8604FF4806008610846FFF7DB
:1026000057FC3720FDF7F4FF0446002031490860ED
:1026100037204860402088600020C8604FF4806008
:1026200008610846FFF744FC3720FDF7E1FF044648
:10263000002C4AD136E00020264908603720486047
:10264000402088600020C8604FF480600861084620
:10265000FFF72EFC3720FDF7CBFF04460CB12046D8
:10266000A4E71E4848EA00001A490860292048608B
:10267000402088600020C8604FF4806008610846F0
:10268000FFF716FCFDF7EEFF04460CB120468DE780
:102690000020FFF7D3FB0646012080EAD67080F0C9
:1026A00001076D1C1FB94FF6FF708542C3D34FF66B
:1026B000FF70854202D31B24204677E706F0804056
:1026C000061E02D002200449086020466EE7000082
:1026D000E8C7002000C800205C0300200000108034
:1026E0002DE9F047814614461D46DDE908680027BC
:1026F00000203249087032490860012031490860E1
:1027000000203149C86231480068022808D1060219
:102710000202002320462946FDF772FD04460D46BD
:102720002B48066010202A4948604020886000201D
:10273000C8604FF4806008610846FFF7B9FB1020BD
:10274000FDF756FF074617B13846BDE8F0874FF052
:10275000FF302049086008FB06F048609020886040
:102760000220C86000200861012048610846FFF788
:1027700021FB1748046012201549486040208860FA
:102780000020C8604FF4806008610846FFF790FBA6
:102790001220FDF72DFF07460FB13846D5E701217E
:1027A0000802FFF757FB0120FFF7FEFA08FB06F1CE
:1027B0004846FFF7A9FB3846C7E70000680300203A
:1027C0006C03002064030020008001405C030020B3
:1027D00000C8002014C8002070B5044600250A482F
:1027E0000460072008494860402088600020C860D5
:1027F0004FF4806008610846FFF75AFB0720FDF799
:10280000F7FE0546284670BD00C8002070B5044696
:1028100000250A48008800040949886040F24D40BC
:10282000C8600D20FDF7E4FE05460DB1284670BDD9
:102830000348406920602846F9E700006003002053
:102840000080014010B5002400BFFFF755FB30B9F0
:102850000748006818B9074800780028F5D00548EF
:10286000007810B10348007810BD2046FCE7000056
:102870006C0300206803002010B5002400BFFFF7A0
:102880003BFB30B90948006818B9094800780028AE
:10289000F5D00748007810B10548007810BD40F227
:1028A000FF50FFF775FA2046F8E700006C030020A0
:1028B000680300202DE9F843814615461E46DDE9F0
:1028C00008780024002000904849087048490860B2
:1028D00001204849086000204749C862474800680D
:1028E000022808D107020202002328463146FDF7DC
:1028F00087FC05460E464248076010204049486064
:10290000402088600020C8604FF48060086108465D
:10291000FFF7CEFA1020FDF76BFE044614B12046F7
:10292000BDE8F8833748008800043549086037203F
:102930004860402088600020C8604FF480600861D3
:102940000846FFF7B5FA3720FDF752FE04460CB1F2
:102950002046E5E72A48C0F800801720284948604B
:10296000402088600020C8604FF4806008610846FD
:10297000FFF79EFA1720FDF73BFE04460CB12046F8
:10298000CEE71F48056019201D4948604020886037
:102990000020C8604FF4806008610846FFF788FA9D
:1029A0001920FDF725FE04460CB12046B8E74FF08C
:1029B000FF301549086008FB07F0486090208860E8
:1029C0000020C8600861012048610846FFF7F2F95D
:1029D00001210802FFF73EFA0120FFF7E5F908FBA5
:1029E00007F14846FFF7C2FA204699E7680300203E
:1029F0006C03002064030020008001405C03002081
:102A000000C800206003002014C8002010B500F0AA
:102A100001F810BD0CB5002001900090334800680B
:102A200040F480303149086000BF3048006800F44D
:102A3000003000900198401C0190009818B901984E
:102A4000B0F5A06FF1D12948006800F4003010B152
:102A50000120009001E0002000900098012843D15F
:102A60002348006840F010002149086008460068CB
:102A700020F0030008600846006840F0020008608B
:102A80001A48406819494860084640684860084646
:102A9000406840F4806048600846406820F47C103C
:102AA00048600846406840F4E810486008460068FE
:102AB00040F08070086000BF0C48006800F00070B3
:102AC0000028F9D00948406820F003000749486011
:102AD0000846406840F00200486000BF0348406874
:102AE00000F00C000828F9D10CBD000000100240D5
:102AF0000020024006E04FF47A7030F08BFC02A018
:102B000000F094FBF7E7000072756E2E2E2E0A007F
:102B1000042808D14FF0E021096941F004014FF089
:102B2000E022116107E04FF0E021096921F0040182
:102B30004FF0E0221161704710B530F0E9FE012836
:102B400001D030F09BFE10BD00B585B06846FFF7A0
:102B500027F80420FFF7DCFF0B49009808604FF4CA
:102B60007A710098B0FBF1F04FF0E021486108461F
:102B7000006940F0020008610846006940F0010069
:102B8000086105B000BD00008002002010B51348A8
:102B9000006840F00100114908600846406810498B
:102BA00008400E494860084600680E4908400B4935
:102BB00008600846006820F48020086008464068E5
:102BC00020F4FE0048604FF41F008860FFF71EFFEE
:102BD0004FF000600449086010BD00000010024082
:102BE0000000FFF8FFFFF6FE08ED00E021B182894A
:102BF00042F40052828104E082894DF6FF731A404C
:102C00008281704700B585B001210420FEF7B8FF2E
:102C100001218803FEF7B4FF4FF40070ADF81000F7
:102C200018208DF8130003208DF8120004A9134812
:102C3000FEF7F0F94FF48060ADF8100004208DF835
:102C4000130004A90D48FEF7E5F94FF4E1300090B8
:102C50000020ADF80400ADF80600ADF80800ADF8AE
:102C60000C000C20ADF80A006946054800F018F881
:102C700001210348FFF7BAFF05B000BD000801407D
:102C80000038014002460020B1F5007F00D100BFAE
:102C900013880B400BB1012000E0002070470000BA
:102CA0002DE9F04786B005460E460024A24600BF37
:102CB000A1460027B08900B100BF2F462C8A4CF6F0
:102CC000FF700440F08804432C82AC894EF6F31068
:102CD0000440B08831890843718908430443AC81BA
:102CE000AC8A4FF6FF400440B0890443AC8201A88F
:102CF000FEF756FF1F48874202D1DDF810A001E021
:102D0000DDF80CA0A88900F4004040B10AEBCA002D
:102D100000EB0A1031684900B0FBF1F807E00AEB5C
:102D2000CA0000EB0A1031688900B0FBF1F864209A
:102D3000B8FBF0F004012009642101FB1089A88987
:102D400000F4004040B1322000EBC900B0FBF1F0CC
:102D500000F00700044308E0322000EB0910642172
:102D6000B0FBF1F000F00F0004432C8106B0BDE889
:102D7000F087000000380140C1F3080282807047EC
:102D800000BFFEE701B5002007E00C2100BF0A1ECE
:102D9000A1F10103D9B2FAD1401C00998842F4D3C1
:102DA00008BD00002DE9FC5F05460C46012668467B
:102DB00000F0CAF8002865D0BDF90200FDF734FB29
:102DC00083463248007800EB400004EBC0004168C5
:102DD0005846FDF7F7FA8146BDF90000FDF724FBE0
:102DE00083462A48007800EB400054F830105846DB
:102DF000FDF7E8FA82464946FDF78CFA80462348FB
:102E0000007800EB400004EBC00081684046FDF70D
:102E100081FA0746FDF711FB00B22880BDF90200D8
:102E2000FDF702FB83461948007800EB400004EBF5
:102E3000C00001695846FDF7C5FA8146BDF900009A
:102E4000FDF7F2FA83461148007800EB400004EBEE
:102E5000C000C1685846FDF7B5FA82464946FDF7FD
:102E600059FA80460948007800EB400004EBC000A6
:102E700041694046FDF74EFA0746FDF7DEFA00B21B
:102E8000688000E000263046BDE8FC9F88020020F4
:102E900008B501216020FEF773FE0120ADF80000A7
:102EA0008DF8020010208DF8030069461B48FEF7DC
:102EB000B1F80420ADF8000069461848FEF7AAF8FA
:102EC0000820ADF8000001208DF8020048208DF8A0
:102ED000030069461148FEF79DF84FF40050ADF825
:102EE000000001208DF8020010208DF803006946D3
:102EF0000B48FEF78FF84FF400510948FEF71EF912
:102F00001020ADF8000048208DF803006946034802
:102F1000FEF780F803A000F089F908BD0018014011
:102F200000140140E8A7A6E691B8E5889DE5A78BC7
:102F3000E58C966F6B0A000010B50446204600F041
:102F400043F900F0C1F810BD2DE9F0478CB00646FA
:102F5000002528216846FDF79DF900BF0AA90BA8A6
:102F600000F09EF8BDF92C002DF81500BDF92810D1
:102F700005A820F81510681CC5B210214648FEF7B8
:102F8000D4F808B90A2DE9DB10214348FEF7CDF843
:102F900010B10020414908700A2D7BD1BDF90070A5
:102FA000B846BDF91490CA4601240EE03DF914005C
:102FB000B84202DA3DF9147005E03DF914004045CD
:102FC00001DD3DF91480601CC4B20A2CEEDB012443
:102FD00012E005A830F91400484503DA05A830F9D5
:102FE000149007E005A830F91400504502DD05A84B
:102FF00030F914A0601CC4B20A2CEADBBDF9000051
:10300000BDF902100844BDF904100844BDF90610CA
:103010000844BDF908100844BDF90A100844BDF978
:103020000C100844BDF90E100844BDF910100844F6
:10303000BDF912100844C01BA0EB0800C01000B27C
:103040003080BDF91410BDF916000144BDF9180017
:103050000144BDF91A000144BDF91C000144BDF949
:103060001E000144BDF920000144BDF922000144C5
:10307000BDF924000144BDF926000844A0EB090075
:10308000A0EB0A00C01000B2708001200CB0BDE8B7
:10309000F087FFE70020F9E7001801404C0300200B
:1030A0002DE9F04104460D469020FFF745FF06B29A
:1030B0000120FFF767FED020FFF73EFF07B2268012
:1030C0002F80BDE8F081000070B500250421114873
:1030D000FEF734F801210F48FEF732F8002414E01F
:1030E00001210C48FEF72AF808210A48FEF71DF8CE
:1030F0000646C4F10B0006FA00F0284385B2012110
:103100000448FEF71DF8601CC4B20C2CE8DB28460E
:1031100070BD00000018014010B500242748007859
:1031200020B1012811D002283FD12FE010212448DE
:10313000FDF7FBFF20B9012020490870002403E0BF
:1031400000201E490870002434E010211C48FDF7BF
:10315000ECFFA0B91B480068401C1A4908600846EB
:103160000068022806D90020086002201349087070
:1031700001240AE0012011490870002405E0002024
:10318000104908600D490870002413E010210C4814
:10319000FDF7CBFF20B9022008490870012403E0A5
:1031A000002006490870002404E00020034908704C
:1031B000002400BF00BF204610BD00004D030020CA
:1031C000001801405003002070B505460421164840
:1031D000FDF7B4FF01211448FDF7B0FF00241FE004
:1031E000C4F1070045FA00F000F0010020B104210D
:1031F0000D48FDF7A5FF03E004210B48FDF79EFFF6
:103200000520FFF7BFFD01210748FDF799FF0520C5
:10321000FFF7B8FD01210448FDF790FF601CC4B220
:10322000082CDDDB70BD0000001801400FB4054B19
:1032300010B503A9044A029802F0E6F910BC5DF843
:1032400014FB000049350108E003002002E008C833
:10325000121F08C1002AFAD170477047002001E010
:1032600001C1121F002AFBD1704770B5044600252A
:1032700008E02168481C20600878303805EB85019B
:1032800000EB41052168087800F004F80028F0D12F
:10329000284670BD0146302903DB392901DC0120B5
:1032A00070470020FCE7000010B54021074801F0FE
:1032B00097FB00221E21064828F0AEFE0549086053
:1032C00002F096FF00200449087010BD94450020CC
:1032D000BD62000800020020FC01002030B503465A
:1032E000B1F90040B2F90050AC4202DDB1F9004042
:1032F00001E0B2F900401C80B1F90240B2F902507D
:10330000AC4202DDB1F9024001E0B2F902405C805A
:10331000B1F90440B2F90450AC4202DAB1F9044008
:1033200001E0B2F904409C80B1F90640B2F90650C0
:10333000AC4202DAB1F9064001E0B2F90640DC80A5
:103340000120B3F90040B3F90450AC4205DCB3F9F5
:103350000240B3F90650AC4200DD002030BDF8B5A4
:1033600004460D4616460027B4F90000B5F90010D2
:10337000884212DBB4F90200B5F9021088420CDB76
:10338000B4F90400B5F90410884206DCB4F906006B
:10339000B5F90610884200DC01270FB90020F8BDFE
:1033A0000EB90120FBE72088ADF800006088ADF879
:1033B000020032466946284600F0A7F808B9002006
:1033C000EDE7A088ADF800006088ADF80200324655
:1033D0006946284600F099F808B90020DFE7208800
:1033E000ADF80000E088ADF8020032466946284694
:1033F00000F08BF808B90020D1E7A088ADF80000F4
:10340000E088ADF8020032466946284600F07DF8B3
:1034100008B90020C3E70120C1E70246B2F9000065
:10342000B1F90430984213DCB2F90400B1F900306C
:1034300098420DDBB2F90200B1F90630984207DC80
:10344000B2F90600B1F90230984201DB0120704761
:103450000020FCE7F8B504460D461646B4F9040012
:10346000B5F90010884211DBB4F90600B5F9021075
:1034700088420BDBB4F90000B5F90410884205DC82
:10348000B4F90200B5F90610884201DD0120F8BD4B
:103490000EB90020FBE72088ADF800006088ADF889
:1034A000020032466946284600F02FF808B1002095
:1034B000EDE7A088ADF800006088ADF80200324664
:1034C0006946284600F021F808B10020DFE720888F
:1034D000ADF80000E088ADF80200324669462846A3
:1034E00000F013F808B10020D1E7A088ADF8000083
:1034F000E088ADF8020032466946284600F005F83B
:1035000008B10020C3E70120C1E72DE9FC5F0546B3
:103510000E4614464FF0000AB6F90000B5F9001047
:10352000884213DBB6F90000B5F9041088420DDCBF
:10353000B6F90200B5F90210884207DBB6F90200BD
:10354000B5F90610884201DC4FF0010ABAF1000F0C
:1035500002D10020BDE8FC9F002C01DC0120F9E72E
:10356000284614F0A4FC834600EBDB704710284685
:1035700014F015FC834600EBDB704FEA600847450A
:1035800001DA384600E0404681464C4500DD4C46B5
:103590002888ADF800002888204400B2ADF8040067
:1035A0006888ADF802006888204400B2ADF80600D3
:1035B000002231466846FFF7A8FF80B1BDF804003D
:1035C000204400B2ADF80400BDF80600204400B26B
:1035D000ADF806003146684625F0F4F8BAE7E88809
:1035E000001B00B2ADF80200E888ADF8060000222A
:1035F00031466846FFF789FF80B1BDF804002044DA
:1036000000B2ADF80400BDF80200001B00B2ADF836
:1036100002003146684625F0D5F89BE7A888001BD4
:1036200000B2ADF80000A888ADF8040000223146D1
:103630006846FFF76AFF80B1BDF80000001B00B2CA
:10364000ADF80000BDF80200001B00B2ADF80200AA
:103650003146684625F0B6F87CE76888ADF8020088
:103660006888204400B2ADF8060000223146684662
:10367000FFF74BFF80B1BDF80000001B00B2ADF8B2
:103680000000BDF80600204400B2ADF80600314647
:10369000684625F097F85DE701205BE710B5B1F9C2
:1036A0000030B2F90040A34202DAB1F9003001E083
:1036B000B2F900300380B1F90230B2F90240A342FE
:1036C00002DAB1F9023001E0B2F902304380B1F917
:1036D0000430B2F90440A34202DDB1F9043001E044
:1036E000B2F904308380B1F90630B2F90640A34242
:1036F00002DDB1F9063001E0B2F90630C38010BD39
:103700002DE9FF47064628F028FC8146002003905B
:103710001EB19B49F068086003E017F031FA984940
:10372000086097490968086924F0AAFF944800686E
:10373000406920B192490968486924F0A1FF904985
:103740000968C86924F09CFF8D490968086A24F05B
:1037500097FF8B480068006940B9002088490968D4
:10376000A1F8500100BF00BFBDE8FF8725F026FB90
:1037700025F06CFA82480068B0F8500100284BD060
:103780007F4800680068007CC0F34000E8B17C48D6
:10379000006817F073FA401E04B27948006817F009
:1037A00007FA401E07B23B460022114601A80094CA
:1037B00014F0C2FB01A8724909680968896B486066
:1037C0006F48006806F0EEFB00BF4FF480716C4854
:1037D000006830301FF07FF920216948006800F54B
:1037E00098701FF078F9002065490968A1F8500128
:1037F000484628F0A5FB0390614800680068406ACD
:1038000050B15F49096808685D49096809684B6AF1
:103810005C490A68039998471EF094FE00F0F6F898
:1038200000F0BEF858484569002D53D100BF17F08D
:10383000A7F9074617F0D7F904461DF03BFB0546EC
:1038400000227F21284624F0CCFD00BF0022114633
:10385000104616F04CFB0190BDF8041008460022FB
:1038600001460290284624F09FFD00BFFF2211462A
:10387000104616F03CFB0190BDF8041008460022EB
:1038800001460290284624F071FE002203212846BA
:1038900024F052FE00220321284624F026FE0022B6
:1038A0000321284624F02EFE00220321284624F07E
:1038B00036FE00220321284624F04BFE33A1284681
:1038C0001EF000FB00231A46062128461FF09CFD2F
:1038D0002D4845612C49086828F032FBB0F5967FE9
:1038E00010D22848006841F28831884245D92648DC
:1038F0004068039908442449486008468068401C91
:1039000088603AE028F029FB1F4908601C480068DD
:10391000406800684FF47A71B1FBF0F71A484068CC
:1039200010B90120184948601748806808B93C461A
:1039300008E0154880684FF47A7148431249496895
:10394000B0FBF1F40020104948608860BC4200D907
:103950003C460D48006920440B4908610846C06890
:10396000401CC86028F0C6FBC0F1640843462246EC
:1039700007A128461EF0FEFA00BF00BFF4E60000D3
:10398000C0000020BC000020D04300203F00000009
:103990002575204650530A2575252520435055008E
:1039A00010B5002416E0C4EBC4000C4951F8200007
:1039B00030B1C4EBC401094A52F821001EF074FE74
:1039C000C4EBC401054A02EB81001C211FF083F8FF
:1039D000601CC4B2042CE6DB10BD00007046002061
:1039E0000146094A10680BE042688A4202D0026828
:1039F0008A4204D1027E22F00102521C0276406902
:103A00000028F1D1704700009400002070470000AA
:103A100010B50421014800F0E3FF10BD88450020E7
:103A200010B51C21014800F0DBFF10BDA0450020AF
:103A30002DE9FF4F8BB004469A46199DBAF1000F4D
:103A400011D11898B0F5807F0DD1002020806080C2
:103A50000C98401E00B2A0800D98401E00B2E0807D
:103A60000FB0BDE8F08FB5F9000040421899484307
:103A70000121C1EB202000B22080B5F902004042B4
:103A8000189948430121C1EB202000B26080B5F9AC
:103A900000100C98401A18994843022101EB20208D
:103AA00000B2A080B5F902100D98401A1899484349
:103AB000022101EB202000B2E080BAF1000F14D106
:103AC00020882988084400B22080608869880844DA
:103AD00000B26080A0882988084400B2A080E088F5
:103AE0006988084400B2E080BAE70A209AFBF0F047
:103AF0000A900A98401C09900A9800EB8000AAEBF3
:103B0000400B0A9800B228F02BFD0890099800B2EB
:103B100028F026FD07900A985A3000B228F020FDC0
:103B2000069009985A3000B228F01AFD0590CBF1A2
:103B30000A0108984143079800FB0B100A2190FBEB
:103B4000F1F6CBF10A0106984143059800FB0B10F2
:103B50000A2190FBF1F776117F11B4F90080B4F9D6
:103B6000029007FB08F006FB1900298801EBA02052
:103B700000B2ADF8100006FB08F007FB09006988E9
:103B800001EBA02000B2ADF81200B4F90480B4F942
:103B9000029007FB08F006FB1900298801EBA02022
:103BA00000B2ADF80C0006FB08F007FB09006988BD
:103BB00001EBA02000B2ADF80E00B4F90080B4F91A
:103BC000069007FB08F006FB1900298801EBA020EE
:103BD00000B2ADF8080006FB08F007FB0900698891
:103BE00001EBA02000B2ADF80A00B4F90480B4F9EA
:103BF000069007FB08F006FB1900298801EBA020BE
:103C000000B2ADF8040006FB08F007FB0900698864
:103C100001EBA02000B2ADF80600BDF90800BDF927
:103C20001010884202DABDF9080001E0BDF9100069
:103C3000BDF90410BDF90C20914202DABDF904105F
:103C400001E0BDF90C1088420BDABDF90800BDF99E
:103C50001010884202DABDF908000DE0BDF910002D
:103C60000AE0BDF90400BDF90C10884202DABDF982
:103C7000040001E0BDF90C002080BDF90800BDF989
:103C80001010884202DDBDF9080001E0BDF9100006
:103C9000BDF90410BDF90C20914202DDBDF90410FC
:103CA00001E0BDF90C1088420BDDBDF90800BDF93B
:103CB0001010884202DDBDF908000DE0BDF91000CA
:103CC0000AE0BDF90400BDF90C10884202DDBDF91F
:103CD000040001E0BDF90C00A080BDF90A00BDF9A7
:103CE0001210884202DABDF90A0001E0BDF91200A3
:103CF000BDF90610BDF90E20914202DABDF9061099
:103D000001E0BDF90E1088420BDABDF90A00BDF9D9
:103D10001210884202DABDF90A000DE0BDF9120066
:103D20000AE0BDF90600BDF90E10884202DABDF9BD
:103D3000060001E0BDF90E006080BDF90A00BDF982
:103D40001210884202DDBDF90A0001E0BDF912003F
:103D5000BDF90610BDF90E20914202DDBDF9061035
:103D600001E0BDF90E1088420BDDBDF90A00BDF976
:103D70001210884202DDBDF90A000DE0BDF9120003
:103D80000AE0BDF90600BDF90E10884202DDBDF95A
:103D9000060001E0BDF90E00E08000BF60E62DE9FD
:103DA000F74F86B0044620680590B4F908100798CC
:103DB000A0EB0108B4F90A100898A0EB0109E0890A
:103DC000B0F5807F13D1206B00FB08F0E16A01FBA6
:103DD0001901606A00EBA10BE06A00FB08F0216B9F
:103DE00001FB0901A06A00EBA10004902FE0A0896B
:103DF00080B9A06B00FB08F04FEA6018A06B00FBD5
:103E000009F04FEA6019606A00EB080BA06A4844A9
:103E100004901CE0A06B00FB08F04FEA6018A06B58
:103E200000FB09F04FEA6019206B00FB08F0E16A23
:103E300001FB1901606A00EBA12BE06A00FB08F0AE
:103E4000216B01FB0901A06A00EBA12004904FEA5D
:103E50002B2604980712B4F90400B04203DC0020BA
:103E600009B0BDE8F08F002E01DA0020F8E7B4F9C0
:103E70000600B84201DC0020F2E7002F01DA002042
:103E8000EEE73420005DC0F3800050B33420005DC5
:103E9000C0F3400078B90225B4F9040078436843C0
:103EA00006FB050A059800EB0A012A4604F11400F6
:103EB0001EF0BFFD2CE00325B4F9040078436843ED
:103EC00006FB050A6A1E059800EB0A0104F11400BE
:103ED0001EF0AFFD0AEB0500401E0599095CA175B7
:103EE00016E04FF0000A0025208A03463AB231B2AC
:103EF000019004F118001BF089FA0290BDF8080047
:103F0000A0823AB231B204F118001BF0DFF9A075BB
:103F10003420005D00F00100B0B14FF47F4000217B
:103F200000F47C4241EA5211C0F3C40211430191F2
:103F3000BDF8042011460291A08ABDF808108842FD
:103F400001D100208CE700BFE07C08B9012087E7A1
:103F50000FFA8BF1A187049801B2E18731B24020BA
:103F6000015339B242200153C4F844A084F84850A8
:103F7000204600F003F80390039871E72DE9F04F15
:103F80008DB00446D4F8009094F83C000C9094F85E
:103F90003E000B900C9870280BDA4FF0FF35B4F907
:103FA00040002844002800DA00250C988030C7B271
:103FB00013E00C9890280EDD0125B4F94000284448
:103FC000B4F90410884200DB00250C98C0F1FF0012
:103FD0008030C7B201E00025FF270B9870280CDA6B
:103FE0004FF0FF36B4F942003044002800DA0026D2
:103FF0000B98803000F0FF0815E00B9890280FDD3B
:104000000126B4F942003044B4F90610884200DBBE
:1040100000260B98C0F1FF00803000F0FF0802E09E
:1040200000264FF0FF08A08A0A90A07D069000208D
:104030000590049003903420005DC0F380000028B8
:104040005BD094F84800626C00FB052000EB09018E
:10405000022209A81EF0EDFCB4F9040094F84820EF
:104060005043626C00FB062000EB0901022208A805
:104070001EF0DFFCB4F9040094F848205043626C51
:1040800000FB062294F8480000FB052000EB090124
:10409000022207A81EF0CDFC3420005DC0F34000D2
:1040A00000287ED094F84800616C00FB051108449C
:1040B000401E19F800000590B4F9040094F8481067
:1040C0004843616C00FB061194F848000844401E08
:1040D00019F800000490B4F9040094F8481048431B
:1040E000616C00FB061194F8480000FB05110844C0
:1040F000401E19F80000039053E0208A0090B4F9A4
:1041000042204020005B284401B204F11800009BCB
:104110001BF07CF90990208A00904220005B30441B
:1041200002B2B4F9401004F11800009B1BF06EF9C4
:104130000890208A00904220005B304402B2402068
:10414000005B284401B204F11800009B1BF05EF9EB
:1041500007903420005DC0F3400010B3B4F9422052
:104160004020005B284401B204F118001BF0AEF8B7
:1041700005904220005B304402B2B4F9401004F1D3
:1041800018001BF0A3F804904220005B304402B2F8
:104190004020005B284401B204F118001BF096F89F
:1041A0000390BA46BB463420005DC0F34000E0B344
:1041B00006987843C7F1FF0C059B03FB0C00C0F386
:1041C000072104987843C7F1FF0C039B03FB0C0005
:1041D000C0F3072201FB08F0C8F1FF0302FB030054
:1041E000030AA375022905DC022A03DC00200DB0B6
:1041F000BDE8F08F022901DC4FF00008022A01DC43
:104200004FF0FF080698022801DC4FF0000A0598DD
:10421000022801DC4FF0FF0A0498022801DC4FF06D
:10422000000B0398022803DC00E002E04FF0FF0BD4
:1042300003E0BA46BB46FF21A175BAF1000F02D1D7
:10424000099802900BE0BAF1FF0F02D10A98029090
:1042500005E05246DDE9091015F00AFF0290BBF1B6
:10426000000F02D1079801900BE0BBF1FF0F02D1C4
:104270000898019005E05A46DDE9071015F0F8FEB0
:104280000190B8F1000F03D1BDF80400A0820FE047
:10429000B8F1FF0F03D1BDF80800A08208E0424644
:1042A000DDE9011015F0E4FE0090BDF80000A082E9
:1042B00001209CE72DE9F05F0446B4F908000102F3
:1042C0006162B4F90A000102A162B4F90C000A218A
:1042D00090FBF1F56F1CB4F90C0005EB8501A0EB28
:1042E0004106684200B228F03BF98046784200B2AD
:1042F00028F036F98146C5F15A0000B228F030F9AD
:104300008246C7F15A0000B228F02AF98346C6F166
:104310000A0000FB08F009FB06000A2190FBF1F1FE
:10432000E162C6F10A0000FB0AF00BFB06000A215D
:1043300090FBF1F12163E06A4111E162206B4111D0
:104340002163A07C1BF071F93421095D60F3000149
:1043500034200155A07C1BF04BF93421095D60F33A
:10436000410134200155A07C042805D0A07C0528FB
:1043700002D0A07C062807D13420005D20F0040084
:10438000001D3421085505E03420005D20F00401B3
:104390003420015521682162A06920F0E000A0616D
:1043A000A17CA06961F30400A061A188A06961F308
:1043B0009420A061E188A06961F35F50A061E08969
:1043C00000EBD071491001F5001191FBF0F2A263EE
:1043D000FF21A175208AA082BDE8F09F2DE9F74357
:1043E000054616460024134C27F0B7FD8046334699
:1043F00029462046019A1BF0C7FD07465FB900BF5A
:1044000000BF2C2120461EF066FB4FF00040A0624A
:104410000020BDE8FE830020A062E06918B9404694
:1044200027F08EFDE061E06908B90120E0612046D7
:10443000EFE70000C445002010B51421114800F03A
:10444000CFFA1BF053FD044600BF1CB900BF00BFEC
:1044500000BFFEE700BF14B900BF00BF10BD0A498E
:1044600020461BF02BFE094920461BF029FE084977
:1044700020461BF027FE074920461BF01DFE00BF0B
:10448000ECE70000AC45002009F70108DDFB01085E
:10449000F9FD0108D1F6010870B504460D4610215A
:1044A00028461EF018FB20680078012804D1208AD5
:1044B0002880608A68800CE020680078022802D199
:1044C000E068686005E020680078042801D10A20CF
:1044D00068602068406820B120682946426890479B
:1044E00001E000BF00BF70BD2DE9FE430446A66A8F
:1044F000EEB9A18A208A084401B2A182E18A608AC9
:10450000084401B2E18220460EF097F906460EB942
:10451000BDE8FE83204611F055FC002209213046FB
:1045200019F0FCFF6078C0F3400000B1F0E7208A8A
:1045300010B9608A002870D000200290019094F891
:104540003C0000F00F00032812D1304620F07CFB25
:104550000746304620F000FB804603200090B4F967
:1045600010103B46424630460CF02CFD029012E003
:10457000304620F0EBFB0746304620F05FFA8046DD
:104580000C200090B4F9121043463A4630460CF025
:1045900019FD019000BF304620F0B0FA054605F045
:1045A000010028B9BDF90800002801DD00200290B3
:1045B00005F0020028B9BDF90800002801DA002042
:1045C000029005F0040028B9BDF90400002801DDBF
:1045D0000020019005F0080028B9BDF9040000286A
:1045E00001DA0020019001AA02A920462AF008FE63
:1045F0000023BDF90420BDF90810304623F084FAE9
:10460000A08ABDF80810084401B2A182E08ABDF872
:104610000410084401B2E18200BF00BF78E72DE931
:10462000F84F0446D4F828B0BBF1000F01D1BDE823
:10463000F88F94F83C0000F00F0000B9F7E71CF089
:1046400027F806463068477E4021584621F086FF0D
:1046500010B9002161832183584620F063FB804616
:10466000584620F069FB054694F83C0000F00F0026
:104670000C2843D1002121831DBBB4F91A00C7F1D6
:1046800064014843642190FBF1F001B26183584614
:1046900020F0D4F98146584620F058FB82460C2081
:1046A0000090B4F91A104B46524658460CF08AFC5A
:1046B0006083B4F91A2000231946584623F024FADF
:1046C00069E020462AF0F3FD0090002161836A46EC
:1046D00020462AF095FDBDF9003041F6FF725142A7
:1046E00058460EF053FA8146BDF80000484402B225
:1046F00001230021584623F007FA4CE094F83C00CF
:1047000000F00F00032846D100216183B8F1000FAB
:1047100023D1B4F91800C7F164014843642190FB28
:10472000F1F001B22183584620F016FA814658462E
:1047300020F08AFA824603200090B4F918105346FC
:104740004A4658460CF03EFC2083B4F9181000236A
:104750001A46584623F0D8F91DE020462AF08CFD71
:104760000090002121830022694620462AF048FD5E
:10477000BDF9003041F6FF72514258460EF06CF917
:104780008146BDF80000484401B20123002258468A
:1047900023F0BAF900BF208B002860D1608B00287D
:1047A0005DD11DBB584620F0D1FA8146584620F015
:1047B00045F98246B9F1000F02DCBAF1000F14DDB1
:1047C000B9F1000F06DA01234A460021584623F0CA
:1047D0009BF90AE0BAF1000F07DA0123CAF10000E1
:1047E00002B20021584623F08FF900BFB8F1000F44
:1047F00023D1584620F0B0F98146584620F024FADB
:104800008246B9F1000F02DCBAF1000F14DDB9F1F4
:10481000000F06DA012300224946584623F074F9B6
:104820000AE0BAF1000F07DA01230022CAF1000002
:1048300001B2584623F068F900BF32460A215846B3
:1048400019F06CFE6078C0F3400000B1EFE694F818
:104850003C0020F00F0184F83C100021A16200BF51
:10486000E5E62DE9FF4104460F4614B916F088F934
:1048700004460CB9BDE8FF811FB90020A4F850011F
:10488000F8E70020ADF80800ADF80A00204616F061
:104890008FF9401E00B2ADF80C00204616F0EEF97C
:1048A000401E00B2ADF80E0002AA39466846FEF777
:1048B00015FD064606B9DDE72068007CC0F3400020
:1048C00060B102982063039860630120A4F850014E
:1048D000606810B1606827F0C9FCCBE72068806988
:1048E00018B1206869468269904700250BE004F101
:1048F000300000EBC50100226846FEF730FD00B134
:10490000B8E7681C85B2B4F85001A842EFDCB4F8EF
:104910005001202809DAB4F8502104F1300101EBEC
:10492000C200694613F0ABF90BE00020A4F8500177
:10493000B4F8502104F1300101EBC20002A913F0D8
:104940009EF9B4F85001401CA4F85001606810B101
:10495000606827F08BFC00BF8CE770B505462846E1
:1049600000F013F8044600260CE02146284600F02B
:1049700024F806462146284600F086F820461DF019
:1049800093FE3446002CF0D170BD014609B90020D9
:1049900070474868FCE770B5064600243046FFF7CC
:1049A000F4FF054605E0641C2946304600F005F892
:1049B0000546002DF7D1204670BD02460B46106813
:1049C000001D03441868704702460B4610680344F4
:1049D00018687047014609B9002070478868FCE7ED
:1049E000002242608260CA1C22F00301016070470D
:1049F00070B50446216801F108001DF087FD0546E9
:104A0000A5B100222946204628F0C4FF29462046A9
:104A1000626828F0B1FF606820B12A4620466168CC
:104A200028F0B8FF6560A06800B9A560284670BD91
:104A300070B50446216801F108001DF067FD0546C8
:104A4000A5B100222946204628F096FF2946204697
:104A5000A26828F09FFFA06820B12A462046A168DE
:104A600028F08AFFA560606800B96560284670BDBF
:104A7000014609B901207047486818B9886808B923
:104A80000120F8E70020F6E72DE9F04104460D4645
:104A90000CB9BDE8F0812046FFF777FFA8420FD19F
:104AA00029462046FFF789FF6060606810B9002042
:104AB000A0602FE000222046616828F06BFF29E00B
:104AC0002046FFF787FFA8420FD129462046FFF76F
:104AD0007BFFA060A06810B9002060601AE000228F
:104AE0002046A16828F048FF14E029462046FFF739
:104AF0006BFF064629462046FFF75FFF07463A460A
:104B00003146204628F038FF32463946204628F004
:104B100041FF00BF00BFBCE710B5044620688068B5
:104B200018B120682146826890472068006828B143
:104B30002068006820602046FFF7EEFF10BD0146A8
:104B4000886818B18868B0F9160070470020FCE743
:104B50002DE9F04F93B005468B4691469A461C9E30
:104B6000688C20F00400001D6884A5F8209032892C
:104B70005946284621F06EFA1290A5F820A03289F5
:104B80005946284621F066FA1190688C20F00400FE
:104B90006884DDE9111088420CD1DDE911108842EA
:104BA00008D1BDF84800BDF84410884202D113B0C6
:104BB000BDE8F08FA5F8209032895946284621F0AB
:104BC00049FA1290A5F820A0594628460FF0F3FEA6
:104BD00010903189109A1068129A25F07AFE308967
:104BE000602833D147F6FF711298884202D011989D
:104BF00088422BD1284621F054FC0F9000EBD07056
:104C00004710284621F04DFC0F9000EBD0704FEA82
:104C1000600847F6FF711298884208D1781C08F1A5
:104C20000101884200DA01E008F10100129047F624
:104C3000FF711198884208D1781C08F1010188425F
:104C400000DA01E008F10100119000BF2448FFF7ED
:104C5000CFFE044600BF1CB900BF00BF00BFFEE787
:104C600000BF04B9A3E71298E06011982061ACB3CB
:104C700025603089A080C4F808B0684612F0CAF9EF
:104C80002146684612F079FA1649684612F045FA4C
:104C90001548029000BF1549684612F04CFAFF22F1
:104CA0000021684612F059FA3188684612F04BFA32
:104CB0007188684612F02CFAF068069000BF6846CA
:104CC000002190F83E2061F3000280F83E2000BFF2
:104CD00030690590684612F067FA00BF00BF66E7CA
:104CE000B8450020352C0308E12E0308112E0308D7
:104CF00010B514210148FFF773FE10BDB845002020
:104D00002DE9FE4F04460F4690464FF0000900255E
:104D10006BE1E06800EBC5004068C0F3406000B1A3
:104D200062E1E16801EBC501496821F07F4023F0B1
:104D3000A4FC064626EA070008B9012000E000208E
:104D4000029026EA080008B9012000E00020019046
:104D5000DDE90101814272D0E06850F835A04FF0E2
:104D6000000B6A4641F61001504625F04BFA10B18F
:104D70004FF0010BA9E06A4641F61101504625F0BB
:104D800041FA10B14FF0010B9FE06A4641F6120163
:104D9000504625F037FA10B14FF0010B95E06A4606
:104DA00041F61301504625F02DFA10B14FF0010BDA
:104DB0008BE06A4641F61501504625F023FA10B102
:104DC0004FF0010B81E06A4641F61401504625F090
:104DD00019FA10B14FF0010B77E06A4641F2690110
:104DE000504625F00FFA10B14FF0010B6DE06A4606
:104DF00043F20C01504625F005FA10B14FF0010BBB
:104E000063E06A4643F20D01504625F0FBF910B10C
:104E10004FF0010B59E06A4641F20101504625F07E
:104E2000F1F910B14FF0010B4FE06A4641F2040175
:104E3000504625F0E7F918B14FF0010B45E0D2E0FC
:104E40006A4641F20201504625F0DCF910B14FF0FC
:104E5000010B3AE06A4641F20301504625F0D2F9CF
:104E600010B14FF0010B30E06A4641F205015046A7
:104E700025F0C8F910B14FF0010B26E06A4641F267
:104E80000601504625F0BEF910B14FF0010B1CE0B1
:104E90006A4641F23201504625F0B4F910B14FF0A4
:104EA000010B12E06A4643F60F01504625F0AAF9BD
:104EB00010B14FF0010B08E06A4643F60E01504670
:104EC00025F0A0F908B14FF0010BBBF1000F02D0A3
:104ED0000320BDE8FE8F6A4640F60A01504625F0E1
:104EE00091F910B14FF002097CE06A4640F60B01DF
:104EF000504625F087F910B14FF0020972E06A467A
:104F000043F60F01504625F07DF910B14FF002092C
:104F100068E06A4643F60E01504625F073F910B179
:104F20004FF002095EE06A4640F63C01504625F02B
:104F300069F910B14FF0020954E06A4640F63D01AC
:104F4000504625F05FF910B14FF002094AE06A4679
:104F500040F63A01504625F055F910B14FF00209DC
:104F600040E06A464FF40461504625F04BF910B119
:104F70004FF0020936E06A4640F64501504625F0FA
:104F800041F910B14FF002092CE06A4640F64101A8
:104F9000504625F037F910B14FF0020922E06A4679
:104FA00040F64201504625F02DF910B14FF00209AC
:104FB00018E06A4640F64301504625F023F910B147
:104FC0004FF002090EE06A4640F64901504625F0CE
:104FD00019F910B14FF0020904E0B9F1000F01D145
:104FE0004FF0010900BF00BF6D1C608CC0F3C5000D
:104FF000A8423FF68EAE48466BE7000001480068C5
:1050000070470000C000002010B5024828F079FD6C
:1050100010BD0000D04300200146C1F30412072A4E
:1050200000DD0722D0B2704710B518210348FFF702
:10503000D7FC012027F02CF810BD000064450020AB
:105040002DE9F04105460F4616460DB9BDE8F08141
:105050002846FBF734F98046394628460A4A126842
:1050600090470746E8193146074A126890470646B6
:105070003C4603E0A019285C2855641CA8EB0600F8
:10508000A042F7D200BFE1E74C0200202DE9F04139
:1050900006460C4617461D4629463046084A126801
:1050A00090472060206830B1296888190021044A9F
:1050B0001268904700E000203860BDE8F0810000F1
:1050C000440200202DE9F04F87B004460F46924677
:1050D0009846DDE910560DB1002028801CB900204B
:1050E00007B0BDE8F08F207808B90020F8E70FB9C5
:1050F0000020F5E74FF0000906F0020010B906F0B5
:10510000040098B1002000E0401C215C0A2905D071
:10511000215C0D2902D0215C0029F5D1215C01B16F
:10512000401C15B14FF0FF312980D9E706F002008D
:1051300008B141F6FF7800200690059038E0002085
:105140000490059808B9012000E0002006A904AAEF
:10515000CDE90062CDE90210059960184346524638
:10516000394627F035FA83460498A8EB00000FFA79
:1051700080F8049848440FFA80F9BBF1000F00D181
:105180001CE005985844059020780A2802D0207821
:105190000D2800D112E00598205C0A2803D005985C
:1051A000205C0D2803D10598401C059006E000BF47
:1051B0000598205C10B1B8F1000FC0DC00BF059865
:1051C00070B905A92046094A12689047834635B14F
:1051D00000225946384619F0E4FA0FFA80F900BF68
:1051E0000DB1A5F8009005987AE700004402002070
:1051F0002DE9F04706468846174606B10FB9BDE8C7
:10520000F0873046FBF75BF881463846FBF757F8E6
:10521000044604B9F3E704EB090A414630460B4A59
:10522000126890478046554603E0281B305C705555
:105230006D1E08EB0400A842F7D906EB08002246D1
:1052400039461DF002FC00BFD9E700004C020020E7
:10525000024600200FA31B788B4211D113781BB993
:105260000123137001200BE01378012B02D10023DE
:10527000137005E01378022B02D100231370012074
:105280001378012B04D1202901D1022313700120AE
:10529000704700002300000073B582B006460398F3
:1052A0000190324600210846019B27F0ADFC0546DF
:1052B000002001900024681C1DF028F9044600BF5E
:1052C0001CB900BF00BF00BFFEE700BF14B900203B
:1052D00004B070BD002060553246691C2046039B17
:1052E00027F092FC2046F3E72DE9F04781460E4671
:1052F00014461F46DDF820A035461BE0600800FB81
:10530000075529464846D047B0F1000809DD04F0AA
:10531000010080F00100C0EB5404E8190546064680
:1053200008E0B8F1000F02DA6408354602E02846CA
:10533000BDE8F087002CE1D10020F9E72DE9FF4F0F
:1053400085B08346DDE9158ADDE91349DDE9177586
:10535000129E05F00200F8B94FB105F0010030B11E
:10536000B9F1000F02D105F00C0000B17F1E03E07F
:1053700030222046641C3254544501D2202CF7D3ED
:1053800003E030222046641C325405F0010018B1BD
:10539000BC4201D2202CF4D305F01000B0B305F4C8
:1053A000806050B94CB1544501D0BC4205D1641E57
:1053B0001CB1B8F1100F00D1641EB8F1100F09D163
:1053C00005F0200030B9202C04D278222046641C3D
:1053D000325415E0B8F1100F09D105F0200030B1BA
:1053E000202C04D258222046641C325408E0B8F124
:1053F000020F05D1202C03D262222046641C3254B5
:10540000202C03D230222046641C3254202C16D289
:10541000B9F1000F04D02D222046641C32540EE056
:1054200005F0040020B12B222046641C325406E013
:1054300005F0080018B120222046641C3254CDE942
:105440000275CDE90064584606A90EC900F0A2F81D
:1054500009B0BDE8F08F2DE9FF4F8FB08046DDE940
:105460001FABDDE91D96219D1C9C00270CB925F082
:10547000100505F4806000B1E4B100BFB4FBF6F1A3
:1054800006FB1141C8B20A2802DA00F1300107E038
:1054900005F0200109B1412100E0612101440A39F0
:1054A000CBB239467F1C07AA5354B4FBF6F40CB1B7
:1054B000202FE3D307A8CDE904AB8DE88102039642
:1054C0000695404610A90EC9FFF738FF13B0BDE896
:1054D000F08F2DE9FF4F8FB0DDE9217BDDF8908063
:1054E000209EDDE91C454FF00009002184EA0100FF
:1054F0006940084301D128F0100808F4806028B101
:10550000002184EA0100694008432DD000BF3246E3
:105510003B4620462946FAF773FE02F0FF0ABAF12D
:105520000A0F02DA0AF1300007E008F0200008B1A3
:10553000412000E0612050440A38C2B2484609F1D7
:10554000010907A90A5432463B4620462946FAF784
:1055500057FE04460D46002184EA010069400843D5
:1055600002D0B9F1200FD2D32398CDE9036BCDE956
:10557000050807A91E98CDE9001902900FA80FC8C9
:10558000FFF7DCFE13B0BDE8F08F9A4200D28854DA
:10559000704770472DE9FF5F05461446DDE90EA60A
:1055A000DDE91087A34607F0020078B907F0010093
:1055B00060B9B14607E02246641C2020039B019994
:1055C000A84709F10109C145F5D300BF08E022460B
:1055D000641C711E0E461AF80100039B0199A8472E
:1055E000002EF4D107F0020050B105E02246641C01
:1055F0002020039B0199A847A4EB0B004045F5D35D
:10560000204604B0BDE8F09F2DE9FF4F8BB09A46CD
:105610000F460546002606E025280BD052460D9978
:1056200090476D1C761C28780028F5D10FB03046C5
:10563000BDE8F08F0024A0460122604900E0044349
:1056400015F8013F203B02FA03F00842F7D1287811
:105650002E2817D115F8010F44F004042A280ED083
:105660006FF02F022878A0F1300109290AD808EB41
:10567000880102EB410100EB01086D1CF2E757F8CD
:10568000048B6D1C287869283ED006DC0028CDD01C
:1056900063280BD0642804D136E0732810D0752815
:1056A0004BD052460D999047761C85E017F8040BB5
:1056B0008DF8000000208DF80100E946012003E08C
:1056C00057F8049B4FF0FF3061074FF0000401D4FE
:1056D0000AE0641C44450DDA8442FADB19F8041030
:1056E0000029F6D106E0641C8442FCDB19F80410A2
:1056F0000029F8D1264404E019F8010B52460D990F
:105700009047641EF8D257E001CF4FF00A0B0028F3
:1057100002DA40422D2102E0210504D52B218DF82B
:105720002410012103E0E10705D02021F7E70DF166
:10573000200908910CE00021F9E701CF4FF00A0B96
:10574000F9E75946FAF792FE01F1300209F8012D06
:105750000028F6D1ADEB090000F1200B600701D461
:105760004FF00108D84502DDA8EB0B0000E0002057
:105770008046002406E009A85246005D0D99904736
:10578000641C761C08988442F5DB04E03020524605
:105790000D999047761CB8F10001A8F10108F5DCDD
:1057A00005E019F8010B52460D999047761CBBF1A4
:1057B0000001ABF1010BF4DC6D1C34E7092801009A
:1057C0002DE9FF4F8BB0074600250C9800B9FA4F22
:1057D000EAE20E98007825280AD02A466D1C0E9918
:1057E0000878DDE90C13B8470E98401C0E90DBE2F8
:1057F0000E98401C0E90002400BF0E9800782B28B5
:1058000019D004DC20281ED023282CD123E02D28F9
:1058100009D0302827D144F001040E98401C0E9086
:1058200001200A9022E044F002040E98401C0E90E1
:1058300001200A901AE044F004040E98401C0E90D7
:1058400001200A9012E044F008040E98401C0E90CB
:1058500001200A900AE044F010040E98401C0E90BB
:1058600001200A9002E000200A9000BF00BF0A98C1
:105870000028C2D180460E990878FDF70BFD20B1B3
:105880000EA8FDF7F2FC804612E00E9800782A2858
:105890000ED1189901C91891002804DA44F00204C5
:1058A000C0F1000800E080460E99491C0E9100BF2F
:1058B0004FF000090E9800782E281FD144F4806420
:1058C0000E98401C0E900E990878FDF7E3FC20B16D
:1058D0000EA8FDF7CAFC814610E00E9800782A2831
:1058E0000CD1189901C91891002801DD014600E08A
:1058F000002189460E99491C0E9100BF0E98007830
:105900006C280AD004DC682816D06A2835D128E033
:10591000742820D07A2830D129E044F480740E987D
:10592000401C0E900E9800786C2804D144F400744A
:105930000E98401C0E9021E044F080040E98401C0C
:105940000E900E980078682804D144F040040E9818
:10595000401C0E9012E044F480740E98401C0E908F
:105960000CE044F400740E98401C0E9006E044F4E1
:1059700080740E98401C0E9000E000BF00BF0E988F
:10598000007869281DD00EDC622821D006DC25288D
:105990007ED050281AD058287BD115E0632879D0C2
:1059A0006428F9D10CE0732875D004DC6F280ED080
:1059B0007028F1D109E0752804D07828ECD102E0F4
:1059C00000BF00BF00BF00BF00BF00BF00BF00BFDF
:1059D0000E980078782803D00E980078582801D1C6
:1059E000102623E00E980078702803D00E980078D7
:1059F00050280CD1102644F0100444F480740E9802
:105A00004078562812D10E98401C0E900EE00E9849
:105A100000786F2801D1082608E00E9800786228E7
:105A200001D1022602E00A2624F010040E98007824
:105A3000582803D00E980078502801D144F0200453
:105A40000E980078692805D00E980078642801D057
:105A500024F00C0404F4806008B124F001040E98D2
:105A60000078692803D00E98007864287CD104F46B
:105A70000070B8B31898C01D20F007001890D0E946
:105A800000AB189A083218920020CDE9069803E07E
:105A900073E17CE1F2E01CE1CDE904600894BAEB2B
:105AA00000017BEB000001DA012000E00020002172
:105AB00002900846B1EB0A0170EB0B0002DA504687
:105AC000594605E000200146B0EB0A0061EB0B01EE
:105AD000CDE900012A463846DDE90C13FFF7F9FC51
