:020000040800F2
:10000000D8810020450100083B0800089907000836
:1000100039080008F7020008FD1F00080000000072
:10002000000000000000000000000000351A000879
:100030000F05000800000000B50800085D01000879
:100040005F0100085F0100085F0100085F01000810
:100050005F0100085F0100085F0100085F01000800
:100060005F0100085F0100085F0100085F010008F0
:100070005F0100085F0100085F0100085F010008E0
:100080005F0100085F0100085F0100085F010008D0
:100090005F0100085F0100085F0100085F010008C0
:1000A0005F0100085F0100085F0100085F010008B0
:1000B0005F0100085F0100085F0100085F010008A0
:1000C0005F0100085F0100085F0100085F01000890
:1000D0005F0100085F0100085F0100085F01000880
:1000E0005F0100085F0100085F0100085F01000870
:1000F0005F0100085F0100085F0100085F01000860
:100100005F010008410B00085F0100085F01000863
:100110005F0100085F0100085F0100085F0100083F
:100120005F0100085F0100085F0100085F0100082F
:10013000DFF80CD000F0A2F800480047714000083A
:10014000D88100200648804706480047FEE7FEE7C2
:10015000FEE7FEE7FEE7FEE7FEE7FEE7FEE7FEE777
:10016000ED1A0008310100082DE9F05F0546002076
:1001700092469B4688460646814640241BE0284618
:1001800041464746224600F069F853465A46C01A8F
:10019000914110D311461846224600F050F82D1A0E
:1001A00067EB01084F4622460120002100F047F886
:1001B00017EB00094E41201EA4F10104DFDC484684
:1001C00031462A464346BDE8F09F40EA01039B07BB
:1001D00003D009E008C9121F08C0042AFAD203E0BC
:1001E00011F8013B00F8013B521EF9D2704710B5DF
:1001F000044604E00B7800F8013B03B1491C521E91
:10020000F8D2204610BD30B504460020034600E079
:100210005B1C934203D2E05CCD5C401BF8D030BD48
:1002200030B505460020034600E05B1C934205D232
:10023000EC5CC85C201A01D1002CF6D130BD202A1C
:1002400004DB203A00FA02F1002070479140C2F12D
:10025000200320FA03F3194390407047202A04DB5F
:10026000203A21FA02F00021704721FA02F3D0402F
:10027000C2F120029140084319467047064C074DD1
:1002800006E0E06840F0010394E807009847103466
:10029000AC42F6D3FFF750FF48FE020868FE0208A2
:1002A00070B58C1810F8015B15F0070301D110F838
:1002B000013B2A1106D110F8012B03E010F8016B65
:1002C00001F8016B5B1EF9D12B0705D40023521EE8
:1002D0000DD401F8013BFAE710F8013BCB1A921C50
:1002E00003E013F8015B01F8015B521EF9D5A1424E
:1002F000D8D3002070BDFEE770B500254FF48034E0
:1003000000E0641E24B1802000F0FEFB0028F8D03D
:100310002CB140F2FF5000F0B1FB284670BD032025
:1003200070BD00000548416B11F0450FFBD040F255
:10033000FF518163406900F0080070470080014070
:1003400010B500240E4A516B00E0516B11F0450FBF
:10035000FBD0480705D50324042000F08FFB20467E
:1003600010BDC80705D00124012000F087FB2046FE
:1003700010BD40F2FF5000F081FB204610BD000090
:100380000080014010B500240A4A516B00E0516B17
:1003900011F0450FFBD0480705D50324042000F0D9
:1003A0006DFB204610BD40F2FF5000F067FB204679
:1003B00010BD00000080014070B506460C460025C7
:1003C0001C4A506B00E0506B10F0450FFBD041070A
:1003D00005D50324042000F051FB204670BDC00762
:1003E00005D00124012000F049FB204670BD00F03B
:1003F00085FBB04201D0102070BD40F2FF5000F0EC
:100400003DFB002000F092FB10F4604F03D081040C
:1004100005D5132070BD000C2080284670BD410416
:1004200001D5102070BD000401D50F2070BD2846F5
:1004300070BD00000080014010B500204FF48031F5
:100440000D4B5A6B01E0491E5A6B12F0450F01D15A
:100450000029F8D109B1510705D50324042000F083
:100460000DFB204610BD5106FCD50024402000F0B5
:1004700005FB204610BD000000800140C10002D5F0
:10048000024908607047024948607047040402400E
:1004900000000240002904D0016841F00101016020
:1004A000704701684FF6FE7211400160704700000E
:1004B00002460020D10002D50449096801E0044940
:1004C0000968114200D0012070470000000402407A
:1004D0000000024030B5026847F6F0739A430C6A98
:1004E0008B682343D1E904452C4323438C69234380
:1004F000CC6923434C6A23438C6A23431343036030
:10050000CA6842600A6882604968C16030BD70474D
:100510002DE9FC470E460024002700970197584D0F
:100520004FF0080AC5F800A0102068604FF040089E
:10053000C5F80880EF604FF48069C5F81090284630
:1005400000F02AFB1020FFF7EDFE002832D14D48C5
:1005500000890004286037206860C5F80880EF60D3
:10056000C5F81090284600F017FB3720FFF7DAFE99
:1005700000281FD1411E05F114000160C0F804A03D
:10058000302181600221C16007610121416100F0D9
:100590008DFA2F6033206860C5F80880EF60C5F8D9
:1005A0001090284600F0F8FA3320FFF7BBFE05460E
:1005B000280001D0BDE8FC874FF4001A6F46DFF831
:1005C000C88040F22A690AE0504600F09DFA30B136
:1005D00000F0DCFA47F82400641C012C04D8D8F899
:1005E000340010EA090FEFD0082000F08DFA20B196
:1005F000082000F043FA0420DCE7022000F084FA2F
:1006000020B1022000F03AFA0220D3E7202000F0C7
:100610007BFA20B1202000F031FA0620CAE74FF41F
:100620000074204600F070FA20B1204600F026FA4F
:100630000720BFE740F2FF5000F020FA0098009931
:10064000000601F47F4140EA0120009901F47F0196
:1006500040EA1120009940EA116070600198019908
:10066000000601F47F4140EA0120019901F47F0175
:1006700040EA1120019940EA11603060284699E76C
:10068000A8710020C00600200080014008B50121AB
:10069000302000F01FF94FF4F850ADF800000320AF
:1006A0008DF8020018208DF803006946094800F013
:1006B00015F80420ADF800006946074800F00EF870
:1006C0000121880200F0F8F80121022000F0F4F87E
:1006D00008BD000000100140001401402DE9F04168
:1006E0000022CC7804F00F03E40601D58C78234374
:1006F0000C784FF00F0714F0FF0F4FF0010C1CD0D7
:1007000005680CFA02F40E882640A64211D1960024
:1007100007FA06F825EA080503FA06F848EA050587
:10072000CE78282E02D0482E02D002E0446100E0AC
:100730000461521C082AE4D305600A88FF2A1ED9E6
:100740004568002202F108060CFA06F40E882640DD
:10075000A64210D1960007FA06F825EA080503FA22
:1007600006F848EA0505CE78282E00D14461CE78F7
:10077000482E00D10461521C082AE3D34560BDE82D
:10078000F0810246002092680A4200D001207047A2
:100790004161704701617047FEE7000038B50121F3
:1007A000142000F097F80120ADF8000004248DF823
:1007B000034069460648FFF791FFE002ADF80000EC
:1007C0008DF8034069460348FFF788FF38BD0000F5
:1007D000000801400010014038B50121082000F058
:1007E00079F82020ADF8000010208DF803000320D8
:1007F0008DF802000F4C69462046FFF76FFF01217C
:10080000ADF8001069462046FFF768FF0221ADF8F9
:10081000001069462046FFF761FF20212046FFF7C0
:10082000B9FF01212046FFF7B5FF02212046FFF75F
:10083000B1FF38BD000C0140FEE7704770B50F23D3
:10084000C27801260178002A1ED0144A126802F4E8
:10085000E062C2F5E062120AC2F10404D3404578B6
:10086000A54082781A402A43120101F1E02181F863
:100870000024007800F01F018E404009800000F144
:10088000E020C0F8006170BD01F01F0086404809FB
:10089000800000F1E020C0F8806170BD0CED00E048
:1008A0000249084302490860704700000000FA0549
:1008B0000CED00E070470000054A002903D05169A3
:1008C0000143516170475169814351617047000094
:1008D00000100240054A002903D09169014391614B
:1008E0007047916981439161704700000010024098
:1008F00010B5264A516801F00C01254B002927D07C
:10090000042927D0082927D00360516801F0F0019D
:100910000909204B5C5C0168E1404160546804F4C3
:10092000E064240A1C5D21FA04F48460546804F431
:100930006054E40A1B5DD940C160526802F4404231
:10094000920B144B1B1F9A5CB1FBF2F1016110BDBD
:100950000360DAE70360D8E7516801F47011536867
:1009600003F48033022404EB914133B153689B03B9
:1009700007D5094B59430160C7E7074B594301604D
:10098000C3E7034B59430160BFE70000001002407A
:1009900000127A000400002000093D002DE9FC4708
:1009A0000646002400940194002000F0BFF8800166
:1009B00002D50E20BDE8FC872E4D6946288980B2FD
:1009C000FFF7A6FD0028F5D137202B4F4FF0060A80
:1009D0004FF040094FF48068012E22D00199C903DD
:1009E00045D52989090439607860C7F80890FC600A
:1009F000C7F81080384600F0CFF83720FFF792FC98
:100A00000028D7D13C60C7F804A0C7F80890FC6064
:100A1000C7F81080384600F0BFF80620FFF782FCC8
:100A2000C8E70199490320D529890904396078600C
:100A3000C7F80890FC60C7F810800F4800F0ACF8C9
:100A40003720FFF76FFC0028B4D102203860C7F8C8
:100A500004A0C7F80890FC60C7F81080064800F0B2
:100A60009BF80620FFF75EFCA4E72520A2E72520DF
:100A7000A0E70000C0060020A8710020014988639B
:100A80007047000000800140014988637047000002
:100A9000008001400149086070470000A00030421A
:100AA00001490860704700008C05304210B50949C3
:100AB00002684A6242688A62CA6A22F0F702D0E992
:100AC00002342343D0E90440044323431343CB625D
:100AD00010BD000000800140064800210160416017
:100AE0008160C16041628162C162034A8263C16305
:100AF0007047000000800140FF07C0000148006906
:100B0000C0B270470080014001460020024A526B8B
:100B10000A4200D00120704700800140024800686E
:100B200000F00300704700000080014008B5034951
:100B3000084400900098006808BD0000148001403F
:100B400000F0BCBB054A002903D0D16B0143D1633F
:100B50007047D16B8143D163704700000080014032
:100B600030B5094B596847F6FF629143027D8468AE
:100B7000C568224344682C43224304680069224329
:100B800002430A435A6030BD0080014001480068BA
:100B9000704700008080014010B5084902688A60F3
:100BA000CA686FF30A02D0E901342343D0E9034055
:100BB000044323431343CB6010BD00000080014079
:100BC00004490A6822F003020A600A6802430A60C4
:100BD00070470000008001400148FFF769BC000039
:100BE0000020001070B58CB005460C461148FFF788
:100BF00045FC114E00213046FFF74CFC0F48019098
:100C0000029500200390A10804910590802106918F
:100C10008900079189000891099089000A910B9039
:100C200001A93046FFF756FC01213046FFF732FCA0
:100C30000CB070BD00F00010440402408080014000
:100C400070B58CB004460D461248FFF717FC124EE3
:100C500000213046FFF71EFC10480190029410203E
:100C60000390A80804900020059080210691890037
:100C7000079189000891099089000A910B9001A9B8
:100C80003046FFF727FC01213046FFF703FC0CB08C
:100C900070BD000000F0001044040240808001405C
:100CA00008B5012000909DF8000008BD2DE9F04135
:100CB000014600241E484068032805D038B10128A9
:100CC00005D0022803D031E02720BDE8F081B1F53E
:100CD000805F0ED04FF400670026164D4FF00108DC
:100CE000B94213D10120FFF759FE0446200002D07B
:100CF0001CE02720E9E785F814802E606E60AE6066
:100D0000EF602E610B48FFF72BFF0FE00020FFF78D
:100D100045FE0446200009D185F814802E606E60DF
:100D2000AE60EE602E610348FFF71AFF2046CCE765
:100D3000C0060020907100202DE9F04396494F68CD
:100D400080F856700989A0F85410DFF850C2DCF81A
:100D500000100A0E93090370C2F38303437002F07C
:100D6000030282700A0CC2700A0A02714171DCF837
:100D70000420110E0901C180C2F30741C38843EA70
:100D80001113C38001F00F010172C2F30721CB09D7
:100D90004372C1F380138372C1F34013C372C1F372
:100DA000001303730023437364460126D4F80880BC
:100DB000002F4FEA1864C8F30745C8F3072904D089
:100DC000012F02D0022F3AD04FE08907090D0161AF
:100DD000D1B2026942EA81010161016941EA9411DB
:100DE0000161C4F3C201017504F00701417569098D
:100DF0008175C5F38201C175A907490F017649467E
:100E0000027E42EAD11202760269521C047EA41CC0
:100E100006FA04F9A2FB094703FB09774FEAE975D3
:100E200002FB0575027A06FA02F70765A4FB07299B
:100E300005FB079504FB0354C0E9122415E0910655
:100E4000890A0161016941EA0421016101692943BB
:100E5000016149460269DC04521C44EA5234D2045E
:100E6000C0E912244FF4007202651C30C1F38012F5
:100E700000F8032C8906490E00F8021C08F0FF0157
:100E800010F8022C42EAD11200F8022C01F07F0186
:100E900000F8011CDCF80C20110ECC090470C1F321
:100EA00041144470C1F3820484708907090FC17032
:100EB000C2F30741C47844EA9114C470C1F34014EA
:100EC0000471437101F001018171C2F30721CC0962
:100ED000C471C1F380140472C1F340144472C1F3AD
:100EE00000148472C1F38104C47201F00301017320
:100EF000D1B2490841738673284A103211680C0E2A
:100F000004740C0C24024482C1F30724458A25434F
:100F100045820906416151680C0E456945EA044461
:100F20004461C1F30744456945EA04244461C1F3BF
:100F30000724456925434561017691680C0E447686
:100F40000C0C2406C461C1F30724C56945EA0444B6
:100F5000C461C9B2C46944EA0121C161D1680A0E01
:100F6000C4691443C461C1F3074290F8204044EAC5
:100F7000121480F820401207120D4284C1F3072298
:100F8000448C14434484C9B2490880F8241080F882
:100F900025601846BDE8F083C006002008710020D7
:100FA00008B500200090684600F024FA08B1FF2040
:100FB00008BD0098C0F3432008BD10B5FFF7F0FF4F
:100FC000042803D0FF2803D0012010BD002010BD4D
:100FD000022010BD10B5FFF759FBFFF77DFD00F0B3
:100FE000B5F8002822D100F025F800281ED11048BD
:100FF000012101750021016041608160C1600161D2
:10100000FFF7AEFD0A485838FFF796FE30B908489A
:101010005838B0F85400000400F0D6F9002805D183
:10102000BDE810404FF40060FFF740BE10BD000067
:10103000907100202DE9F84F002401200090FFF767
:101040006DFDE0B1DFF8FC8000263F4DD8F80400CC
:101050004FF0C0094FF4806704282AD02E60022088
:101060006860C5F80890EE602F612846FFF794FD90
:10107000FFF766F90446200003D0BDE8F88F25206D
:10108000FBE70020FFF752FDDFF8BCA0AAF1900AB1
:10109000CAF800000420FFF749FDCAF80400082040
:1010A000FFF744FDCAF808000C20FFF73FFDCAF81F
:1010B0000C00D8F8040028B1012803D0062801D07C
:1010C000022811D12E60032068604020A860EE60E5
:1010D0002F611D48FFF760FD69460320FFF76CF99B
:1010E0000446200000D0C8E7D8F80400042826D021
:1010F000BDF80000C8F808000004286009206860F6
:10110000C5F80890EE602F610F48FFF745FDFFF727
:1011100017F90446200000D0AFE70020FFF706FDD6
:10112000094DA03D28600420FFF700FD68600820FD
:10113000FFF7FCFCA8600C20FFF7F8FCE8602046F5
:101140009BE70000C0060020A87100202DE9F05F99
:101150004FF0000B0024A24600275548B22101752C
:101160004FF00008C0F80080C0F80480C0F8088084
:10117000C0F80C80C0F81080FFF7F2FC0320FFF7E6
:101180001FFD0120FFF786FC494E1836C6F8008087
:10119000C6F80480C6F80880C6F80C804FF4806951
:1011A000C6F810903046FFF7F7FCFFF7A5F80028C7
:1011B0005FD14FF4D5703060082070604025B56075
:1011C000C6F80C80C6F810903046FFF7E5FCFFF734
:1011D00033F918B3C6F8008037207060B560C6F8E0
:1011E0000C80C6F810903046FFF7D6FC3720FFF78A
:1011F00099F8C6F80080372070604020B060C6F8CB
:101200000C80C6F810902A481830FFF7C5FC37202C
:10121000FFF788F80546280034D046E0254801212C
:1012200041608F07E5E7C6F80080372070604025F1
:10123000B560C6F80C80C6F810901D481830FFF74E
:10124000ABFC3720FFF76EF8002812D11A4838435C
:10125000306029207060B560C6F80C80C6F8109028
:1012600013481830FFF798FCFFF78CF80546280064
:1012700001D0BDE8F09F0020FFF758FC83464FEAFD
:10128000DB7A641CBAF1000F03D14FF6FF70844281
:10129000C9D34FF6FF70844201D31B20E9E71BF04E
:1012A000804F02D00348022141602846E1E7000058
:1012B00090710020C00600200000108070B50E4C18
:1012C000E168002001290DD020704FF48075284678
:1012D000FFF7DAFB00212846FFF734FC01202061EC
:1012E000207870BD0549886040F24C40C8600C20F1
:1012F000FFF718F82070E8E7C006002000800140E2
:101300002DE9FF5F1446DDE90E6A1D462B480027D4
:10131000077007614FF00108C0F80C802849CF62C0
:101320004068022803D10602640A44EAC554254DE8
:101330002E60102068604FF04009C5F80890EF60FB
:101340004FF4806BC5F810B02846FFF725FC10203D
:10135000FEF7E8FF002821D1411E05F114000160CD
:101360000AFB06FAC0F804A0902181600221C16046
:101370000761C0F81480FFF799FB2C6012206860A9
:10138000C5F80890EF60C5F810B02846FFF704FCD8
:101390001220FEF7C7FF04461CB1204604B0BDE88A
:1013A000F09F01210802FFF7CDFB0120FFF778FB3A
:1013B00051460098FFF716FC2046EFE7C0060020D4
:1013C00000800140A871002010B50949086007207D
:1013D0004860402088600020C8604FF48060086149
:1013E0000846FFF7D9FBBDE810400720FEF79ABF7B
:1013F000A871002070B505460748084C0089000414
:10140000A06040F24D40E0600D20FEF78BFF002809
:1014100001D16169296070BDC006002000800140D3
:1014200070B50025074CFFF7D7FB20B9206910B92C
:1014300020780028F7D0207808B1207870BD2846A1
:1014400070BD0000C006002070B50025094CFFF7F4
:10145000C3FB20B9206910B920780028F7D0207884
:1014600008B1207870BD40F2FF50FFF707FB284617
:1014700070BD0000C00600202DE9FF5F82B0144659
:10148000DDE910671D464FF00008CDF80480DFF855
:10149000009189F80080C9F810800120C9F80C007B
:1014A0003C48C0F82C80D9F80400022803D1060279
:1014B000640A44EAC554384D2E60102068604FF02D
:1014C000400AC5F808A0C5F80C804FF4806BC5F839
:1014D00010B02846FFF760FB1020FEF723FF00281E
:1014E00052D1B9F808000004286037206860C5F8B8
:1014F00008A0C5F80C80C5F810B02846FFF74CFBD3
:101500003720FEF70FFF00283ED12F6017206860BC
:10151000C5F808A0C5F80C80C5F810B02846FFF73C
:101520003BFB1720FEF7FEFE00282DD12C60192072
:101530006860C5F808A0C5F80C80C5F810B028464A
:10154000FFF72AFB1920FEF7EDFE00281CD105F15C
:101550001402401E10607743576090209060C2F8DC
:101560000C80C2F81080012050611046FFF79EFAEF
:1015700001210802FFF7E6FA0120FFF791FA394648
:101580000298FFF75DFB404606B0BDE8F09F000003
:10159000C006002000800140A8710020002904D06E
:1015A000018841F0400101807047018821F040012D
:1015B000018070472DE9F04104460F461546114E53
:1015C00001213046FFF7E4F8032000F079F9C7F372
:1015D000074000F075F9C7F3072000F071F9F8B281
:1015E00000F06EF904E0FF2000F06AF904F8010B46
:1015F0006D1EADB2F7D23046BDE8F0410121FFF7D4
:10160000C9B80000001001402DE9F04706460D461C
:10161000E8B24142CFB2140A02F0FF094FF48078D9
:10162000002812D0E8B24042C0B205EB000A34B341
:10163000D01B80B2040A00F0FF093A462946304622
:1016400000F0AAF855463E4439E074B929463046C0
:10165000BDE8F04700F0A0B842462946304600F009
:101660009BF805F5807506F58076641EE4B2F3D22A
:101670004A4629463046BDE8F04700F08DB8B945E6
:101680000ED9A9EB0700C4B23A462946304600F00D
:1016900083F85146F0192246BDE8F04700F07CB8C7
:1016A00029463046BDE8F04700F076B84246294664
:1016B000304600F071F805F5807506F58076641EF9
:1016C000E4B2F3D2B9F1000F06D04A4629463046BB
:1016D000BDE8F04700F060B8BDE8F08770B586B0AF
:1016E00001210803FFF7F6F80121D420FFF7F2F8F3
:1016F0000124ADF8004003208DF8020010208DF881
:101700000300224D69462846FEF7E8FF2021ADF888
:10171000001018218DF803101D4E69463046FEF763
:10172000DDFF4021ADF8001069463046FEF7D6FFD8
:101730008021ADF8001069463046FEF7CFFF012149
:101740002846FFF727F80020ADF804004FF4827117
:10175000ADF80610ADF808000221ADF80A10ADF89A
:101760000C400902ADF80E10ADF81000ADF81200F3
:101770000720ADF81400074C01A9204600F01DF920
:1017800001212046FFF70AFF06B070BD001001409E
:1017900000080140003001402DE9F04105460F46A8
:1017A000144600F0DBF8154E01213046FEF7F0FF3D
:1017B000022000F085F8C7F3074000F081F8C7F376
:1017C000072000F07DF8F8B200F07AF8B0158442F6
:1017D00008D904460AA000F013FC03E0287800F0C2
:1017E0006FF86D1C641EA4B2F8D201213046FEF7DA
:1017F000D1FFBDE8F04100F09BB8000000100140AF
:101800003C3C2D464C4153482D4552524F522D3EA3
:101810003E205350495F464C4153485F50616765D5
:10182000577269746520746F6F206C6172676521EF
:101830000A0000002DE9F0410E4F01213846FEF765
:10184000A7FF9F2000F03CF8FF2000F039F8044685
:10185000FF2000F035F80546FF2000F031F806467D
:1018600001213846FEF796FF200440EA0520304368
:10187000BDE8F0810010014070B5044600F06EF83C
:1018800000F056F80D4D01212846FEF781FF20207B
:1018900000F016F8C4F3074000F012F8C4F3072074
:1018A00000F00EF8E0B200F00BF801212846FEF738
:1018B00071FFBDE8704000F03BB80000001001402F
:1018C0002DE9F0410746184C4FF480556560174EDE
:1018D00009E06068411E616005D2002000F08AF8CE
:1018E000C0B2BDE8F0810221304600F05BF800286C
:1018F000EFD03946304600F05EF8656008E0616878
:101900004A1E626004D2012000F074F8C0B2E8E719
:101910000121304600F046F80028F0D0304600F0B3
:1019200048F8C0B2DDE70000B806002000300140F2
:1019300010B5094C01212046FEF72AFF0520FFF7CC
:10194000BFFFFF20FFF7BCFFC007FAD12046BDE86C
:1019500010400121FEF71EBF0010014010B5074CDA
:1019600001212046FEF714FF0620FFF7A9FF2046BD
:10197000BDE810400121FEF70DBF0000001001403E
:1019800010B5074C01212046FEF702FFAB20FFF700
:1019900097FF2046BDE810400121FEF7FBBE000086
:1019A000001001400246002012890A4200D00120A6
:1019B0007047808970478181704730B5028802F492
:1019C00041530A884C88CD8822438C882C4322437B
:1019D0000C8922434C8922438C892243CC8922439F
:1019E0001A430280828B22F400628283098A018278
:1019F00030BD000010B5014602A000F001FB002040
:101A000010BD00003C3C2D464C4153482D455252E0
:101A10004F522D3E3E2053504920B5C8B4FDB3ACC3
:101A2000CAB1216572726F72436F6465203D2025D3
:101A3000640A0000704700F001B800000CB50022F5
:101A4000019200922748016841F4803101604FF40F
:101A5000A063016801F4003100910199491C0191D2
:101A6000009911B901999942F3D10168890302D50E
:101A70000121009100E000920099012930D11A491A
:101A80000A6842F010020A600A6822F003020A6043
:101A90000A6842F002020A604168416041684160A0
:101AA000416841F480614160416821F47C114160EA
:101AB000416841F4E8114160016841F080710160C2
:101AC00001688901FCD5416821F00301416041684A
:101AD00041F0020141604168C1F381010229FAD15C
:101AE0000CBD0000001002400020024010B50F485D
:101AF000016841F00101016041680D4A11404160F7
:101B000001680C4A11400160016821F480210160E4
:101B1000416821F4FE0141604FF41F018160FFF72D
:101B20008AFF05494FF00060086010BD00100240B8
:101B30000000FFF8FFFFF6FE08ED00E070B586B08C
:101B400001210803FEF7C6FE0121D420FEF7C2FEE4
:101B50000124ADF8004003208DF8020010208DF81C
:101B60000300274D69462846FEF7B8FD2021ADF851
:101B7000001018218DF80310224E69463046FEF7FA
:101B8000ADFD4021ADF8001069463046FEF7A6FDD8
:101B90008021ADF8001069463046FEF79FFD012117
:101BA0002846FEF7F7FD0020ADF804004FF48271DF
:101BB000ADF80610ADF808000221ADF80A10ADF836
:101BC0000C400902ADF80E10ADF81000ADF812008F
:101BD0000720ADF814000C4C01A92046FFF7EDFEDC
:101BE00001212046FFF7DAFC4FF4FA70401E000492
:101BF000000CFBD1FFF7C4FE00F032F806B070BD58
:101C0000001001400008014000300140002810D0C1
:101C1000012804D0022806D003280AD107E04FF497
:101C2000C060086005E04FF48050088001E00120AA
:101C3000086000207047000010B5084B1B78DB07D8
:101C400001D0032010BD01F500714FF6FF7303EAC8
:101C500002320903FFF7AEFC002010BDB8060020D9
:101C600010B5FFF7E7FD074A0749904204D108780D
:101C700020F00100087010BD087840F001000870E5
:101C800010BD00001740EF00B806002070B50546F3
:101C900001F500710C032046FFF7EEFD4FF4805272
:101CA00021462846FFF7B0FC002070BD0120704798
:101CB00008B54FF4C060FEF7F3FD31208DF8000049
:101CC00001208DF8010000218DF802108DF803002D
:101CD0006846FEF7B3FDFFF77DF90C4960B148781F
:101CE00040F001004870FFF7E1FF50B1487820F064
:101CF00004004870487808BD487820F0010048701A
:101D0000F1E7487840F004004870F3E7C00600208F
:101D100010B50C46002814D001280BD0022802D0A0
:101D200003280ED103E04FF40070208009E0012069
:101D3000206006E004490023483107C9FEF714FA81
:101D40002060002010BD0000387100202DE9F04116
:101D5000ADF5007D06460C4615461D484078C00787
:101D600004D003200DF5007DBDE8F081B0074FF4ED
:101D7000007815D000270EE02146641C0122684639
:101D8000FFF7E4FF07464FB9424669463046FEF783
:101D90001CFA06F500766D1E681CEDD13846E1E7A9
:101DA000CDE90085E30D62023046FFF7A9FA08B1DC
:101DB0000120D7E7FFF734FB0446FFF7FEF80128C0
:101DC000FBD0022800D00CB10120CBE70020C9E7EE
:101DD000C006002000B5FEF763FF012801D00120F6
:101DE00000BDFFF763FF064928B1487820F00400E2
:101DF0004870487800BD487840F004004870F8E723
:101E0000C0060020F0B5ADF5017D06460C4615462E
:101E1000FFF74CFF38B1FEF743FF012805D0032040
:101E20000DF5017DF0BD0220FAE7B0074FF4007711
:101E300014D000200EE03A46314601A8FEF7C5F95D
:101E40002146641C012201A8FFF7DCFF0028E7D12E
:101E500006F500766D1E691CEDD1E1E7CDE9007550
:101E6000E30D62023046FFF707FB08B10120D7E718
:101E7000FFF7EAFA0446FFF7A0F80128FBD0022892
:101E800000D00CB10120CBE70020C9E7002904D025
:101E9000818941F4005181817047818921F4005189
:101EA0008181704710B586B001210420FEF712FD34
:101EB00001218803FEF70EFD4FF40070ADF8140009
:101EC00018208DF8170003208DF81600144C05A972
:101ED0002046FEF703FC2115ADF8141004218DF8FF
:101EE000171005A92046FEF7F9FB4FF4E1300190E9
:101EF0000020ADF80800ADF80A00ADF80C00ADF810
:101F000010000C20ADF80E00064C01A9204600F090
:101F100013F801212046FFF7B9FF06B010BD0000FD
:101F200000080140003801400246002012880A42A1
:101F300000D001207047000030B585B004460D4642
:101F4000208A4CF6FF710840E98801432182A0896C
:101F50004EF6F3110840A9882A8911436A89024381
:101F60001143A181A08A4FF6FF410840A98901438E
:101F7000A1826846FEF7BCFC1D48844201D103984B
:101F800000E00298A189090408D500EBC00101EB2B
:101F9000001029684900B0FBF1F007E000EBC00138
:101FA00001EB001029688900B0FBF1F06422B0FB5E
:101FB000F2F109010B096FF018056B4300EB830088
:101FC000A3891D044FF0320307D503EBC000B0FB1B
:101FD000F2F000F00700084306E003EB0010B0FB4E
:101FE000F2F000F00F000843208105B030BD000082
:101FF00000380140C1F3080181807047FEE700000E
:102000000FB4054B10B503A9044A029800F018F864
:1020100010BC5DF814FB0000193E0008E00600202B
:1020200002E008C8121F08C1002AFAD170477047A1
:10203000002001E001C1121F002AFBD170470000FF
:102040002DE9FF4F8DB00F460546002606E02528F6
:102050000BD0DDE90F1290476D1C761C2878002804
:10206000F5D111B03046BDE8F08F0024A246A1465C
:102070000122EC4900E0044315F8013F203B02FA3D
:1020800003F00842F7D128782A2810D06FF02F02E9
:102090002878A0F13001092914D80AEB8A0102EB53
:1020A000410144F0020400EB010A6D1CF0E701CF8E
:1020B0005FEA000A03D544F40054CAF1000A44F070
:1020C00002046D1C28782E2817D115F8010F44F052
:1020D00004042A280ED06FF02F022878A0F13001D6
:1020E00009290AD809EB890102EB410100EB01093A
:1020F0006D1CF2E757F8049B6D1C28786C280FD0F4
:1021000006DC4C2817D068280DD06A2814D104E0CA
:10211000742810D07A280FD10DE044F400140AE09E
:1021200044F4801401E044F440146978814202D1FF
:1021300004F580146D1C6D1C2A786E2A1FD00CDCEF
:10214000632A31D004DC002A8BD0582A11D1A3E0B5
:10215000642A68D0692A0CD165E0732A2ED004DC89
:102160006F2A73D0702A04D19BE0752A6FD0782A29
:102170006ED01046DDE90F129047761C50E1C4F393
:102180000250022806D0032809D0042801CF09D024
:10219000066045E101CFF117C0E9006140E101CFE0
:1021A00006803DE106703BE117F8040B8DF8000056
:1021B00000208DF80100EB46012003E057F804BB36
:1021C0004FF0FF3061074FF0000102D40DE008F13D
:1021D0000101884649450FDA8045F8DB1BF80810F5
:1021E0000029F4D108E008F1010188468142FADBB8
:1021F0001BF808100029F6D1DDE90F23AAEB08002F
:102200008146214600F036F9304400EB080604E030
:10221000DDE90F121BF8010B9047B8F10108F7D266
:1022200021464846F7E00A21C4F302534FF0000B61
:102230000891022B04D001CFC117032B09D00AE06B
:10224000FF1D27F00707F7E8020108E032E01FE072
:1022500020E000B2C117042B01D140B2C117031E08
:1022600071F1000307DA4FF0000CD0EB0C006CEBBF
:1022700001012D2302E0230504D52B238DF8243002
:10228000012303E0E30701D02023F7E7984658E055
:102290000A2110E010210EE010204FF0000B0890F2
:1022A0000CE010214FF0000B44F004044FF008093B
:1022B000089103E008214FF0000B0891C4F302538A
:1022C000022B04D001CF0021032B06D006E0FF1D16
:1022D00027F00707F7E8020103E080B2042B00D1E2
:1022E000C0B24FF0000823072BD5702A07D0DDF8C5
:1022F00020C08CF0100C5CEA0B0C05D00EE04023E3
:102300008DF82430012308E050EA010306D0302381
:102310008DF824308DF8252002239846DDF820C062
:102320008CF0080C5CEA0B0C0BD150EA010301D1D4
:10233000630706D530238DF824304FF00108A9F14A
:102340000109582A04D038A20B9208AA0A920BE07D
:102350003AA2F9E75B46089AFDF706FF0B9B9B5CE8
:102360000A9A521E0A92137050EA0102F2D10A9898
:10237000ADEB000000F1200B600702D524F480349F
:1023800001E04FF00109D94502DDA9EB0B0000E0A7
:10239000002000EB0B0141440890AAEB010AE00386
:1023A00006D4DDE90F232146504600F063F80644C9
:1023B0004FF0000908E009A911F80900DDE90F1242
:1023C000904709F10109761CC145F4DBE0030CD507
:1023D000DDE90F232146504600F04CF8064404E0A6
:1023E000DDE90F1230209047761C0899481E0890AE
:1023F0000029F5DC08E00A980A990078491C0A913E
:10240000DDE90F129047761CBBF10001ABF1010B27
:10241000F1DC21465046DDE90F2300F019F80644AF
:102420006D1C1BE609280100303132333435363754
:102430003839616263646566000000003031323310
:1024400034353637383941424344454600000000B0
:102450002DE9F041044600251E461746880404D4A1
:1024600005E039462020B0476D1C641EF9D528468A
:10247000BDE8F0812DE9F041044600251E46904656
:10248000C80301D5302700E02027880404D505E0E3
:1024900041463846B0476D1C641EF9D52846BDE854
:1024A000F08100002DE9F34FADF5017D8246002655
:1024B0004FF48079DDE006EB46080AEBC804207D86
:1024C00001287DD071A0FFF79BFD7EA0A168FFF7DA
:1024D00097FD864820210160012101608349022087
:1024E000091D086001228248616801F025F805464F
:1024F000280010D07FA0FFF783FD7C482021001D1D
:1025000001607A49012008600220086028460DF524
:10251000037DBDE8F08F80A0FFF772FDD4F80CB00A
:10252000002704E00BEB0730FFF7A6F97F1C2069BA
:10253000B7EB103FF6D382A0FFF762FDE76820E01B
:1025400080AB4A4640A96A4801F0A6F80546280033
:102550000DD085A0FFF754FD64492020091D0860B7
:10256000624801210160022101602846CFE74A4606
:10257000394640A8FFF710F907F58077809848455D
:1025800001D1002DDCD081A0FFF73AFDE7680021E2
:10259000574800F0F0FE3EE080AB4A4640A9544860
:1025A00001F07AF8054628000FD06FA0FFF728FD4C
:1025B0004E482021001D01604C490120086000E0C8
:1025C00055E0022008602846A1E78098394682B28B
:1025D0006846FEF7EFFF8098074400230DF5807CE6
:1025E000694614E01CF8032011F803B05A450DD0D9
:1025F00071A0FFF705FD3D482021001D016001216C
:10260000001F016002210160022080E75B1C834201
:10261000E8D3484501D1002DBED070A0FFF7F0FCF3
:1026200075A06168FFF7ECFC18A0FFF7E9FC2F48E4
:1026300020210160012101602C490220091D086050
:102640007648002100EBC8000546016041608160CA
:10265000C1605AF8381028460F22FDF7C8FDE0681F
:1026600028612348C0686861214800F075FE761C27
:10267000F6B282988642FFF41EAF69A0FFF7C0FC55
:1026800075A0FFF7BDFC002041E700003C3C2D4257
:1026900055524E2D494E464F2D3E3E202D2D2D2D6F
:1026A0002D2D2D2D2D2D2D2D2D2D2D2D2D2D2D2D5A
:1026B0002D2D2D2D2D2D2D2D2D2D2D2D2D2D2D2D4A
:1026C0002D0A00003C3C2D4255524E2D494E464F9E
:1026D0002D3E3E20707265706172696E6720746F66
:1026E000206275726E3A2025730A0000100C0140BA
:1026F0009C3D00203C3C2D4255524E2D4552524FA0
:10270000522D3E3E206F70656E2066696C652066B6
:1027100061696C6564210A003C3C2D4255524E2D86
:10272000494E464F2D3E3E2065726173696E6720AB
:10273000464C4153482061726561202E2E2E0A00BE
:102740003C3C2D4255524E2D494E464F2D3E3E208B
:1027500077726974696E6720746F20464C415348E4
:10276000202E2E2E0A0000003C3C2D4255524E2DAC
:102770004552524F522D3E3E20726561642066697B
:102780006C65206661696C6564210A003C3C2D42E1
:1027900055524E2D494E464F2D3E3E20777269745C
:1027A0006520646F6E652C20766572696679696E46
:1027B00067202E2E2E0A00003C3C2D4255524E2DF5
:1027C0004552524F522D3E3E207665726966792001
:1027D0006661696C6564210A000000003C3C2D4282
:1027E00055524E2D494E464F2D3E3E20766572691C
:1027F0006679204F4B210A003C3C2D4255524E2D0C
:10280000494E464F2D3E3E2066696C653A20257341
:10281000206275726E65640A00000000142B0020AF
:102820003C3C2D4255524E2D494E464F2D3E3E20AA
:102830002A2A2A2A2A2A2A2A2A2A2A2A2A2A2A2AF8
:102840002A2A2A2A2A2A2A2A2A2A2A2A2A2A2A2AE8
:102850002A2A2A2A0A0000003C3C2D4255524E2DBD
:10286000494E464F2D3E3E20616C6C2066696C657A
:1028700073206275726E6564204F4B2120286E6F45
:102880006E2D66696C6573797374656D2070617205
:1028900074290A002DE9F047ADF52C7D3BA0FFF728
:1028A000AFFB48A0FFF7ACFB0020FEF7E5FF482296
:1028B00000215148FEF7A8FE4FF416742246482125
:1028C0004E48FEF7A1FE482200219AA8FEF772FEAC
:1028D0002246482104A8FEF76DFE482246499AA8E0
:1028E000FDF791FC28B92246444904A8FDF78BFC6A
:1028F00080B143A0FFF784FB4C49202008604B487F
:102900000121001F01600221016002200DF52C7DD4
:10291000BDE8F08746A0FFF773FB00260DF1100914
:102920004FF0180A0DF51A7806EB460008EBC005C3
:102930002969B1FBFAF101EB410109EBC1076969B2
:10294000D5E90223890A0291CDE9002358F8302005
:10295000314642486B68FFF753FB00240BE004EB61
:10296000440007EBC0022146506900903CA0136967
:10297000FFF746FB641CA868A042F0D8761C032E23
:10298000D2D344A0FFF73CFB0020BFE73C3C2D42E4
:1029900055524E2D494E464F2D3E3E202D2D2D2D6C
:1029A0002D2D2D2D2D2D2D2D2D2D2D2D2D2D2D2D57
:1029B0002D2D2D2D2D2D2D2D2D2D2D2D2D2D2D2D47
:1029C0002D0A00003C3C2D4255524E2D494E464F9B
:1029D0002D3E3E20777269746520696E64657820AB
:1029E0007461626C6520746F203078303030303024
:1029F00030202E2E2E0A000018040020142B002058
:102A00003C3C2D4255524E2D4552524F522D3E3E8A
:102A100020696E646578207461626C6520766572E9
:102A2000696679204641494C45440A00140C01402E
:102A30003C3C2D4255524E2D494E464F2D3E3E2098
:102A40002D2D2D2D2D20696E646578207461626CAA
:102A500065202D2D2D2D2D0A00000000F0FD02080F
:102A60003C3C2D4255524E2D494E464F2D3E3E2068
:102A700020205B25645D20252D3136732061646440
:102A8000723D3078253036582073697A653D25646B
:102A90000A0000003C3C2D4255524E2D494E464FF7
:102AA0002D3E3E20696E646578207461626C6520FD
:102AB000766572696679204F4B0A000010B50446AE
:102AC00000202071401EE062204601F019FD08B18F
:102AD000032010BD94F82E0294F82F1240EA012032
:102AE000A0F52A41553901D0022010BD14F8660F17
:102AF000E178627840EA0161A078663C000440EA2F
:102B0000022001430B48B0EB012F01D1002010BD82
:102B100014F8821FE278637841EA0261A278120415
:102B200042EA03221143B0EB012F01D1002010BD76
:102B3000012010BD0046415400E0401C02780AB15B
:102B40008A42FAD100787047891E4269921E8A42F1
:102B500001D800207047826A807801FB002070470E
:102B60002DE9F05F81460E46B07EF17E50EA0120ED
:102B700002D00020BDE8F09F307800F03F00401EFA
:102B800000EB800101EBC00401200025DFF860A00C
:102B900006F101081AF80510725C11F8081042EAF3
:102BA000012788B1FF2C0BD2384600F0ADFE8346DA
:102BB0002046641C39F8100000F0A6FE834501D0C1
:102BC0000020D7E7384605E0A7F57F41FF3901D05F
:102BD0000020CFE76D1C0D2DDCD33178490605D5DB
:102BE00020B139F8140008B10020C3E70120C1E783
:102BF000204800082DE9F04106460F46002F08D076
:102C00003946304601F066F9022809D20120BDE8B4
:102C1000F081F56815B17069A84207D8012505E073
:102C2000411CF4D071698142F1D83D462C46641CA8
:102C30007069A04204D80224022D01D20020E6E7E8
:102C40002146304601F046F938B1411CDFD0012859
:102C5000DDD0AC42EBD10020D9E76FF070422146C5
:102C6000304601F067FC28B927B122463946304684
:102C700001F060FC20B101280DD001242046C6E7F8
:102C8000F4603069411CF9D0401E3061707940F029
:102C900001007071F2E74FF0FF34EFE72DE9F35FC9
:102CA0008846D8F8006000E0761C30782F28FBD0EA
:102CB0005C28F9D00098D0F81CA0002425462846AE
:102CC0006D1C305C202808D32F2806D05C2804D047
:102CD000FF2C09D30620BDE8FC9F7119C8F800102D
:102CE00020282AD2042532E0C0B2A0F181017D293A
:102CF0000ED829466D1C715C01EB002080B2A1F159
:102D000040023F2A04D380397F2901D30620E2E71D
:102D1000012100F0CDFD074647B1802F08D239468A
:102D200065A0FFF709FF18B10620D4E70620D2E717
:102D30002046641C2AF81070C1E7002507E0601ED9
:102D40003AF81000202801D02E2802D1641E002C51
:102D5000F5D154B100202AF8140000980B2220214C
:102D6000806901F0C5FB002702E00620B3E77F1C65
:102D70003AF817002028FAD02E28F8D01FB145F0D5
:102D8000030500E0641E24B1601E3AF810002E28EE
:102D9000F8D14FF00008C1464FF0080B38467F1CB1
:102DA0003AF8106006B3202E03D02E2E04D1A7428D
:102DB00002D045F00305F1E7D84501D2A74219D169
:102DC000BBF10B0F0ED0A74201D045F003050BD885
:102DD00027464FF008084FF00B0B4FEA89604FEA87
:102DE0001069DBE745F00305009880690178E52963
:102DF0003DD03EE0802E08D3304600F085FD002116
:102E000000F056FD064645F00205FF2E0FD9ABF146
:102E10000100804503D345F00305D846BEE700987E
:102E2000310A8269404608F10108115418E026B1C0
:102E3000314624A0FFF780FE18B15F2645F0030558
:102E40000EE0A6F14100192802D849F0020907E076
:102E5000A6F16100192803D849F00109203EB6B255
:102E600000988169404608F101080E5496E7052153
:102E70000170BBF1080F03D14FEA89604FEA106976
:102E8000C9F38100032803D06FEA0901890701D142
:102E900045F00205A90709D409F00301012901D170
:102EA00045F01005012801D145F00805009880691A
:102EB000C57200200FE70000222A3A3C3E3F7C7F8B
:102EC000000000002B2C3B3D5B5D000001B581B094
:102ED000002342F2107107E0009302E00098401CCA
:102EE000009000988842F9D30198421E0192F3D2D3
:102EF0000CBD70B505460E460021284600F08AF943
:102F000088B900242969286801F0FAFA58B9696972
:102F10000978E5290BD051B100240121284600F0A1
:102F20006DF80028EED0042800D1072070BD641C85
:102F3000B442F8D0F1E72DE9F047044600212046DD
:102F400000F068F9002857D1FF26B1464FF6FF7A06
:102F5000A4F820A02169206801F0D2FA80465FEA37
:102F6000080048D167693D7865B1F87A00F03F0004
:102F7000E52D03D0010708D50F2806D0FF26A4F8B9
:102F800020A030E04FF0040835E00F2801D0CEB18A
:102F90001DE0E06938B3690606D597F80D9025F075
:102FA00040052E46E1882184B54208D1797B494508
:102FB00005D13946FFF7D4FD08B1761E00E0FF26A3
:102FC000F6B210E0384601F086FB484513D0A169FF
:102FD000C87AC00704D10B22384601F073FA50B109
:102FE000FF26A4F820A00021204600F007F8804624
:102FF0005FEA0800AED04046BDE8F0872DE9F04119
:1030000004460E46E7887F1C3804000C0AD021696C
:1030100041B1206842895209B7FBF2F302FB1372F7
:103020001AB166E00420BDE8F081491C2161E16825
:1030300071B1428983785209B7FBF2F25B1E1A42E2
:1030400057D100F047FF0546012D06D80220EAE7D8
:103050000089B8424DD80420E5E7681C14D02068E8
:103060004169A9423FD88EB1E168FFF7C3FD05462B
:1030700028000DD0012D0DD0681C0DD0206801F066
:1030800091FB58B10120CEE70120CCE70420CAE72C
:103090000720C8E70220C6E70120C4E72068002116
:1030A0004289303001F024FA29462068FFF74CFDB0
:1030B0002168C86200264FF001080CE080F8048007
:1030C000206801F06FFB08B10120ACE72068C16AFD
:1030D000491CC162761C20688178B142EED8216813
:1030E000C96A891BC162E56029462068FFF72CFD8B
:1030F0002061E780206841894909B7FBF1F201FBB3
:103100001271302202EB41110844606100208AE70D
:103110002DE9FE430446A769E6690C223946684654
:1031200001F0DDF99DF80B00C00718D00020F872FF
:10313000E06101252B4632466946384600F07EFEA6
:103140002046FFF7F8FE10B96D1C642DF2D3642DF4
:103150000BD004280AD19DF80B00F872E6619DF8A7
:103160000B0080070ED5002003E00720BDE8FE839A
:10317000401C36F810100029FAD119300D21B0FB8F
:10318000F1F600E0012631462046FFF7B2FE054683
:1031900001271DBB761E21D0E088811B204600F050
:1031A00039F80546280019D1A06901F094FA804643
:1031B0002169206801F0A4F905467DB9F2B24346C1
:1031C0006169E06900F06AFD20680771002120460E
:1031D000FFF714FF05460DB9761EE9D1C5B921697F
:1031E000206801F08DF90546280011D12022002128
:1031F000606901F07DF9D4E905010B2201F06FF956
:10320000A0696169C07A00F018000873206807712E
:103210002846ABE770B504460D46E580A368012B50
:1032200003D020684169994201D8022070BD1BB9C2
:103230000178032900D1436A23B1418980784E097E
:10324000464318E00189A94201D8022070BD406AB6
:1032500017E01946206800F03DFE0346581C07D0D1
:10326000022B03D320684069984203D8022070BD26
:10327000012070BDAD1BB542EBD219462068FFF7A7
:1032800063FCE36098B121684A895209B5FBF2F208
:103290001044206148894009B5FBF0F200FB125050
:1032A000302202EB401008446061002070BD022013
:1032B00070BD01460120002903D0012903D1FEF78A
:1032C0003DBCFEF7F5BC704730B40C4603461146D2
:1032D0000420002B05D0012B07D1204630BCFEF77F
:1032E00095BC204630BCFEF713BD30BC704730B4EF
:1032F0000D46114604461A460420002C05D0012C28
:1033000007D1284630BCFEF797BC284630BCFEF7F4
:103310001DBD30BC704701460120002903D00129A2
:1033200003D1FEF79DBCFEF755BD704730B40D4686
:10333000114604461A460420002A06D044B1012C46
:1033400004D1284630BCFEF7A1BC042030BC704735
:10335000284630BCFEF756BD10B50446204600F0A6
:1033600059FA002806D1204601F046FA002801D17A
:103370000021216010BD2DE9F04704460D4620468E
:1033800001F03AFA80465FEA080001D0BDE8F08714
:10339000E0790028FAD1E068A84203D2A179890730
:1033A00000D40546A1680027A7604FF00109002D51
:1033B00061D020688678428956434FF0020A69B18D
:1033C0006A1E491EB2FBF6F2B1FBF6F39A4205D330
:1033D000701E8143A1606D1A61690BE0216941B9DA
:1033E0000021FFF707FC0146012905D0481C07D042
:1033F0002161616159BB3EE084F807A00220C5E766
:1034000084F807900120C1E7A079800706D52068DD
:10341000FFF7F0FB014629B935461AE0206800F0B5
:1034200059FD0146481C09D0012903D9206840698B
:10343000884207D884F807A00220A7E784F80790FD
:103440000120A3E76161A0683044A060AD1BB542D4
:10345000DAD8A0682844A06020684289B5FBF2F35E
:1034600002FB13523AB1FFF76FFBF0B121684989B3
:10347000B5FBF1F10F182068A1684289B1FBF2F3A6
:1034800002FB131131B3A269BA4223D0A17904F12E
:103490002405490611D5407801232946FFF746FF48
:1034A00038B184F80790012070E784F807A0022063
:1034B0006CE7A07920F04000A071206801233A4613
:1034C00040782946FFF713FF18B184F807900120D0
:1034D0005CE7A761D4E90201884204D9E060A079E1
:1034E00040F02000A071404650E7000017B581B0C1
:1034F000144602980090684600F070FD002802DA39
:103500000B2004B010BD0B4B53F82010002201B16A
:103510000A700199002900D00A7043F8201001D0E8
:10352000012C01D00020ECE7002202A901A800F044
:1035300011FAE6E7D80600202DE9F747ADF50D7D35
:103540000646002E0FD04FF00008C6F8008002F0AB
:103550001F0727F001028EA984A800F0FBF9054699
:10356000280005D096E009200DF5107DBDE8F08714
:1035700081A88A9001A88B9084A88E9900F016FCEF
:103580000546899C0DB904B9062517F01C0F51D0CA
:103590004DB1042D03D184A8FFF7BAFD054647F0CD
:1035A0000807899C08E0E07A10F0110F01D0072588
:1035B00002E0780700D50825DDBB380745D500F0C7
:1035C00009FDA073010AE173020C2274030E6374F7
:1035D000A075E1752276637684F80B8084F81C80F0
:1035E00084F81D8084F81E8084F81F80214684980A
:1035F00000F02EFD81460021204601F064F88499F8
:1036000001200871B9F1000F1FD08498D0F82CA0C8
:103610004946849801F024F80546280015D184987D
:10362000A9F10109C0F80C905146849800F068FF98
:1036300005460AE04DB9E07AC10601D5042504E04B
:10364000B90702D5C00700D007253DB9380701D515
:1036500047F020078498C06AF0613462D5B9B77129
:1036600086F807802146849800F0F2FC3061207FC4
:10367000E17F627F40EA0160A17F090441EA022103
:103680000843F060C6F80880C6F818808498306057
:10369000C088B080284667E72DE9F84F0446884681
:1036A000164699460020C9F80000204601F0A4F80B
:1036B000002812D1E07900280FD1A079C0070BD0E3
:1036C000D4E90210401A864200D9064604F12400CB
:1036D0004FF0010A009098E00720BDE8F88F2268BB
:1036E000A0685189B0FBF1F301FB1303002B6DD1EE
:1036F000B0FBF1F193785B1E1940CDB275B940B1C2
:103700001046616900F0E6FB022804D20220E07155
:10371000E3E72069F8E7411C1CD06061616920681B
:10372000FFF712FAD0B100EB050B20684189B6FB18
:10373000F1F74FB38178EA198A4200D94F1B4078DC
:103740003B465A464146FFF7D2FD50B184F807A0E8
:103750000120C2E784F807A00120BEE70220E07143
:10376000BBE7A07940060BD5A069A0EB0B00B842DF
:1037700006D221684A89009900FB028000F0AFFE62
:10378000206845897D4336E0A2695A451CD0A1795D
:1037900049060DD5407801230099FFF7C7FD18B100
:1037A00084F807A0012098E7A07920F04000A071DC
:1037B000206801235A4640780099FFF798FD18B118
:1037C00084F807A0012088E7C4F818B02068A16831
:1037D0004089B1FBF0F200FB1212851AB54200D904
:1037E0003546B1FBF0F200FB1210011924312A46D4
:1037F000404600F074FEA844A0682844A060D9F8B0
:1038000000002844C9F80000761B002E7FF467AF43
:10381000002062E770B50446204600F0EDFF002866
:103820000ED1A1798A060BD548060ED52068012352
:1038300004F124014078A269FFF778FD08B1012066
:1038400070BDA07920F04000A071E169206800F00F
:1038500057FE0028F4D1256AE87A40F02000E8728B
:10386000207B2877A089000A6877E068000CA87799
:10387000E068000EE8772846216900F024FF00F098
:10388000A9FBA875010AE975010C2976000E687676
:103890000020A874E874A07920F02000A0712168AD
:1038A000012008712068BDE8704000F021BF0000D1
:1038B00070B580281FD345F2205409B1104D00E0A7
:1038C000104D00231022E11A01EBD17103EB6101CD
:1038D00035F82160864207D001D20B4600E00C4645
:1038E000A2F10102002AEED132B14FF0010000EB4B
:1038F000410035F8100070BD4FF0000070BD0000B1
:10390000DE9C01085A48000870B5802806D2A0F154
:103910006101192901D8203880B270BD0C23002222
:103920004FF4F774094DA11A02EB510135F81160FB
:10393000864205D001D20A4600E00C465B1EF2D159
:10394000002BEAD0024830F8110070BD62F1020885
:103950003EF502082DE9FF47804608461646002737
:10396000C8F8007000F03AFB0546002D03DA0B2082
:1039700004B0BDE8F087C64850F825408CB1C8F8BF
:103980000040207820B16078FFF7C5FCC1070AD05D
:103990002770E8B26070FFF78CFCC1070AD00320E3
:1039A000E6E70C20E4E71EB1400701D50A20DFE777
:1039B0000020DDE71EB1400701D50A20D8E7607876
:1039C00004F10A020221FFF77FFC30B96089B0F5EB
:1039D000007F02D3B0F5805F01D90120C8E7002540
:1039E00029462046FFF76AF8012826D10021E8463B
:1039F00004EB011000F5F770027952B1027AC37A34
:103A000042EA0362837A407A1B0443EA00200243BD
:103A100000E0002248F82120491C0429E8D30026B0
:103A200058F8265025B129462046FFF747F800E010
:103A3000022010B1761C042EF2D3032802D018B154
:103A40000D2095E7012093E794F83B0094F83C1093
:103A5000B4F80AC040EA0120604501D00D2087E794
:103A600094F8460094F8471040EA012058B914F839
:103A7000540FE178627840EA0160A1780904543C6F
:103A800041EA02210843A06194F840A084F803A011
:103A9000BAF1010F04D0BAF1020F01D00D2067E78F
:103AA0000AFB00FA94F83D20A27012B1511E0A429E
:103AB00001D00D205CE794F8411094F8423041EABF
:103AC000032323814FEA5C16B3FBF6F106FB1131A9
:103AD00009B10D204CE794F8431094F8448041EA72
:103AE000082179B994F8501094F8538094F85190C3
:103AF00041EA086194F852804FEA084848EA0928E8
:103B000041EA080194F83E8094F83F9048EA092978
:103B1000B9F1000F08D0B3FBF6F609EB0A08B04480
:103B2000414503D20D2023E70D2021E7A1EB080139
:103B3000B1FBF2F141B3012640F6F672914200D397
:103B400002264FF6F672914200D30326891C61616A
:103B5000E56105EB09022262A844C4F82880032E1F
:103B600014D03BB352446262022E25D001F0010210
:103B700001EB410102EB5101491E6144B1FBFCF133
:103B800081421BD90D20F3E60D20F1E60BB10D208B
:103B9000EEE694F85C2094F85F3094F85D8042EA99
:103BA000036294F85E301B0443EA08231A436262FE
:103BB0008900E1E70D20DBE64900DDE74FF0FF304B
:103BC0002061E06080206071032E57D194F860007E
:103BD00094F8611040EA012001284FD1691C204669
:103BE00000F08EFCF0BB677194F82E0294F82F124F
:103BF00040EA0120A0F52A4155393FD114F8300F91
:103C0000E178627840EA0160A178303C090441EA39
:103C1000022108431F49884230D194F8140294F8D5
:103C2000171294F8152240EA016094F8161209045C
:103C300041EA02210843184988421FD194F818022A
:103C400094F81B1294F8192240EA016094F81A12B1
:103C5000090441EA02210843206194F81C0294F807
:103C60001F1200E00AE040EA016094F81E1294F886
:103C70001D22090441EA02210843E060267004493C
:103C8000091F0888401C0880E080002070E60000C2
:103C9000D806002052526141727241612DE9F04311
:103CA0004B730F23CB7200230B738B76CB76531E93
:103CB00003EB830404EBC30500231C46114E01F102
:103CC000010C4FF6FF77BB4203D02B466D1C30F83A
:103CD000133016F8048001F8083016F804904FEA03
:103CE000132809F80C8003B93B46641C0D2CEAD359
:103CF000BB4202D030F8150008B942F040020A7009
:103D0000BDE8F083204800082DE9F041ADF52C7D99
:103D1000482200219AA8FDF74DFC4FF41672482165
:103D200004A8FDF747FC1F499A98884202D19B9846
:103D3000012804D000200DF52C7DBDE8F081002481
:103D4000194E04AF04EB440507EBC50056F83510D7
:103D500080461022FCF764FA08B10020EBE706EB7E
:103D6000C500D8F81010C068814201D00020E2E7F9
:103D700010226846FDF71EFC012100206A46135CF4
:103D8000FF2B01D0002103E0401CC0B21028F6D365
:103D900009B10020CFE7641CE4B2192CD2D3012072
:103DA000C9E70000DDCCBBAA6004002073B504465F
:103DB000019908782F2801D05C2801D1491C019174
:103DC0000025A56001980078202805D20021204612
:103DD000FFF720FA65617CBD01A92046FEF75EFF72
:103DE0000028F8D12046FFF7A6F8A169C97A28B1C2
:103DF0000428F0D14907EED405207CBD4907FCD446
:103E00006169C87AC00601D405207CBD206800F035
:103E10001FF9A060E0E7000070B50446064DE1B26E
:103E20002846FEF7E7F880212846FEF77DF80028AF
:103E3000F9D0204670BD0000003801407CB5054631
:103E400016461C460B22284600F049FB052C11D9CA
:103E50001F480CE0B61C002322460C4662F35F04A8
:103E60004908E20300D544405B1C102BF4D3318891
:103E70000029EFD107226B4604F00F0130313929B8
:103E800001D9C91DC9B21046521E19542409002C6B
:103E9000F2D17E2098540021541E06E081387D28FE
:103EA00002D8A14206D0491C491C914202D2685C4A
:103EB0002028F3D1082A03D21046521C185C00E0D7
:103EC00020200C46491C28550829F3D37CBD00004E
:103ED000211001002DE9F04104460D46022D02D3C8
:103EE0006069A84201D8012609E04FF0FF3620782A
:103EF000012807D0022835D003284BD001263046B0
:103F0000BDE8F08105EB55076089216AB7FBF0F049
:103F10000144204600F0F4FA0028F0D160893946C7
:103F2000B1FBF0F200FB121121447F1C91F83080AC
:103F3000B7FBF0F0216A0144204600F0E1FA0028C6
:103F4000DDD16089B7FBF0F100FB1170204490F8DF
:103F5000300048EA0020E90701D00609CFE7C0F3A6
:103F60000B06CCE76089216A4008B5FBF0F00144FC
:103F7000204600F0C5FA0028C1D161896800B0FB75
:103F8000F1F201FB1200204430300178407841EA20
:103F90000026B4E76089216A8008B5FBF0F001448F
:103FA000204600F0ADFA0028A9D16189A800B0FB35
:103FB000F1F201FB1200204430300178C27841EA6E
:103FC000026182784078120442EA0020014321F025
:103FD000704694E7004870470000FC4210B5044664
:103FE0004FF0FF302368002B0BD0194600E0491C2E
:103FF0000A78202A01D33A2AF9D10A783A2A01D03C
:10400000002010BD13F8012B303A0A2AF9D28B4256
:10401000F7D1022AF5D21046491C216010BD10B517
:1040200000F00AF830B10520FEF750FFBDE810405F
:1040300000F002B8002010BD10B54FF40051034845
:10404000FCF79FFB012800D0002010BD00100140AC
:104050000246887ECB7E40EA03201278032A05D1EF
:104060000A7D497D42EA012140EA01407047000093
:10407000FDF718FFFCF7B0FB48A0FDF7C1FF54A007
:10408000FDF7BEFF5EA0FDF7BBFFFDF727FBFDF7C9
:10409000D1FB8146494666A0FDF7B2FF6A4E6948EA
:1040A00020250127341F4FF00208814507D067A063
:1040B000FDF7A6FF35602760C4F80080FEE76FA01B
:1040C000FDF79EFFFCF76AFBFFF7A9FF18B170A090
:1040D000FDF796FF1AE0FFF717FE002816D077A02D
:1040E000FDF78EFF85A0FDF78BFF92A0FDF788FFFF
:1040F00025603760C4F800800520FEF7E7FEFFF773
:104100008EFF0028F8D097A0FDF77AFF9CA0FDF75E
:1041100077FF0122A1A1A248FFF7E8F9014651B1BA
:10412000A0A0FDF76DFFA8A0FDF76AFF356027602E
:10413000C4F80080FEE7AEA0FDF762FF1921B2A02F
:10414000FDF75EFF1921B748FEF7ACF9014639B11A
:10415000B5A0FDF755FF35602760C4F80080FEE785
:10416000B9A0FDF74DFFFEF795FB014639B1BCA0A4
:10417000FDF746FF35602760C4F80080FEE707A022
:10418000FDF73EFFC3A0FDF73BFF1DA0FDF738FF85
:1041900025603760C4F80080FEE700000D0A3D3D51
:1041A0003D3D3D3D3D3D3D3D3D3D3D3D3D3D3D3D3F
:1041B0003D3D3D3D3D3D3D3D3D3D3D3D3D3D3D3D2F
:1041C0003D3D3D3D3D3D3D3D3D3D0D0A0000000076
:1041D000202020573235513634204275726E2054DB
:1041E0006F6F6C20285344202D3E20466C6173680D
:1041F00029202020202020202020200D0A0000003F
:104200003D3D3D3D3D3D3D3D3D3D3D3D3D3D3D3DDE
:104210003D3D3D3D3D3D3D3D3D3D3D3D3D3D3D3DCE
:104220003D3D3D3D3D3D3D3D3D3D3D3D0D0A00009B
:104230005732355136342049443A203078253036CB
:10424000580D0A001740EF00140C01404552524F20
:10425000523A20573235513634206E6F7420666FD3
:10426000756E6420286578706563742030784546E3
:104270003430313729210D0A000000005732355102
:104280003634204F4B212028384D42290D0A00009A
:104290004B455932207072657373656420617420D8
:1042A000737461727475703A20666F7263696E67B9
:1042B0002072652D6275726E2E0D0A000D0A466C15
:1042C00061736820616C7265616479206275726ED9
:1042D00065642028696E6465782076616C69642C59
:1042E00020616C6C20736C6F74732068617665203C
:1042F00064617461292E0D0A00000000507265731C
:1043000073204B45593220285043313329206E6F9A
:104310007720746F2072652D6275726E2066726FE1
:104320006D2074686520534420636172642C0D0A0B
:10433000000000006F7220726573657420746F2036
:104340006B656570207468652063757272656E7444
:1043500020666C61736820636F6E74656E742E0DD9
:104360000A0000004B455932207072657373656412
:104370003A2072652D6275726E696E672E0D0A00A5
:104380000D0A4D6F756E74696E672053442063612A
:104390007264202E2E2E0D0A00000000303A00001C
:1043A000E40600204552524F523A205344206D6F8C
:1043B000756E74206661696C65642120636F646545
:1043C0003D25640D0A000000436865636B3A205385
:1043D0004420696E7365727465643F2046415433AE
:1043E0003220666F726D61747465643F0D0A00005F
:1043F00053442063617264206D6F756E7465642030
:104400004F4B210D0A0000000D0A4275726E696E55
:10441000672025642066696C6573202E2E2E0D0A98
:1044200000000000600400204552524F523A2062C2
:1044300075726E206661696C65642120636F6465C6
:104440003D25640D0A000000416C6C2066696C65B6
:1044500073206275726E6564204F4B210D0A000057
:104460004552524F523A20696E64657820746162F9
:104470006C652077726974652F766572696679203C
:104480006661696C65642120636F64653D25640D18
:104490000A0000002020204255524E20434F4D502C
:1044A0004C45544521202020202020202020202061
:1044B00020202020202020202020202020202020FC
:1044C0000D0A000010B50023521E541C05D010F830
:1044D000013B11F8014B1B1BF6D0184610BD03E041
:1044E00011F8013B00F8013B521E531CF8D17047F4
:1044F000C9B201E000F8011B521E531CFAD17047EB
:1045000070B504460E460025E06AB04210D0204641
:1045100000F048F905465DB960780123324604F1A0
:104520003001FEF7E4FE10B14FF0FF360125E662E0
:10453000284670BD2DE9F04704460D461646022D6B
:1045400002D36069A84202D80220BDE8F087207833
:1045500006F0FF094FF00108012805D0022842D0DB
:1045600003285AD00220F0E705EB55076089216A3D
:10457000B7FBF0F001442046FFF7C2FF0028E4D16A
:10458000384661897F1CB0FBF1F201FB1200204428
:104590003030E90703D0017869F31F1100E031469C
:1045A000017084F804806089216AB7FBF0F001444F
:1045B0002046FFF7A5FF0028C7D16189B7FBF1F2BC
:1045C00001FB127121443031EA0702D0C6F3071211
:1045D00005E00A78C6F3032302F0F0021A430A70DA
:1045E00084F80480B1E76089216A4008B5FBF0F0E7
:1045F00001442046FFF784FF0028A6D162896900A4
:10460000B1FBF2F302FB1311214481F83090320A1E
:1046100081F8312084F8048097E76089216A800856
:10462000B5FBF0F001442046FFF76AFF00288CD16B
:104630006289A900B1FBF2F302FB1311214430316E
:104640004FF07043CA7803EA026232430A70130AD9
:104650004B70130C8B70120ECA7084F8048074E7D0
:104660002DE9F04104460F46022F02D36069B8429B
:1046700001D8022624E000261FE039462046FFF735
:1046800029FC0546E5B1012D09D0681C09D000229E
:1046900039462046FFF74EFF06468EB903E0022654
:1046A0000EE001260CE02069411C05D0401C206171
:1046B000607940F0010060712F466069B842DCD833
:1046C0003046BDE8F08181760A0AC2760A0C02758E
:1046D000090E41757047014600200B22430803EB89
:1046E000C01011F8013B1844C0B2521EF6D17047F9
:1046F00070B50446204600F055F8054628004FD115
:104700002078032845D16079012842D104F1300096
:10471000628900210646FFF7EBFE552084F82E0241
:10472000AA2084F82F02522084F8300084F8310047
:10473000612084F83200412184F83310722284F819
:10474000142284F8152284F8161284F817022069BE
:1047500084F81802010A84F81912010C84F81A125C
:10476000000E84F81B02E06884F81C02010A84F839
:104770001D12010C84F81E12000E84F81F02E2695B
:10478000521CE262607801233146FEF7CFFD002023
:104790006071002260781146FEF796FD00B1012598
:1047A000284670BD2DE9F0410446002720790028F5
:1047B0001FD0E66A04F13001607801233246884652
:1047C000FEF7B4FD08B1012713E000202071206A34
:1047D000A169301A88420CD2E57808E0A069064445
:1047E0006078012332464146FEF7A0FD6D1E022D82
:1047F000F4D23846BDE8F08110B500280CD001682D
:1048000051B10A7842B1CA888088824204D148787E
:10481000FEF781FDC00701D0092010BD002010BDAA
:1048200001030507090E10121416181C1E000004BF
:104830000002000180004000200010000800040079
:10484000020000000080004000200010000800402E
:1048500000200010000800040002A400E8A1A70046
:10486000ECA1A800A7A1B000E3A1B100C0A1B700CE
:10487000A4A1D700C1A1E000A4A8E100A2A8E8007B
:10488000A8A8E900A6A8EA00BAA8EC00ACA8ED0028
:10489000AAA8F200B0A8F300AEA8F700C2A1F900E0
:1048A000B4A8FA00B2A8FC00B9A80101A1A813019C
:1048B000A5A81B01A7A82B01A9A84401BDA84801D0
:1048C000BEA84D01ADA86B01B1A8CE01A3A8D0012F
:1048D000ABA8D201AFA8D401B3A8D601B5A8D8011E
:1048E000B6A8DA01B7A8DC01B8A85102BBA86102DA
:1048F000C0A8C702A6A1C902A5A1CA0240A8CB02AE
:1049000041A8D90242A89103A1A69203A2A69303AB
:10491000A3A69403A4A69503A5A69603A6A697030B
:10492000A7A69803A8A69903A9A69A03AAA69B03DB
:10493000ABA69C03ACA69D03ADA69E03AEA69F03AB
:10494000AFA6A003B0A6A103B1A6A303B2A6A40379
:10495000B3A6A503B4A6A603B5A6A703B6A6A80347
:10496000B7A6A903B8A6B103C1A6B203C2A6B303F2
:10497000C3A6B403C4A6B503C5A6B603C6A6B703AB
:10498000C7A6B803C8A6B903C9A6BA03CAA6BB037B
:10499000CBA6BC03CCA6BD03CDA6BE03CEA6BF034B
:1049A000CFA6C003D0A6C103D1A6C303D2A6C40319
:1049B000D3A6C503D4A6C603D5A6C703D6A6C803E7
:1049C000D7A6C903D8A60104A7A71004A1A711045C
:1049D000A2A71204A3A71304A4A71404A5A715044F
:1049E000A6A71604A8A71704A9A71804AAA719041C
:1049F000ABA71A04ACA71B04ADA71C04AEA71D04EB
:104A0000AFA71E04B0A71F04B1A72004B2A72104BA
:104A1000B3A72204B4A72304B5A72404B6A725048A
:104A2000B7A72604B8A72704B9A72804BAA729045A
:104A3000BBA72A04BCA72B04BDA72C04BEA72D042A
:104A4000BFA72E04C0A72F04C1A73004D1A73104EB
:104A5000D2A73204D3A73304D4A73404D5A735048E
:104A6000D6A73604D8A73704D9A73804DAA739045B
:104A7000DBA73A04DCA73B04DDA73C04DEA73D042A
:104A8000DFA73E04E0A73F04E1A74004E2A74104FA
:104A9000E3A74204E4A74304E5A74404E6A74504CA
:104AA000E7A74604E8A74704E9A74804EAA749049A
:104AB000EBA74A04ECA74B04EDA74C04EEA74D046A
:104AC000EFA74E04F0A74F04F1A75104D7A7102079
:104AD0005CA9132043A81420AAA1152044A81620DD
:104AE000ACA11820AEA11920AFA11C20B0A11D209F
:104AF000B1A1252045A82620ADA13020EBA1322070
:104B0000E4A13320E5A1352046A83B20F9A1AC2043
:104B100080000321E6A1052147A8092148A8162104
:104B2000EDA1212159A96021F1A26121F2A2622106
:104B3000F3A26321F4A26421F5A26521F6A2662105
:104B4000F7A26721F8A26821F9A26921FAA26A21D5
:104B5000FBA26B21FCA27021A1A27121A2A2722151
:104B6000A3A27321A4A27421A5A27521A6A27621D5
:104B7000A7A27721A8A27821A9A27921AAA290218F
:104B8000FBA19121FCA19221FAA19321FDA19621E3
:104B900049A897214AA898214BA899214CA80822F6
:104BA000CAA10F22C7A11122C6A115224DA81A22FF
:104BB000CCA11D22D8A11E22DEA11F224EA8202298
:104BC000CFA123224FA82522CEA12722C4A128228B
:104BD000C5A12922C9A12A22C8A12B22D2A12E22F5
:104BE000D3A13422E0A13522DFA13622C3A137228E
:104BF000CBA13D22D7A14822D6A14C22D5A1522239
:104C000050A86022D9A16122D4A16422DCA165222E
:104C1000DDA1662251A8672252A86E22DAA16F2276
:104C2000DBA1952292A89922D1A1A522CDA1BF22D4
:104C300053A81223D0A16024D9A26124DAA262244D
:104C4000DBA26324DCA26424DDA26524DEA2662448
:104C5000DFA26724E0A26824E1A26924E2A274240E
:104C6000C5A27524C6A27624C7A27724C8A2782438
:104C7000C9A27924CAA27A24CBA27B24CCA27C2408
:104C8000CDA27D24CEA27E24CFA27F24D0A28024D8
:104C9000D1A28124D2A28224D3A28324D4A28424A8
:104CA000D5A28524D6A28624D7A28724D8A2882478
:104CB000B1A28924B2A28A24B3A28B24B4A28C24E8
:104CC000B5A28D24B6A28E24B7A28F24B8A29024B8
:104CD000B9A29124BAA29224BBA29324BCA2942488
:104CE000BDA29524BEA29624BFA29724C0A2982458
:104CF000C1A29924C2A29A24C3A29B24C4A20025C3
:104D0000A4A90125A5A90225A6A90325A7A90425CB
:104D1000A8A90525A9A90625AAA90725ABA908259B
:104D2000ACA90925ADA90A25AEA90B25AFA90C256B
:104D3000B0A90D25B1A90E25B2A90F25B3A910253B
:104D4000B4A91125B5A91225B6A91325B7A914250B
:104D5000B8A91525B9A91625BAA91725BBA91825DB
:104D6000BCA91925BDA91A25BEA91B25BFA91C25AB
:104D7000C0A91D25C1A91E25C2A91F25C3A920257B
:104D8000C4A92125C5A92225C6A92325C7A924254B
:104D9000C8A92525C9A92625CAA92725CBA928251B
:104DA000CCA92925CDA92A25CEA92B25CFA92C25EB
:104DB000D0A92D25D1A92E25D2A92F25D3A93025BB
:104DC000D4A93125D5A93225D6A93325D7A934258B
:104DD000D8A93525D9A93625DAA93725DBA938255B
:104DE000DCA93925DDA93A25DEA93B25DFA93C252B
:104DF000E0A93D25E1A93E25E2A93F25E3A94025FB
:104E0000E4A94125E5A94225E6A94325E7A94425CA
:104E1000E8A94525E9A94625EAA94725EBA948259A
:104E2000ECA94925EDA94A25EEA94B25EFA9502566
:104E300054A8512555A8522556A8532557A854259E
:104E400058A8552559A856255AA857255BA858256E
:104E50005CA859255DA85A255EA85B255FA85C253E
:104E600060A85D2561A85E2562A85F2563A860250E
:104E700064A8612565A8622566A8632567A86425DE
:104E800068A8652569A866256AA867256BA86825AE
:104E90006CA869256DA86A256EA86B256FA86C257E
:104EA00070A86D2571A86E2572A86F2573A870254E
:104EB00074A8712575A8722576A8732577A8812511
:104EC00078A8822579A883257AA884257BA88525BA
:104ED0007CA886257DA887257EA8882580A8892589
:104EE00081A88A2582A88B2583A88C2584A88D2556
:104EF00085A88E2586A88F2587A8932588A8942520
:104F000089A895258AA8A025F6A1A125F5A1B225F5
:104F1000F8A1B325F7A1BC258BA8BD258CA8C62573
:104F2000F4A1C725F3A1CB25F0A1CE25F2A1CF2571
:104F3000F1A1E2258DA8E3258EA8E4258FA8E5251B
:104F400090A80526EFA10626EEA1092691A84026E5
:104F5000E2A14226E1A10030A1A10130A2A10230CC
:104F6000A3A10330A8A10530A9A1063065A9073087
:104F700096A90830B4A10930B5A10A30B6A10B300A
:104F8000B7A10C30B8A10D30B9A10E30BAA10F30C5
:104F9000BBA11030BEA11130BFA1123093A81330B5
:104FA000FEA11430B2A11530B3A11630BCA1173048
:104FB000BDA11D3094A81E3095A8213040A92230F3
:104FC00041A9233042A9243043A9253044A92630E1
:104FD00045A9273046A9283047A9293048A941309A
:104FE000A1A44230A2A44330A3A44430A4A44530D9
:104FF000A5A44630A6A44730A7A44830A8A44930A9
:10500000A9A44A30AAA44B30ABA44C30ACA44D3078
:10501000ADA44E30AEA44F30AFA45030B0A4513048
:10502000B1A45230B2A45330B3A45430B4A4553018
:10503000B5A45630B6A45730B7A45830B8A45930E8
:10504000B9A45A30BAA45B30BBA45C30BCA45D30B8
:10505000BDA45E30BEA45F30BFA46030C0A4613088
:10506000C1A46230C2A46330C3A46430C4A4653058
:10507000C5A46630C6A46730C7A46830C8A4693028
:10508000C9A46A30CAA46B30CBA46C30CCA46D30F8
:10509000CDA46E30CEA46F30CFA47030D0A47130C8
:1050A000D1A47230D2A47330D3A47430D4A4753098
:1050B000D5A47630D6A47730D7A47830D8A4793068
:1050C000D9A47A30DAA47B30DBA47C30DCA47D3038
:1050D000DDA47E30DEA47F30DFA48030E0A4813008
:1050E000E1A48230E2A48330E3A48430E4A48530D8
:1050F000E5A48630E6A48730E7A48830E8A48930A8
:10510000E9A48A30EAA48B30EBA48C30ECA48D3077
:10511000EDA48E30EEA48F30EFA49030F0A4913047
:10512000F1A49230F2A49330F3A49B3061A99C3097
:1051300062A99D3066A99E3067A9A130A1A5A230C1
:10514000A2A5A330A3A5A430A4A5A530A5A5A630EB
:10515000A6A5A730A7A5A830A8A5A930A9A5AA30BB
:10516000AAA5AB30ABA5AC30ACA5AD30ADA5AE308B
:10517000AEA5AF30AFA5B030B0A5B130B1A5B2305B
:10518000B2A5B330B3A5B430B4A5B530B5A5B6302B
:10519000B6A5B730B7A5B830B8A5B930B9A5BA30FB
:1051A000BAA5BB30BBA5BC30BCA5BD30BDA5BE30CB
:1051B000BEA5BF30BFA5C030C0A5C130C1A5C2309B
:1051C000C2A5C330C3A5C430C4A5C530C5A5C6306B
:1051D000C6A5C730C7A5C830C8A5C930C9A5CA303B
:1051E000CAA5CB30CBA5CC30CCA5CD30CDA5CE300B
:1051F000CEA5CF30CFA5D030D0A5D130D1A5D230DB
:10520000D2A5D330D3A5D430D4A5D530D5A5D630AA
:10521000D6A5D730D7A5D830D8A5D930D9A5DA307A
:10522000DAA5DB30DBA5DC30DCA5DD30DDA5DE304A
:10523000DEA5DF30DFA5E030E0A5E130E1A5E2301A
:10524000E2A5E330E3A5E430E4A5E530E5A5E630EA
:10525000E6A5E730E7A5E830E8A5E930E9A5EA30BA
:10526000EAA5EB30EBA5EC30ECA5ED30EDA5EE308A
:10527000EEA5EF30EFA5F030F0A5F130F1A5F2305A
:10528000F2A5F330F3A5F430F4A5F530F5A5F6302A
:10529000F6A5FC3060A9FD3063A9FE3064A9053194
:1052A000C5A80631C6A80731C7A80831C8A8093162
:1052B000C9A80A31CAA80B31CBA80C31CCA80D3132
:1052C000CDA80E31CEA80F31CFA81031D0A8113102
:1052D000D1A81231D2A81331D3A81431D4A81531D2
:1052E000D5A81631D6A81731D7A81831D8A81931A2
:1052F000D9A81A31DAA81B31DBA81C31DCA81D3172
:10530000DDA81E31DEA81F31DFA82031E0A8213141
:10531000E1A82231E2A82331E3A82431E4A8253111
:10532000E5A82631E6A82731E7A82831E8A82931E1
:10533000E9A82032E5A22132E6A22232E7A22332F6
:10534000E8A22432E9A22532EAA22632EBA22732D1
:10535000ECA22832EDA22932EEA231325AA9A332B0
:1053600049A98E334AA98F334BA99C334CA99D334D
:105370004DA99E334EA9A1334FA9C43350A9CE33B2
:1053800051A9D13352A9D23353A9D53354A9004ED0
:10539000BBD2014EA1B6024E4081034EDFC6044E81
:1053A0004181054E4281064E4381074EF2CD084EA3
:1053B000C9D5094EFDC80A4ECFC90B4EC2CF0C4EFF
:1053C000A2D80D4EBBB20E4EEBD30F4E4481104E01
:1053D000A4D8114EF3B3124E4581134EA8D7144EE4
:1053E000D2C7154EA7D8164EC0CA174E4681184EC2
:1053F000F0C7194EFBB11A4EB5D21B4ED4B41C4E99
:10540000ABB61D4EBFCB1E4EA9D81F4E4781204EB6
:105410004881214E4981224EAAB6234E4A81244E0C
:10542000BDC1254ECFD1264E4B81274EA5C9284E52
:10543000ADD8294E4C812A4EF6B82B4EBED12C4EFB
:10544000DCE32D4ED0D62E4E4D812F4E4E81304E68
:10545000E1B7314E4F81324EAEB4334E5081344EAF
:10546000D9C1354E5181364EBCD8374E5281384E57
:10547000E8CD394EA4B53A4EAACE3B4EF7D63C4EB7
:1054800053813D4EF6C03E4ED9BE3F4EAFD8404E42
:105490005481414E5581424E5681434ECBC4444EB9
:1054A0005781454EC3BE464E5881474EB1D8484EEF
:1054B000B4C3494EE5D24A4E59814B4EAED64C4EFE
:1054C000DACE4D4EA7D54E4EF5BA4F4EA6B7504E3A
:1054D000D6C0514E5A81524EB9C6534ED2C5544EC3
:1054E000C7C7554E5B81564ED4B9574E5C81584E56
:1054F000CBB3594ED2D25A4E5D815B4E5E815C4E2B
:10550000BFD85D4EC5BE5E4EF2C65F4EB2D2604E93
:10551000B0CF614EE7CF624E5F81634E6081644ED3
:105520006181654E6281664EE9CA674E6381684E4D
:105530006481694EC0D86A4E65816B4E66816C4E3F
:1055400067816D4E68816E4E69816F4E6A81704EC3
:10555000F2C2714ED2C2724E6B81734EE9C8744E64
:105560006C81754E6D81764E6E81774E6F81784E6F
:105570007081794E71817A4E72817B4E73817C4E3F
:1055800074817D4E75817E4EACC77F4E7681804E94
:105590007781814E7881824E7981834E7A81844EE3
:1055A0007B81854E7C81864ECBC1874E7D81884E26
:1055B000E8D3894EF9D58A4E7E818B4EC2CA8C4E75
:1055C000FEB68D4EA1D88E4EDAD38F4EF7BF904ED9
:1055D0008081914EC6D4924EA5BB934EC1D8944EB5
:1055E000E5CE954EAEBE964E8181974E8281984E05
:1055F000A8D8994E83819A4EC7D19B4EA9D09C4E74
:1056000084819D4E85819E4E86819F4EBDD8A04E41
:10561000EFD9A14EF6CDA24EBABFA34E8781A44EBC
:10562000BBBDA54EA5BAA64EE0D2A74EFAB2A84E73
:10563000E0BAA94EB6C4AA4E8881AB4EEDCFAC4EAF
:10564000A9BEAD4EA4CDAE4EC1C1AF4E8981B04E04
:105650008A81B14E8B81B24ED7C7B34EF1D9B44EC9
:105660008C81B54EF4D9B64E8D81B74E8E81B84E31
:105670008F81B94E9081BA4ECBC8BB4EE9D8BC4E93
:105680009181BD4E9281BE4E9381BF4EDAD2C04E03
:10569000B2CAC14ECAC8C24EECD8C34EEAD8C44E34
:1056A000C6D8C54EF6BDC64ECDC6C74EF0B3C84E21
:1056B0009481C94EEBD8CA4EF1BDCB4EE9BDCC4E5C
:1056C0009581CD4ED4C8CE4ED3B4CF4E9681D04E18
:1056D0009781D14ED8C2D24E9881D34ED6B2D44EF5
:1056E000D0D7D54ECBCAD64EFBCBD74ECCD5D84E85
:1056F000B6B8D94EC9CFDA4E9981DB4E9A81DC4ECD
:105700009B81DD4EDAD9DE4EF0D8DF4EAAC7E04EDF
:105710009C81E14EEED8E24E9D81E34EFAB4E44E18
:10572000EEC1E54ED4D2E64E9E81E74E9F81E84E13
:10573000EDD8E94EA081EA4EC7D2EB4EEFD8EC4E41
:10574000C7C3ED4EA181EE4EA281EF4EA381F04E74
:10575000F6D1F14EA481F24ED9D6F34EF2D8F44EE2
:10576000A581F54EF5D8F64EFEBCF74EDBBCF84EE3
:10577000A681F94EA781FA4EA881FB4ECEC8FC4EF9
:10578000A981FD4EDDB7FE4EAA81FF4EC2B7004F84
:10579000AB81014FF3C6024FAC81034FAD81044F83
:1057A000AE81054FAF81064FB081074FB181084FE1
:1057B000B281094FF8D80A4FC1D20B4FB3810C4FB9
:1057C000B4810D4FE9CE0E4FBFBC0F4FFCB7104F49
:1057D000A5B7114FDDD0124FB581134FB681144FCD
:1057E000B781154FB881164FB981174FDAD6184FC8
:1057F000C5D3194FEFBB1A4FE1BB1B4FF1D81C4F5C
:10580000BA811D4FBB811E4FA1C91F4FB0CE204F83
:10581000ABB4214FBC81224FF3D8234FBD81244F1D
:10582000CBC9254FF6D8264FD7C2274FF7D8284FD8
:10583000BE81294FBF812A4FB1CE2B4FF9D82C4FB3
:10584000C0812D4FC1812E4FC2812F4FAEB2304F3C
:10585000C0B9314FC381324FA3D9334FC481344FC4
:10586000E9B0354FC581364FE6C1374FC681384F55
:10587000ECC9394FC7813A4FC5CB3B4FC8813C4F2C
:10588000C6CB3D4FA4D93E4FC9813F4FCA81404F3F
:10589000CB81414FCC81424FCD81434FE8B5444F3E
:1058A000CE81454FCF81464FABB5474FD081484F52
:1058B000D181494FD2814A4FD3814B4FD4814C4F34
:1058C000D5814D4FBBCE4E4FCDB54F4FA1D7504F89
:1058D000F4D7514FD3D3524FD681534FE5CC544FC9
:1058E000D781554FCEBA564FD881574FA2D9584F6E
:1058F000DCD9594FE0D35A4FFDD85B4FF0B75C4F1E
:10590000F7D75D4FFED85E4FFAD85F4FA1D9604FF1
:10591000E3C4614FD981624FDA81634FB6D3644FDC
:10592000F4D8654FDDD9664FDB81674FFBD8684FF0
:10593000DC81694FE5C56A4FDD816B4FDE816C4FBD
:10594000D0C06D4FDF816E4FE0816F4FF0D1704F4F
:10595000DBB0714FE181724FE281734FD1BC744F64
:10596000A6D9754FE381764FA5D9774FE481784F5B
:10597000E581794FE6817A4FE7817B4FACD97C4F47
:10598000AED97D4FE8817E4FABD97F4FB9CA804FEA
:10599000E981814FEA81824FEB81834FA9D9844FFE
:1059A000B6D6854FEC81864FED81874FEE81884FCB
:1059B000DEB3894FA8D98A4FEF818B4FFDC08C4F42
:1059C000F0818D4FCCCA8E4FF1818F4FAAD9904F65
:1059D000F281914FA7D9924FF381934FF481944F65
:1059E000B0D9954FF581964FF681974FB1B6984F44
:1059F000F781994FF8819A4FF9819B4FA9B99C4F34
:105A0000FA819D4FC0D29E4FFB819F4FFC81A04FDA
:105A1000C0CFA14FFD81A24FFE81A34FC2C2A44FB0
:105A20004082A54FC4BDA64FECD5A74FE0B2A84F0A
:105A3000C8C7A94FEBBFAA4FADD9AB4F4182AC4FFE
:105A4000AFD9AD4F4282AE4FEACEAF4FEEBAB04FB4
:105A50004382B14F4482B24F4582B34F4682B44F26
:105A60004782B54FD6C7B64F4882B74F4982B84F25
:105A70004A82B94F4B82BA4F4C82BB4F4D82BC4FCA
:105A80004E82BD4F4F82BE4F5082BF4FE3B1C04FD9
:105A90005182C14F5282C24F5382C34FD9B4C44FB7
:105AA000EDB6C54FB4D9C64F5482C74F5582C84FC3
:105AB0005682C94F5782CA4FA1BFCB4F5882CC4F95
:105AC0005982CD4F5A82CE4FDED9CF4FCEC7D04F5D
:105AD000FEC0D14FB8D9D24F5B82D34F5C82D44F36
