:020000040800F2
:1000000090ED0020DD0100089F170008ED0C0008AE
:100010009B17000867050008C11E000800000000CB
:100020000000000000000000000000004501000882
:100030006B0500080000000089010008791C000819
:10004000F7010008F7010008F7010008F7010008B0
:10005000F7010008F7010008F7010008F7010008A0
:10006000F7010008F7010008F7010008F701000890
:10007000F7010008F7010008F7010008F701000880
:10008000F7010008F7010008F7010008F701000870
:10009000F7010008F7010008F7010008F701000860
:1000A000F7010008F7010008F7010008F701000850
:1000B000F7010008F7010008F7010008F701000840
:1000C000F7010008F7010008F7010008F701000830
:1000D000F7010008F7010008F7010008F701000820
:1000E000F7010008F7010008F7010008F701000810
:1000F000F7010008F7010008F7010008F701000800
:10010000F7010008F7010008F7010008F7010008EF
:10011000F7010008F7010008F7010008F7010008DF
:10012000F7010008F7010008F7010008F7010008CF
:10013000DFF80CD000F0DAF900480047DDA1020832
:1001400090ED0020224B19680868B0E8F00F80F3AA
:100150000988BFF36F8F4FF0000080F311884EF0D5
:100160000D0E70470000000006480068006880F32C
:10017000088862B661B6BFF34F8FBFF36F8F00DFA1
:1001800000BF00BF08ED00E0EFF30980BFF36F8F01
:100190000F4B1A6820E9F00F106008B54FF05000BF
:1001A00080F31188BFF34F8FBFF36F8F30F026F9C4
:1001B0004FF0000080F31188BDE808401968086816
:1001C000B0E8F00F80F30988BFF36F8F704700BF6E
:1001D00034000020EFF30580704700000648804798
:1001E00006480047FEE7FEE7FEE7FEE7FEE7FEE71C
:1001F000FEE7FEE7FEE7FEE7CD1C00083101000840
:100200002DE9F05F0546002092469B46884606464B
:10021000814640241BE0284641464746224600F0DE
:100220001DF953465A46C01A914110D3114618463B
:10023000224600F004F92D1A67EB01084F462246CA
:100240000120002100F0FBF817EB00094E41201EB1
:10025000A4F10104DFDC484631462A464346BDE8A6
:10026000F09F40EA01039B0703D009E008C9121F71
:1002700008C0042AFAD203E011F8013B00F8013B60
:10028000521EF9D27047D2B201E000F8012B491E8C
:10029000FBD270470022F6E710B513460A46044623
:1002A0001946FFF7F0FF204610BD421C10F8011B55
:1002B0000029FBD1801A704710B5002200E0521CC3
:1002C000835C8C5CA34201D1002BF8D1D8B2E1B29F
:1002D000401A10BD034611F8012B00F8012B002A2B
:1002E000F9D118467047F0B480EA0102D40F4200F9
:1002F000B2EB410F02D20246084611464A0042D0F4
:10030000C30DDDB2C1F3C752AD1A202D35DAC1F3EA
:10031000160141F4000204B15242C5F1200602FA6E
:1003200006F12A411044B3EBD05F23D0C4B1012DB4
:10033000A0EBC35009DCF0BC4FF0004202EAC3520C
:10034000DBB200F5000000F0A2B8400000F18070C0
:1003500000EBC350A0F1807040EAD170490009E081
:10036000490841EAC071A0EBC35000F50000400805
:1003700000EBC350F0BC00F081B86142012202EBF7
:100380004101001BF6E7F0BC704781F00041AAE78D
:1003900080F00040A7E780EA010210B502F00043B8
:1003A000400022D04A001FD0010E01EB1261C0F3C1
:1003B0005600C2F3560240F4000042F40002A0FBD3
:1003C000022000047F39140400D0401C50EA12407F
:1003D00001D44000491EC2B20C0604EBD010401CF0
:1003E0004008802A02D003E0002010BD20F0010068
:1003F000002900DA0020184310BDC10F80EAE07028
:100400000844CA079623002100F041B800F00042DA
:1004100020F00040C10DC0F3160040F400007F2919
:1004200001DA00207047962903DCC1F19601C8402B
:1004300001E096398840002AF4D040427047202AD3
:1004400004DB203A00FA02F1002070479140C2F12B
:10045000200320FA03F3194390407047202A04DB5D
:10046000203A21FA02F00021704721FA02F3D0402D
:10047000C2F1200291400843194670470029A8BFE5
:100480007047401C490008BF20F00100704710B4BD
:10049000B0FA80FC00FA0CF050EA010404BF10BC72
:1004A000704749B1CCF1200421FA04F411FA0CF19F
:1004B00018BF012121430843A3EB0C01CB1D4FEAD8
:1004C00000614FEA102042BF002010BC704700EBD3
:1004D000C35010440029A4BF10BC7047401C490001
:1004E00008BF20F0010010BC70470000064C074D0B
:1004F00006E0E06840F0010394E8070098471034F4
:10050000AC42F6D3FFF718FEA0530308C05303080C
:1005100070B58C1810F8015B15F0070301D110F8C5
:10052000013B2A1106D110F8012B03E010F8016BF2
:1005300001F8016B5B1EF9D12B0705D40023521E75
:100540000DD401F8013BFAE710F8013BCB1A921CDD
:1005500003E013F8015B01F8015B521EF9D5A142DB
:10056000D8D3002070BD00BFFEE7704751B18200B4
:10057000A2F1C042126842F001038200A2F1C0421F
:10058000136009E08200A2F1C0421268034B1A40D6
:100590008300A3F1C0431A6070470000FEFF0F0004
:1005A000D0E901121143C268114302691143426943
:1005B000114382691143C2691143026A1143426ABD
:1005C0001143826A1143C26A1143026B11430268EC
:1005D0009200A2F1C0421160816808290BD1016824
:1005E0008900A1F1C041096841F040020168890019
:1005F000A1F1C0410A60416B0968426B526841EA4F
:100600000211426B926841EA0221426B928941EAEF
:100610000241426B128A41EA0251426B127D41EA69
:100620000261426B926911430268521C9200A2F16E
:10063000C0421160C16AB1F5804F1BD1816B09685E
:10064000826B526841EA0211826B926841EA022190
:10065000826B128A41EA0251826B127D41EA026189
:10066000826B9269114302689200A2F1C042C2F803
:10067000041107E06FF0704201688900A1F1C041E8
:10068000C1F80421704700002DE9F04FC1B00546C4
:100690000E464FF000094FF4807A1022294601A837
:1006A00001F01EF929461EA001F060FEC84609E0CF
:1006B00001A810F808101EA001F058FE08F1010072
:1006C0001FFA80F8B8F1100FF2DB1BA001F04EFE0C
:1006D000002419E0301B504501D9504601E0301B81
:1006E00080B2834629195A4601A801F0F9F800277B
:1006F00007E001A8C05DFF2801D009F10109781CBD
:1007000087B25F45F5DB5444B442E3D34B462A46F7
:1007100031460AA001F02AFE41B0BDE8F08F00008A
:1007200064756D70203078253036583A200000000E
:1007300025303258200000000D0A000020206E6F86
:100740006E2D3078464620627974657320696E207C
:10075000256420627974652077696E646F77204024
:100760003078253036583A2025640D0A0000000004
:100770002DE9F04107460D4616461448007810B999
:100780000020BDE8F08100241CE004EB4401104A85
:1007900002EBC1003946FFF78FFD88B935B104EB94
:1007A00044000B4901EBC0000069286036B104EB3E
:1007B0004400074901EBC000406930600120E0E7D8
:1007C000601CC4B2192CE0DB0020DAE73000002006
:1007D000BC230020FEB500278CA001F0C7FD00F06F
:1007E000D5F9002193A001F0C1FD002452E004EBF3
:1007F00044009A4901EBC00000691821B0FBF1F0F8
:1008000000EB4000964901EBC00604EB440093491D
:1008100001EBC0004069800A04EB44018F4A02EBFF
:10082000C101C96804EB44028C4B03EBC20292681D
:10083000CDE90021029004EB4400194601EBC00011
:10084000436804EB440051F83020214685A001F0B4
:100850008DFD002514E005EB450006EBC000406966
:10086000009005EB450006EBC000036905EB450071
:1008700006EBC00229468BA001F078FD681CC5B2CA
:1008800004EB4400754901EBC0008068A842E2D83F
:10089000601CC4B2032CAADB8BA001F067FD00240E
:1008A00053E004EB44006D4951F8300004EB44017F
:1008B0008E4A52F83110884240D104EB4400674917
:1008C00001EBC000406804EB440102EBC101496840
:1008D000884233D104EB4400604901EBC0008068DA
:1008E00004EB440102EBC1018968884226D104EB84
:1008F00044005A4901EBC000C06804EB440102EB1C
:10090000C101C968884219D104EB4400534901EB85
:10091000C000006904EB440102EBC101096988428F
:100920000CD104EB44004D4901EBC000406904EBDD
:10093000440102EBC1014969884204D021466CA000
:1009400001F014FD0127601CC4B2032CA9DB0024B4
:100950004DE004EB44026F4B03EBC20104EB440295
:100960003F4B03EBC200FFF7A7FCD0B904EB4400F8
:100970003B4901EBC000006904EB4401654A02EB0E
:10098000C101096988420CD104EB4400344901EBF0
:10099000C000406904EB440102EBC101496988428F
:1009A00023D004EB44002E4901EBC000416904EB65
:1009B00044002B4A02EBC000006904EB4402554B93
:1009C00003EBC2025269CDE90020029104EB44001E
:1009D000194601EBC000036904EB440001EBC002BF
:1009E00021464D4801F0C2FC0127601CC4B2192CFD
:1009F000AFDB1FB949A001F0B9FC02E050A001F043
:100A0000B5FC57A001F0B2FC3846FEBD0D0A3D3DD5
:100A10003D3D3D3D3D3D20466C61736820496E641F
:100A200065782054657374203D3D3D3D3D3D3D3D21
:100A30000D0A00002D2D2D2D20726561642062614C
:100A4000636B2066726F6D20666C6173682030780E
:100A500025303658202D2D2D2D0D0A007423002011
:100A6000BC230020417265615B25645D3A206D61A5
:100A70006769633D307825303858207665723D25AA
:100A800064206E756D3D256420616464723D30782C
:100A90002530365820746F74616C3D25644B420DCF
:100AA0000A00000020205B2532645D20252D3136B0
:100AB0007320616464723D30782530365820736944
:100AC0007A653D25640D0A002D2D2D2D2076657249
:100AD00069667920616761696E73742065787065F5
:100AE00063746564202D2D2D2D0D0A00880A0308DE
:100AF00020205B4641494C5D20417265615B256465
:100B00005D20686561646572206D69736D617463F1
:100B1000680D0A00D00A0308884E030820205245B9
:100B200053554C543A20414C4C20323520454E54BC
:100B300052494553204D41544348204F4B0D0A0024
:100B40002020524553554C543A20494E4445582094
:100B50004D49534D41544348202121210D0A0000A5
:100B60003D3D3D3D3D3D3D3D20466C617368204926
:100B70006E646578205465737420454E44203D3D75
:100B80003D3D3D3D3D3D0D0A0000000010B54822B1
:100B90000021074800F0A4FE4FF4167248210548D2
:100BA00000F09EFE012004490870002010BD0000E6
:100BB00074230020BC230020300000202DE9F041E8
:100BC000024600250026002000230024002791F87B
:100BD00003C00CF00F0591F803C00CF0100CBCF131
:100BE000000F03D091F802C04CEA050591F800C04F
:100BF000BCF1000F31D0146800202BE04FF0010C45
:100C00000CFA00F3B1F800C00CEA03069E4220D1B2
:100C100083004FF00F0C0CFA03F7BC4305FA03FCFA
:100C20004CEA040491F803C0BCF1280F06D14FF040
:100C3000010C0CFA00FCC2F814C00AE091F803C0E1
:100C4000BCF1480F05D14FF0010C0CFA00FCC2F8C2
:100C500010C0401C0828D1D31460B1F800C0BCF10A
:100C6000FF0F34DD546800202EE000F1080C4FF037
:100C7000010808FA0CF3B1F800C00CEA03069E4222
:100C800021D183004FF00F0C0CFA03F7BC4305FA97
:100C900003FC4CEA040491F803C0BCF1280F05D111
:100CA00000F1080C08FA0CF8C2F8148091F803C09F
:100CB000BCF1480F07D100F1080C4FF0010808FA09
:100CC0000CF8C2F81080401C0828CED35460BDE850
:100CD000F0810246002093680B400BB1012000E038
:100CE00000207047416170470161704702A001F028
:100CF0003DFB00BFFEE70000486172644661756C11
:100D00007400000010B504462CB14FF48051054822
:100D1000FFF7E8FF04E04FF480510248FFF7E4FFDB
:100D200010BD00000014014001B502E00098401E13
:100D3000009000980028F9D108BD00B597B03C217B
:100D400008A8FFF7A7FA1C2101A8FFF7A3FA0121C1
:100D5000080200F02FFD012001900420039080067E
:100D6000079000200290049005900690089009904A
:100D700008200A9010200B9000200C900E900F90ED
:100D800010904FF480501190002012901390149006
:100D900001A81590169008A8FFF702FC0121002079
:100DA000FFF7E4FB17B000BD2DE9F84F05460E46EE
:100DB00017469846DDF828B0781B401C1FFA80F9CA
:100DC000A8EB0600401C1FFA80FA09FB0AF000900D
:100DD00053464A463146284600F060F92C2000F080
:100DE00007FC002404E03BF8140000F005FC641C40
:100DF00000988442F7D3BDE8F88F000008B50121C0
:100E0000602000F0E7FC03208DF8020018208DF828
:100E100003004FF48040ADF8000069465B48FFF7DF
:100E2000CDFE4FF40040ADF8000069465748FFF78B
:100E3000C5FE0120ADF8000069465448FFF7BEFE2C
:100E40000220ADF8000069465048FFF7B7FE802049
:100E5000ADF8000069464E48FFF7B0FE4FF48070D1
:100E6000ADF8000069464A48FFF7A8FE4FF400704D
:100E7000ADF8000069464648FFF7A0FE4FF48060D9
:100E8000ADF8000069464248FFF798FE4FF4006055
:100E9000ADF8000069463E48FFF790FE4FF48050E1
:100EA000ADF8000069463A48FFF788FE4FF400505D
:100EB000ADF8000069463648FFF780FE4FF48040E9
:100EC000ADF8000069463248FFF778FE4FF4004065
:100ED000ADF8000069462E48FFF770FE4FF48070B1
:100EE000ADF8000069462948FFF768FE4FF400702E
:100EF000ADF8000069462548FFF760FE4FF48060BA
:100F0000ADF8000069462148FFF758FE03208DF830
:100F1000020018208DF803001020ADF8000069468B
:100F20001A48FFF74BFE2020ADF80000694617482D
:100F3000FFF744FE8020ADF8000069461348FFF734
:100F40003DFE4FF40060ADF8000069460F48FFF722
:100F500035FE10208DF8030003208DF802000220DA
:100F6000ADF8000069460A48FFF728FE10208DF80A
:100F7000030003208DF802004FF48050ADF800000C
:100F800069460248FFF71AFE08BD00000014014040
:100F90000018014010B50446072C00DD10BD314893
:100FA0000470204604EBD0714910A4EB410139B91B
:100FB000F0202D4908804FF4A0702C49088006E0ED
:100FC0004FF4A07028490880F02028490880362076
:100FD00000F00EFB2648008849F24131884205D1D5
:100FE000082141EA441000F007FB0AE0204800888D
:100FF00048F25251884204D1002141EA441000F0E5
:10100000FBFA2A2000F0F4FA002000F0F5FA0020A4
:1010100000F0F2FA14490988491EC1F3072000F0D4
:10102000EBFA11490978491EC8B200F0E5FA2B2005
:1010300000F0DEFA002000F0DFFA002000F0DCFA19
:101040000A490988491EC1F3072000F0D5FA07496B
:101050000978491EC8B200F0CFFA2C2000F0C8FA77
:1010600000BF9BE79C000020980000209A00002011
:101070009E00002010B5FFF7C1FEFFF75EFE0120C5
:10108000FFF740FE00F0A0FA00F038F802480078C0
:10109000FFF780FF10BD00009C0000202DE9F0410B
:1010A00004460D4616461F462A2000F0A1FA2012DB
:1010B00000F0A2FAE0B200F09FFAA119491EC1F3B4
:1010C0000F2000F099FAA119491EC8B200F094FA55
:1010D0002B2000F08DFA281200F08EFAE8B200F012
:1010E0008BFAE919491EC1F30F2000F085FAE919BE
:1010F000491EC8B200F080FABDE8F08110B500F0DA
:1011000025FAFE4908800846008849F241318842A4
:101110007ED1CF2000F06CFA002000F06DFA812023
:1011200000F06AFA302000F067FAED2000F060FA73
:10113000642000F061FA032000F05EFA122000F053
:101140005BFA812000F058FAE82000F051FA85207F
:1011500000F052FA102000F04FFA782000F04CFA1C
:10116000CB2000F045FA392000F046FA2C2000F0A0
:1011700043FA002000F040FA342000F03DFA062047
:1011800000F03AFAF72000F033FA202000F034FAA9
:10119000EA2000F02DFA002000F02EFA002000F0E6
:1011A0002BFAB12000F024FA002000F025FA1B20D1
:1011B00000F022FAB62000F01BFA0A2000F01CFA18
:1011C000A22000F019FAC02000F012FA352000F039
:1011D00013FAC12000F00CFA112000F00DFAC5201E
:1011E00000F006FA452000F007FA452000F004FA66
:1011F000C72000F0FDF9A22000F0FEF9F22000F077
:10120000F7F9002000F0F8F9262000F0F1F900E0ED
:1012100096E0012000F0F0F9E02000F0E9F90F205D
:1012200000F0EAF9262000F0E7F9242000F0E4F9C4
:101230000B2000F0E1F90E2000F0DEF9092000F0AB
:10124000DBF9542000F0D8F9A82000F0D5F94620A9
:1012500000F0D2F90C2000F0CFF9172000F0CCF903
:10126000092000F0C9F90F2000F0C6F9072000F0AE
:10127000C3F9002000F0C0F9E12000F0B9F9002026
:1012800000F0BAF9192000F0B7F91B2000F0B4F90A
:10129000042000F0B1F9102000F0AEF9072000F0B2
:1012A000ABF92A2000F0A8F9472000F0A5F9392071
:1012B00000F0A2F9032000F09FF9062000F09CF94D
:1012C000062000F099F9302000F096F9382000F05F
:1012D00093F90F2000F090F9362000F089F9C8202A
:1012E00000F08AF92A2000F083F9002000F084F948
:1012F000002000F081F9002000F07EF9EF2000F0DE
:101300007BF92B2000F074F9002000F075F9002023
:1013100000F072F9012000F06FF93F2000F06CF945
:101320003A2000F065F9552000F066F9112000F030
:101330005FF97348FFF7F8FC292000F059F901E143
:101340006E48008848F252518842F8D1CF2000F010
:101350004FF9002000F050F9C12000F04DF9302085
:1013600000F04AF9ED2000F043F9642000F044F960
:10137000032000F041F9122000F03EF9812000F036
:101380003BF9E82000F034F9852000F035F9102011
:1013900000F032F9782000F02FF9CB2000F028F986
:1013A000392000F029F92C2000F026F9002000F067
:1013B00023F9342000F020F9022000F01DF9F72075
:1013C00000F016F9202000F017F9EA2000F010F9DB
:1013D000002000F011F9002000F00EF9C02000F00C
:1013E00007F9212000F008F9C12000F001F91120CF
:1013F00000F002F9C52000F0FBF82D2000F0FCF809
:10140000332000F0F9F8362000F0F2F8002000F068
:10141000F3F83A2000F0ECF8552000F0EDF8B12098
:1014200000F0E6F8002000F0E7F8172000F0E4F8FC
:10143000B62000F0DDF80A2000F0DEF8A22000F06F
:10144000DBF8F62000F0D4F8012000F0D5F83020C9
:1014500000F0D2F8F22000F0CBF8002000F0CCF839
:10146000262000F0C5F8012000F0C6F8E02000F0CA
:10147000BFF8D02000F0C0F8002000F0BDF8022036
:1014800000F0BAF8072000F0B7F80B2000F0B4F82D
:101490001A2000F0B1F8312000F0AEF8542000F02E
:1014A000ABF8402000F0A8F8292000F0A5F81220A1
:1014B00000F0A2F8122000F09FF8122000F09CF833
:1014C000172000F099F8E12000F092F8D02000F009
:1014D00093F8002000F090F8022000F08DF807202B
:1014E00000F08AF8052000F087F8252000F084F845
:1014F0002D2000F081F8442004E000009E00002030
:10150000FCBF020000F078F8452000F075F81C20C0
:1015100000F072F8182000F06FF8162000F06CF858
:101520001C2000F069F81D2000F066F8112000F082
:101530005FF80548FFF7F8FB292000F059F82C2048
:1015400000F056F810BD0000FCBF020010B50024EA
:10155000042000F04DF800BF1748008800BF16486F
:10156000008800F02BF804464FF6FF7000EA0424D0
:1015700000F024F8044348F25250844201D120463E
:1015800010BDD32000F034F800BF0B48008800BF26
:101590000948008800F012F804464FF6FF7000EA90
:1015A000042400F00BF8044349F24130844201D195
:1015B0002046E5E70020E3E70000026001480088DC
:1015C000704700000000026010B502210748FFF7D5
:1015D00089FB40F6FF20FFF7A7FB02210348FFF736
:1015E00083FB40F6FF20FFF79FFB10BD0018014072
:1015F0004FF0C041088070470149088070470000E3
:10160000000002602DE9FE4F804601AA02A9404673
:10161000FFF7AEF828B9414634A000F0A7FEBDE8B8
:10162000FE8F414637A0DDE9013200F09FFE0198B0
:10163000B0F5005F02D94FF4005000E0019882B28B
:101640003A48029900F04CF938480078374949780F
:1016500040EA01203549897840EA01403349C97898
:1016600040EA016606F01F09C6F38A2440F2FF70C3
:1016700000EA565504FB05F040002B462246494639
:1016800000902BA000F072FE3248006820F0E000CD
:10169000304908600846006820F01F00001D0860FF
:1016A0000846006864F3942008600846006865F303
:1016B0005F50086004FB05F0400048601B48001DB7
:1016C000886025F05EF982461BF082FA07462149C0
:1016D00038461CF026F900BF00231A460921384677
:1016E0001FF022F900BF00BF99E7000069636F6E29
:1016F000205B25735D206E6F7420666F756E6421AC
:101700000D0A0000726561642069636F6E205B25BD
:10171000735D3A20616464723D307825303658201C
:1017200073697A653D25640D0A0000006803002096
:1017300069636F6E206864723A2063663D25642099
:10174000773D256420683D256420646174613D25F2
:10175000640D0A006823002070B525F012F90646D2
:1017600014F0E8F8044620461CF034FE054605A1B6
:1017700028461DF037FE14230022022120461FF0C8
:10178000D3F870BD68656C6C6F00000004E0052044
:101790002EF09CFD27F04CFFF9E700BFFEE77047F5
:1017A00002490143024A1160704700000000FA0537
:1017B0000CED00E029B1064A52690243044B5A611C
:1017C00004E0034A52698243014B5A6170470000AA
:1017D0000010024029B1064A92690243044B9A6103
:1017E00004E0034A92698243014B9A61704700000A
:1017F0000010024030B500210022002400232D4DAE
:101800006D6805F00C0121B1042905D0082923D108
:1018100005E0294D056022E0274D05601FE0254DBC
:101820006D6805F47012234D6D6805F4803402254F
:1018300005EB92421CB9214D554305600BE01D4D4F
:101840006D6805F400351DB11C4D5543056002E07F
:10185000194D5543056002E0174D056000BF00BFFC
:10186000144D6D6805F0F0010909154D6B5C0568B4
:10187000DD4045600F4D6D6805F4E061090A104DCB
:101880006B5C4568DD4085600A4D6D6805F460510C
:10189000C90A0B4D6B5C4568DD40C560054D6D6840
:1018A00005F44041890B074D6B5CC568B5FBF3F54A
:1018B000056130BD0010024000127A0000093D00B1
:1018C000000000201000002021B1028842F04002F8
:1018D000028004E002884FF6BF731A40028070470E
:1018E00070B505460C46164601211048FFF7FAF977
:1018F000032000F0A3F8C4F3074000F09FF8C4F3FE
:10190000072000F09BF8E0B200F098F804E0FF2018
:1019100000F094F828706D1C301EA6F101018EB203
:10192000F5D101210148FFF7DFF970BD001001403A
:1019300000B587B001210803FFF74CFF0121D42037
:10194000FFF748FF0120ADF8040003208DF80600E2
:1019500010208DF8070001A92148FFF72FF920205A
:10196000ADF8040018208DF8070001A91D48FFF705
:1019700025F94020ADF8040001A91A48FFF71EF927
:101980008020ADF8040001A91648FFF717F90121DE
:101990001348FFF7A9F90020ADF808004FF4827052
:1019A000ADF80A000020ADF80C000220ADF80E00E2
:1019B0000120ADF810004002ADF812000020ADF893
:1019C0001400ADF816000720ADF8180002A906486B
:1019D00000F07EF801210448FFF776FF07B000BD54
:1019E0000010014000080140003001402DE9F041A5
:1019F000002400250026002701210F48FFF772F977
:101A00009F2000F01BF8FF2000F018F80546FF208B
:101A100000F014F80646FF2000F010F807460121F8
:101A20000548FFF761F9280440EA062040EA070468
:101A30002046BDE8F08100000010014010B50446CA
:101A40004FF48050194908600AE018490868411E9F
:101A5000164A116020B9002000F058F8C0B210BD3D
:101A60000221134800F026F80028EED02146104845
:101A700000F02CF84FF480500C4908600AE00B4944
:101A80000868411E094A116020B9012000F03EF8A3
:101A9000C0B2E4E70121064800F00CF80028EED0BF
:101AA000034800F010F8C0B2D9E700007001002030
:101AB000003001400246002013890B400BB1012089
:101AC00000E0002070470146888970478181704797
:101AD00010B50022028802F441520B884C8823433F
:101AE0008C882343CC8823430C8923434C8923438C
:101AF0008C892343CC8923431A430280838B4FF282
:101B0000FF74234083830B8A038210BD10B5044603
:101B1000214602A000F02AFC002010BD3C3C2D46CE
:101B20004C4153482D4552524F522D3E3E2053506A
:101B30004920B5C8B4FDB3ACCAB1216572726F72E9
:101B4000436F6465203D2025640A000010B500F055
:101B500001F810BD0CB500200190009033480068DA
:101B600040F480303149086000BF3048006800F41C
:101B7000003000900198401C0190009818B901981D
:101B8000B0F5A06FF1D12948006800F4003010B121
:101B90000120009001E0002000900098012843D12E
:101BA0002348006840F0100021490860084600689A
:101BB00020F0030008600846006840F0020008605A
:101BC0001A48406819494860084640684860084615
:101BD000406840F4806048600846406820F47C100B
:101BE00048600846406840F4E810486008460068CD
:101BF00040F08070086000BF0C48006800F0007082
:101C00000028F9D00948406820F0030007494860DF
:101C10000846406840F00200486000BF0348406842
:101C200000F00C000828F9D10CBD000000100240A3
:101C30000020024006E04FF47A702EF047FB02A02D
:101C400000F094FBF7E7000072756E2E2E2E0A004E
:101C5000042808D14FF0E021096941F004014FF058
:101C6000E022116107E04FF0E021096921F0040151
:101C70004FF0E0221161704710B52EF087FD01286A
:101C800001D02EF039FD10BD00B585B06846FFF7D4
:101C9000B1FD0420FFF7DCFF0B49009808604FF40A
:101CA0007A710098B0FBF1F04FF0E02148610846EE
:101CB000006940F0020008610846006940F0010038
:101CC000086105B000BD00009400002010B5134865
:101CD000006840F00100114908600846406810495A
:101CE00008400E494860084600680E4908400B4904
:101CF00008600846006820F48020086008464068B4
:101D000020F4FE0048604FF41F008860FFF71EFFBC
:101D10004FF000600449086010BD00000010024050
:101D20000000FFF8FFFFF6FE08ED00E021B1828918
:101D300042F40052828104E082894DF6FF731A401A
:101D40008281704700B585B001210420FFF742FD74
:101D500001218803FFF73EFD4FF40070ADF810003D
:101D600018208DF8130003208DF8120004A91348E1
:101D7000FEF724FF4FF48060ADF8100004208DF8CA
:101D8000130004A90D48FEF719FF4FF4E13000904D
:101D90000020ADF80400ADF80600ADF80800ADF87D
:101DA0000C000C20ADF80A006946054800F018F850
:101DB00001210348FFF7BAFF05B000BD000801404C
:101DC0000038014002460020B1F5007F00D100BF7D
:101DD00013880B400BB1012000E000207047000089
:101DE0002DE9F04786B005460E460024A24600BF06
:101DF000A1460027B08900B100BF2F462C8A4CF6BF
:101E0000FF700440F08804432C82AC894EF6F31036
:101E10000440B08831890843718908430443AC8188
:101E2000AC8A4FF6FF400440B0890443AC8201A85D
:101E3000FFF7E0FC1F48874202D1DDF810A001E067
:101E4000DDF80CA0A88900F4004040B10AEBCA00FC
:101E500000EB0A1031684900B0FBF1F807E00AEB2B
:101E6000CA0000EB0A1031688900B0FBF1F8642069
:101E7000B8FBF0F004012009642101FB1089A88956
:101E800000F4004040B1322000EBC900B0FBF1F09B
:101E900000F00700044308E0322000EB0910642141
:101EA000B0FBF1F000F00F0004432C8106B0BDE858
:101EB000F087000000380140C1F3080282807047BB
:101EC00000BFFEE701B5002007E00C2100BF0A1E9D
:101ED000A1F10103D9B2FAD1401C00998842F4D390
:101EE00008BD00002DE9FC5F05460C46012668464A
:101EF00000F0CAF8002865D0BDF90200FEF77DFAAF
:101F000083463248007800EB400004EBC000416893
:101F10005846FEF740FA8146BDF90000FEF76DFA1B
:101F200083462A48007800EB400054F830105846A9
:101F3000FEF731FA82464946FEF7D5F98046234836
:101F4000007800EB400004EBC00081684046FEF7DB
:101F5000CAF90746FEF75AFA00B22880BDF9020016
:101F6000FEF74BFA83461948007800EB400004EB7B
:101F7000C00001695846FEF70EFA8146BDF900001F
:101F8000FEF73BFA83461148007800EB400004EB73
:101F9000C000C1685846FEF7FEF982464946FEF782
:101FA000A2F980460948007800EB400004EBC0002D
:101FB00041694046FEF797F90746FEF727FA00B257
:101FC000688000E000263046BDE8FC9F9C000020B1
:101FD00008B501216020FFF7FDFB0120ADF80000EE
:101FE0008DF8020010208DF8030069461B48FEF7AB
:101FF000E5FD0420ADF8000069461848FEF7DEFD57
:102000000820ADF8000001208DF8020048208DF86E
:10201000030069461148FEF7D1FD4FF40050ADF8BA
:10202000000001208DF8020010208DF803006946A1
:102030000B48FEF7C3FD4FF400510948FEF752FE6E
:102040001020ADF8000048208DF8030069460348D1
:10205000FEF7B4FD03A000F089F908BD00180140A7
:1020600000140140E8A7A6E691B8E5889DE5A78B96
:10207000E58C966F6B0A000010B50446204600F010
:1020800043F900F0C1F810BD2DE9F0478CB00646C9
:10209000002528216846FEF7FDF800BF0AA90BA815
:1020A00000F09EF8BDF92C002DF81500BDF92810A0
:1020B00005A820F81510681CC5B210214648FEF787
:1020C00008FE08B90A2DE9DB10214348FEF701FE9E
:1020D00010B10020414908700A2D7BD1BDF9007074
:1020E000B846BDF91490CA4601240EE03DF914002B
:1020F000B84202DA3DF9147005E03DF9140040459C
:1021000001DD3DF91480601CC4B20A2CEEDB012411
:1021100012E005A830F91400484503DA05A830F9A3
:10212000149007E005A830F91400504502DD05A819
:1021300030F914A0601CC4B20A2CEADBBDF900001F
:10214000BDF902100844BDF904100844BDF9061099
:102150000844BDF908100844BDF90A100844BDF947
:102160000C100844BDF90E100844BDF910100844C5
:10217000BDF912100844C01BA0EB0800C01000B24B
:102180003080BDF91410BDF916000144BDF91800E6
:102190000144BDF91A000144BDF91C000144BDF918
:1021A0001E000144BDF920000144BDF92200014494
:1021B000BDF924000144BDF926000844A0EB090044
:1021C000A0EB0A00C01000B2708001200CB0BDE886
:1021D000F087FFE70020F9E70018014060010020C8
:1021E0002DE9F04104460D469020FFF745FF06B269
:1021F0000120FFF767FED020FFF73EFF07B22680E1
:102200002F80BDE8F081000070B500250421114841
:10221000FEF768FD01210F48FEF766FD002414E07B
:1022200001210C48FEF75EFD08210A48FEF751FD2A
:102230000646C4F10B0006FA00F0284385B20121DE
:102240000448FEF751FD601CC4B20C2CE8DB2846A4
:1022500070BD00000018014010B500242748007828
:1022600020B1012811D002283FD12FE010212448AD
:10227000FEF72FFD20B9012020490870002403E05B
:1022800000201E490870002434E010211C48FEF78D
:1022900020FDA0B91B480068401C1A490860084688
:1022A0000068022806D9002008600220134908703F
:1022B00001240AE0012011490870002405E00020F3
:1022C000104908600D490870002413E010210C48E3
:1022D000FEF7FFFC20B9022008490870012403E042
:1022E000002006490870002404E00020034908701B
:1022F000002400BF00BF204610BD00006101002087
:10230000001801406401002070B5054604211648FC
:10231000FEF7E8FC01211448FEF7E4FC00241FE06E
:10232000C4F1070045FA00F000F0010020B10421DB
:102330000D48FEF7D9FC03E004210B48FEF7D2FC60
:102340000520FFF7BFFD01210748FEF7CDFC052062
:10235000FFF7B8FD01210448FEF7C4FC601CC4B2BD
:10236000082CDDDB70BD0000001801400FB4054BE8
:1023700010B503A9044A029802F0E6F910BC5DF812
:1023800014FB0000B90C01086403002002E008C837
:10239000121F08C1002AFAD170477047002001E0DF
:1023A00001C1121F002AFBD1704770B504460025F9
:1023B00008E02168481C20600878303805EB85016A
:1023C00000EB41052168087800F004F80028F0D1FE
:1023D000284670BD0146302903DB392901DC012084
:1023E00070470020FCE7000010B54021074801F0CD
:1023F00097FB00221E21064827F0A6F80549086031
:1024000003F0ECF800200449087010BDC4670020F8
:10241000A9560008EC020020E802002030B503466F
:10242000B1F90040B2F90050AC4202DDB1F9004010
:1024300001E0B2F900401C80B1F90240B2F902504B
:10244000AC4202DDB1F9024001E0B2F902405C8029
:10245000B1F90440B2F90450AC4202DAB1F90440D7
:1024600001E0B2F904409C80B1F90640B2F906508F
:10247000AC4202DAB1F9064001E0B2F90640DC8074
:102480000120B3F90040B3F90450AC4205DCB3F9C4
:102490000240B3F90650AC4200DD002030BDF8B573
:1024A00004460D4616460027B4F90000B5F90010A1
:1024B000884212DBB4F90200B5F9021088420CDB45
:1024C000B4F90400B5F90410884206DCB4F906003A
:1024D000B5F90610884200DC01270FB90020F8BDCD
:1024E0000EB90120FBE72088ADF800006088ADF848
:1024F000020032466946284600F0A7F808B90020D5
:10250000EDE7A088ADF800006088ADF80200324623
:102510006946284600F099F808B90020DFE72088CE
:10252000ADF80000E088ADF8020032466946284662
:1025300000F08BF808B90020D1E7A088ADF80000C2
:10254000E088ADF8020032466946284600F07DF882
:1025500008B90020C3E70120C1E70246B2F9000034
:10256000B1F90430984213DCB2F90400B1F900303B
:1025700098420DDBB2F90200B1F90630984207DC4F
:10258000B2F90600B1F90230984201DB0120704730
:102590000020FCE7F8B504460D461646B4F90400E1
:1025A000B5F90010884211DBB4F90600B5F9021044
:1025B00088420BDBB4F90000B5F90410884205DC51
:1025C000B4F90200B5F90610884201DD0120F8BD1A
:1025D0000EB90020FBE72088ADF800006088ADF858
:1025E000020032466946284600F02FF808B1002064
:1025F000EDE7A088ADF800006088ADF80200324633
:102600006946284600F021F808B10020DFE720885D
:10261000ADF80000E088ADF8020032466946284671
:1026200000F013F808B10020D1E7A088ADF8000051
:10263000E088ADF8020032466946284600F005F809
:1026400008B10020C3E70120C1E72DE9FC5F054682
:102650000E4614464FF0000AB6F90000B5F9001016
:10266000884213DBB6F90000B5F9041088420DDC8E
:10267000B6F90200B5F90210884207DBB6F902008C
:10268000B5F90610884201DC4FF0010ABAF1000FDB
:1026900002D10020BDE8FC9F002C01DC0120F9E7FD
:1026A000284612F094FE834600EBDB704710284664
:1026B00012F005FE834600EBDB704FEA60084745E9
:1026C00001DA384600E0404681464C4500DD4C4684
:1026D0002888ADF800002888204400B2ADF8040036
:1026E0006888ADF802006888204400B2ADF80600A2
:1026F000002231466846FFF7A8FF80B1BDF804000C
:10270000204400B2ADF80400BDF80600204400B239
:10271000ADF806003146684623F0E4FABAE7E888E7
:10272000001B00B2ADF80200E888ADF806000022F8
:1027300031466846FFF789FF80B1BDF804002044A8
:1027400000B2ADF80400BDF80200001B00B2ADF805
:1027500002003146684623F0C5FA9BE7A888001BB3
:1027600000B2ADF80000A888ADF8040000223146A0
:102770006846FFF76AFF80B1BDF80000001B00B299
:10278000ADF80000BDF80200001B00B2ADF8020079
:102790003146684623F0A6FA7CE76888ADF8020067
:1027A0006888204400B2ADF8060000223146684631
:1027B000FFF74BFF80B1BDF80000001B00B2ADF881
:1027C0000000BDF80600204400B2ADF80600314616
:1027D000684623F087FA5DE701205BE710B5B1F9A1
:1027E0000030B2F90040A34202DAB1F9003001E052
:1027F000B2F900300380B1F90230B2F90240A342CD
:1028000002DAB1F9023001E0B2F902304380B1F9E5
:102810000430B2F90440A34202DDB1F9043001E012
:10282000B2F904308380B1F90630B2F90640A34210
:1028300002DDB1F9063001E0B2F90630C38010BD07
:102840002DE9FF47064626F020FE81460020039032
:102850001EB19B49F068086003E015F021FC98491F
:10286000086097490968086923F09AF99448006854
:10287000406920B192490968486923F091F990496B
:102880000968C86923F08CF98D490968086A23F042
:1028900087F98B480068006940B9002088490968B9
:1028A000A1F8500100BF00BFBDE8FF8723F016FD6F
:1028B00023F05CFC82480068B0F8500100284BD03F
:1028C0007F4800680068007CC0F34000E8B17C48A5
:1028D000006815F063FC401E04B27948006815F0EA
:1028E000F7FB401E07B23B460022114601A80094A8
:1028F00012F0B2FD01A8724909680968896B486045
:102900006F48006805F0C2FE00BF4FF480716C484C
:10291000006830301DF06FFB20216948006800F529
:1029200098701DF068FB002065490968A1F8500106
:10293000484626F09DFD0390614800680068406AA3
:1029400050B15F49096808685D49096809684B6AC0
:102950005C490A68039998471DF084F800F0F6F87E
:1029600000F0BEF858484569002D53D100BF15F05E
:1029700097FB074615F0C7FB04461BF02BFD0546E9
:1029800000227F21284622F0BCFF00BF0022114612
:10299000104614F03CFD0190BDF8041008460022DA
:1029A00001460290284622F08FFF00BFFF22114609
:1029B000104614F02CFD0190BDF8041008460022CA
:1029C00001460290284623F061F8002203212846A0
:1029D00023F042F800220321284623F016F80022B3
:1029E0000321284623F01EF800220321284623F065
:1029F00026F800220321284623F03BF833A128467D
:102A00001CF0F0FC00231A46062128461DF08CFF1E
:102A10002D4845612C49086826F02AFDB0F5967FBF
:102A200010D22848006841F28831884245D92648AA
:102A30004068039908442449486008468068401C5F
:102A400088603AE026F021FD1F4908601C480068B4
:102A5000406800684FF47A71B1FBF0F71A4840689B
:102A600010B90120184948601748806808B93C46E9
:102A700008E0154880684FF47A7148431249496864
:102A8000B0FBF1F40020104948608860BC4200D9D6
:102A90003C460D48006920440B4908610846C0685F
:102AA000401CC86026F0BEFDC0F1640843462246C3
:102AB00007A128461CF0EEFC00BF00BFF4E60000B2
:102AC000AC010020A8010020006600203F000000AB
:102AD0002575204650530A2575252520435055005D
:102AE00010B5002416E0C4EBC4000C4951F82000D6
:102AF00030B1C4EBC401094A52F821001DF064F85A
:102B0000C4EBC401054A02EB81001C211DF073FADD
:102B1000601CC4B2042CE6DB10BD0000A0680020DD
:102B20000146094A10680BE042688A4202D00268F6
:102B30008A4204D1027E22F00102521C02764069D0
:102B40000028F1D17047000080010020704700008C
:102B500010B50421014800F0E3FF10BDB867002064
:102B600010B51C21014800F0DBFF10BDD06700202C
:102B70002DE9FF4F8BB004469A46199DBAF1000F1C
:102B800011D11898B0F5807F0DD100202080608091
:102B90000C98401E00B2A0800D98401E00B2E0804C
:102BA0000FB0BDE8F08FB5F90000404218994843D6
:102BB0000121C1EB202000B22080B5F90200404283
:102BC000189948430121C1EB202000B26080B5F97B
:102BD00000100C98401A18994843022101EB20205C
:102BE00000B2A080B5F902100D98401A1899484318
:102BF000022101EB202000B2E080BAF1000F14D1D5
:102C000020882988084400B22080608869880844A8
:102C100000B26080A0882988084400B2A080E088C3
:102C20006988084400B2E080BAE70A209AFBF0F015
:102C30000A900A98401C09900A9800EB8000AAEBC1
:102C4000400B0A9800B226F023FF0890099800B2C2
:102C500026F01EFF07900A985A3000B226F018FF9F
:102C6000069009985A3000B226F012FF0590CBF179
:102C70000A0108984143079800FB0B100A2190FBBA
:102C8000F1F6CBF10A0106984143059800FB0B10C1
:102C90000A2190FBF1F776117F11B4F90080B4F9A5
:102CA000029007FB08F006FB1900298801EBA02021
:102CB00000B2ADF8100006FB08F007FB09006988B8
:102CC00001EBA02000B2ADF81200B4F90480B4F911
:102CD000029007FB08F006FB1900298801EBA020F1
:102CE00000B2ADF80C0006FB08F007FB090069888C
:102CF00001EBA02000B2ADF80E00B4F90080B4F9E9
:102D0000069007FB08F006FB1900298801EBA020BC
:102D100000B2ADF8080006FB08F007FB090069885F
:102D200001EBA02000B2ADF80A00B4F90480B4F9B8
:102D3000069007FB08F006FB1900298801EBA0208C
:102D400000B2ADF8040006FB08F007FB0900698833
:102D500001EBA02000B2ADF80600BDF90800BDF9F6
:102D60001010884202DABDF9080001E0BDF9100038
:102D7000BDF90410BDF90C20914202DABDF904102E
:102D800001E0BDF90C1088420BDABDF90800BDF96D
:102D90001010884202DABDF908000DE0BDF91000FC
:102DA0000AE0BDF90400BDF90C10884202DABDF951
:102DB000040001E0BDF90C002080BDF90800BDF958
:102DC0001010884202DDBDF9080001E0BDF91000D5
:102DD000BDF90410BDF90C20914202DDBDF90410CB
:102DE00001E0BDF90C1088420BDDBDF90800BDF90A
:102DF0001010884202DDBDF908000DE0BDF9100099
:102E00000AE0BDF90400BDF90C10884202DDBDF9ED
:102E1000040001E0BDF90C00A080BDF90A00BDF975
:102E20001210884202DABDF90A0001E0BDF9120071
:102E3000BDF90610BDF90E20914202DABDF9061067
:102E400001E0BDF90E1088420BDABDF90A00BDF9A8
:102E50001210884202DABDF90A000DE0BDF9120035
:102E60000AE0BDF90600BDF90E10884202DABDF98C
:102E7000060001E0BDF90E006080BDF90A00BDF951
:102E80001210884202DDBDF90A0001E0BDF912000E
:102E9000BDF90610BDF90E20914202DDBDF9061004
:102EA00001E0BDF90E1088420BDDBDF90A00BDF945
:102EB0001210884202DDBDF90A000DE0BDF91200D2
:102EC0000AE0BDF90600BDF90E10884202DDBDF929
:102ED000060001E0BDF90E00E08000BF60E62DE9CC
:102EE000F74F86B0044620680590B4F9081007989B
:102EF000A0EB0108B4F90A100898A0EB0109E089D9
:102F0000B0F5807F13D1206B00FB08F0E16A01FB74
:102F10001901606A00EBA10BE06A00FB08F0216B6D
:102F200001FB0901A06A00EBA10004902FE0A08939
:102F300080B9A06B00FB08F04FEA6018A06B00FBA3
:102F400009F04FEA6019606A00EB080BA06A484478
:102F500004901CE0A06B00FB08F04FEA6018A06B27
:102F600000FB09F04FEA6019206B00FB08F0E16AF2
:102F700001FB1901606A00EBA12BE06A00FB08F07D
:102F8000216B01FB0901A06A00EBA12004904FEA2C
:102F90002B2604980712B4F90400B04203DC002089
:102FA00009B0BDE8F08F002E01DA0020F8E7B4F98F
:102FB0000600B84201DC0020F2E7002F01DA002011
:102FC000EEE73420005DC0F3800050B33420005D94
:102FD000C0F3400078B90225B4F90400784368438F
:102FE00006FB050A059800EB0A012A4604F11400C5
:102FF0001CF0AFFF2CE00325B4F9040078436843CC
:1030000006FB050A6A1E059800EB0A0104F114008C
:103010001CF09FFF0AEB0500401E0599095CA17595
:1030200016E04FF0000A0025208A03463AB231B27A
:10303000019004F1180019F079FC0290BDF8080025
:10304000A0823AB231B204F1180019F0CFFBA0759A
:103050003420005D00F00100B0B14FF47F4000214A
:1030600000F47C4241EA5211C0F3C40211430191C1
:10307000BDF8042011460291A08ABDF808108842CC
:1030800001D100208CE700BFE07C08B9012087E770
:103090000FFA8BF1A187049801B2E18731B2402089
:1030A000015339B242200153C4F844A084F8485077
:1030B000204600F003F80390039871E72DE9F04FE4
:1030C0008DB00446D4F8009094F83C000C9094F82D
:1030D0003E000B900C9870280BDA4FF0FF35B4F9D6
:1030E00040002844002800DA00250C988030C7B240
:1030F00013E00C9890280EDD0125B4F94000284417
:10310000B4F90410884200DB00250C98C0F1FF00E0
:103110008030C7B201E00025FF270B9870280CDA39
:103120004FF0FF36B4F942003044002800DA0026A0
:103130000B98803000F0FF0815E00B9890280FDD09
:103140000126B4F942003044B4F90610884200DB8D
:1031500000260B98C0F1FF00803000F0FF0802E06D
:1031600000264FF0FF08A08A0A90A07D069000205C
:103170000590049003903420005DC0F38000002887
:103180005BD094F84800626C00FB052000EB09015D
:10319000022209A81CF0DDFEB4F9040094F84820CE
:1031A0005043626C00FB062000EB0901022208A8D4
:1031B0001CF0CFFEB4F9040094F848205043626C30
:1031C00000FB062294F8480000FB052000EB0901F3
:1031D000022207A81CF0BDFE3420005DC0F34000B1
:1031E00000287ED094F84800616C00FB051108446B
:1031F000401E19F800000590B4F9040094F8481036
:103200004843616C00FB061194F848000844401ED6
:1032100019F800000490B4F9040094F848104843E9
:10322000616C00FB061194F8480000FB051108448E
:10323000401E19F80000039053E0208A0090B4F972
:1032400042204020005B284401B204F11800009B9A
:1032500019F06CFB0990208A00904220005B3044FA
:1032600002B2B4F9401004F11800009B19F05EFBA3
:103270000890208A00904220005B304402B2402037
:10328000005B284401B204F11800009B19F04EFBCA
:1032900007903420005DC0F3400010B3B4F9422021
:1032A0004020005B284401B204F1180019F09EFA96
:1032B00005904220005B304402B2B4F9401004F1A2
:1032C000180019F093FA04904220005B304402B2D7
:1032D0004020005B284401B204F1180019F086FA7E
:1032E0000390BA46BB463420005DC0F34000E0B313
:1032F00006987843C7F1FF0C059B03FB0C00C0F355
:10330000072104987843C7F1FF0C039B03FB0C00D3
:10331000C0F3072201FB08F0C8F1FF0302FB030022
:10332000030AA375022905DC022A03DC00200DB084
:10333000BDE8F08F022901DC4FF00008022A01DC11
:103340004FF0FF080698022801DC4FF0000A0598AC
:10335000022801DC4FF0FF0A0498022801DC4FF03C
:10336000000B0398022803DC00E002E04FF0FF0BA3
:1033700003E0BA46BB46FF21A175BAF1000F02D1A6
:10338000099802900BE0BAF1FF0F02D10A9802905F
:1033900005E05246DDE9091014F0FAF80290BBF19D
:1033A000000F02D1079801900BE0BBF1FF0F02D193
:1033B0000898019005E05A46DDE9071014F0E8F896
:1033C0000190B8F1000F03D1BDF80400A0820FE016
:1033D000B8F1FF0F03D1BDF80800A08208E0424613
:1033E000DDE9011014F0D4F80090BDF80000A082CF
:1033F00001209CE72DE9F05F0446B4F908000102C2
:103400006162B4F90A000102A162B4F90C000A2158
:1034100090FBF1F56F1CB4F90C0005EB8501A0EBF6
:103420004106684200B226F033FB8046784200B283
:1034300026F02EFB8146C5F15A0000B226F028FB8B
:103440008246C7F15A0000B226F022FB8346C6F13D
:103450000A0000FB08F009FB06000A2190FBF1F1CD
:10346000E162C6F10A0000FB0AF00BFB06000A212C
:1034700090FBF1F12163E06A4111E162206B41119F
:103480002163A07C19F061FB3421095D60F3000128
:1034900034200155A07C19F03BFB3421095D60F319
:1034A000410134200155A07C042805D0A07C0528CA
:1034B00002D0A07C062807D13420005D20F0040053
:1034C000001D3421085505E03420005D20F0040182
:1034D0003420015521682162A06920F0E000A0613C
:1034E000A17CA06961F30400A061A188A06961F3D7
:1034F0009420A061E188A06961F35F50A061E08938
:1035000000EBD071491001F5001191FBF0F2A263BC
:10351000FF21A175208AA082BDE8F09F2DE9F74325
:10352000054616460024134C25F0AFFF804633466F
:1035300029462046019A19F0B7FF07465FB900BF38
:1035400000BF2C2120461CF056FD4FF00040A06229
:103550000020BDE8FE830020A062E06918B9404663
:1035600025F086FFE061E06908B90120E0612046AE
:10357000EFE70000F467002010B51421114800F0B7
:10358000CFFA19F043FF044600BF1CB900BF00BFCB
:1035900000BFFEE700BF14B900BF00BF10BD0A495D
:1035A00020461AF01BF8094920461AF019F8084974
:1035B00020461AF017F8074920461AF00DF800BF08
:1035C000ECE70000DC67002029CC0108FDD00108F1
:1035D00019D30108F1CB010870B504460D4610213E
:1035E00028461CF008FD20680078012804D1208AB4
:1035F0002880608A68800CE020680078022802D168
:10360000E068686005E020680078042801D10A209D
:1036100068602068406820B1206829464268904769
:1036200001E000BF00BF70BD2DE9FE430446A66A5D
:10363000EEB9A18A208A084401B2A182E18A608A97
:10364000084401B2E18220460CF039FD06460EB96D
:10365000BDE8FE8320460FF06BFE002209213046B4
:1036600018F0ECF96078C0F3400000B1F0E7208A70
:1036700010B9608A002870D000200290019094F860
:103680003C0000F00F00032812D130461EF06CFD04
:10369000074630461EF0F0FC804603200090B4F947
:1036A00010103B46424630460CF000F8029012E003
:1036B00030461EF0DBFD074630461EF04FFC8046CC
:1036C0000C200090B4F9121043463A4630460BF0F5
:1036D000EDFF019000BF30461EF0A0FC054605F04E
:1036E000010028B9BDF90800002801DD0020029082
:1036F00005F0020028B9BDF90800002801DA002011
:10370000029005F0040028B9BDF90400002801DD8D
:103710000020019005F0080028B9BDF90400002838
:1037200001DA0020019001AA02A9204628F0BCFD80
:103730000023BDF90420BDF90810304621F074FCC7
:10374000A08ABDF80810084401B2A182E08ABDF841
:103750000410084401B2E18200BF00BF78E72DE900
:10376000F84F0446D4F828B0BBF1000F01D1BDE8F2
:10377000F88F94F83C0000F00F0000B9F7E71AF05A
:1037800017FA06463068477E4021584620F076F901
:1037900010B900216183218358461EF053FD8046F5
:1037A00058461EF059FD054694F83C0000F00F0005
:1037B0000C2843D1002121831DBBB4F91A00C7F1A5
:1037C00064014843642190FBF1F001B261835846E3
:1037D0001EF0C4FB814658461EF048FD82460C2070
:1037E0000090B4F91A104B46524658460BF05EFF53
:1037F0006083B4F91A2000231946584621F014FCBE
:1038000069E0204628F0A7FD0090002161836A4608
:10381000204628F049FDBDF9003041F6FF725142C3
:1038200058460CF0F5FD8146BDF80000484402B250
:1038300001230021584621F0F7FB4CE094F83C00AE
:1038400000F00F00032846D100216183B8F1000F7A
:1038500023D1B4F91800C7F164014843642190FBF7
:10386000F1F001B2218358461EF006FC814658460D
:103870001EF07AFC824603200090B4F918105346DB
:103880004A4658460BF012FF2083B4F91810002363
:103890001A46584621F0C8FB1DE0204628F040FD9E
:1038A00000900021218300226946204628F0FCFC7C
:1038B000BDF9003041F6FF72514258460CF00EFD42
:1038C0008146BDF80000484401B201230022584659
:1038D00021F0AAFB00BF208B002860D1608B00285C
:1038E0005DD11DBB58461EF0C1FC814658461EF0F6
:1038F00035FB8246B9F1000F02DCBAF1000F14DD8E
:10390000B9F1000F06DA01234A460021584621F09A
:103910008BFB0AE0BAF1000F07DA0123CAF10000BD
:1039200002B20021584621F07FFB00BFB8F1000F22
:1039300023D158461EF0A0FB814658461EF014FCC9
:103940008246B9F1000F02DCBAF1000F14DDB9F1C3
:10395000000F06DA012300224946584621F064FB95
:103960000AE0BAF1000F07DA01230022CAF10000D1
:1039700001B2584621F058FB00BF32460A21584692
:1039800018F05CF86078C0F3400000B1EFE694F8FE
:103990003C0020F00F0184F83C100021A16200BF20
:1039A000E5E62DE9FF4104460F4614B914F078FB13
:1039B00004460CB9BDE8FF811FB90020A4F85001EE
:1039C000F8E70020ADF80800ADF80A00204614F032
:1039D0007FFB401E00B2ADF80C00204614F0DEFB69
:1039E000401E00B2ADF80E0002AA39466846FEF746
:1039F00015FD064606B9DDE72068007CC0F34000EF
:103A000060B102982063039860630120A4F850011C
:103A1000606810B1606825F0C1FECBE7206880695E
:103A200018B1206869468269904700250BE004F1CF
:103A3000300000EBC50100226846FEF730FD00B102
:103A4000B8E7681C85B2B4F85001A842EFDCB4F8BE
:103A50005001202809DAB4F8502104F1300101EBBB
:103A6000C200694611F09BFB0BE00020A4F8500156
:103A7000B4F8502104F1300101EBC20002A911F0A9
:103A80008EFBB4F85001401CA4F85001606810B1DE
:103A9000606825F083FE00BF8CE770B505462846B8
:103AA00000F013F8044600260CE02146284600F0FA
:103AB00024F806462146284600F086F820461CF0E9
:103AC00083F83446002CF0D170BD014609B90020BE
:103AD00070474868FCE770B5064600243046FFF79B
:103AE000F4FF054605E0641C2946304600F005F861
:103AF0000546002DF7D1204670BD02460B461068E2
:103B0000001D03441868704702460B4610680344C2
:103B100018687047014609B9002070478868FCE7BB
:103B2000002242608260CA1C22F0030101607047DB
:103B300070B50446216801F108001BF077FF0546C7
:103B4000A5B100222946204627F0A2F829462046A2
:103B5000626827F08FF8606820B12A4620466168C5
:103B600027F096F86560A06800B9A560284670BD8A
:103B700070B50446216801F108001BF057FF0546A7
:103B8000A5B100222946204627F074F82946204690
:103B9000A26827F07DF8A06820B12A462046A168D7
:103BA00027F068F8A560606800B96560284670BDB8
:103BB000014609B901207047486818B9886808B9F2
:103BC0000120F8E70020F6E72DE9F04104460D4614
:103BD0000CB9BDE8F0812046FFF777FFA8420FD16E
:103BE00029462046FFF789FF6060606810B9002011
:103BF000A0602FE000222046616827F049F829E004
:103C00002046FFF787FFA8420FD129462046FFF73D
:103C10007BFFA060A06810B9002060601AE000225D
:103C20002046A16827F026F814E029462046FFF731
:103C30006BFF064629462046FFF75FFF07463A46D8
:103C40003146204627F016F832463946204627F0FE
:103C50001FF800BF00BFBCE710B5044620688068AD
:103C600018B120682146826890472068006828B112
:103C70002068006820602046FFF7EEFF10BD014677
:103C8000886818B18868B0F9160070470020FCE712
:103C90002DE9F04F93B005468B4691469A461C9EFF
:103CA000688C20F00400001D6884A5F820903289FB
:103CB000594628461FF05EFC1290A5F820A03289D4
:103CC000594628461FF056FC1190688C20F00400DD
:103CD0006884DDE9111088420CD1DDE911108842B9
:103CE00008D1BDF84800BDF84410884202D113B095
:103CF000BDE8F08FA5F820903289594628461FF07C
:103D000039FC1290A5F820A0594628460EF009F972
:103D100010903189109A1068129A24F072F8308944
:103D2000602833D147F6FF711298884202D011986B
:103D300088422BD128461FF044FE0F9000EBD07034
:103D4000471028461FF03DFE0F9000EBD0704FEA61
:103D5000600847F6FF711298884208D1781C08F174
:103D60000101884200DA01E008F10100129047F6F3
:103D7000FF711198884208D1781C08F1010188422E
:103D800000DA01E008F10100119000BF2448FFF7BC
:103D9000CFFE044600BF1CB900BF00BF00BFFEE756
:103DA00000BF04B9A3E71298E06011982061ACB39A
:103DB00025603089A080C4F808B0684610F0BAFBCE
:103DC0002146684610F069FC1649684610F035FC3B
:103DD0001548029000BF1549684610F03CFCFF22D0
:103DE0000021684610F049FC3188684610F03BFC21
:103DF0007188684610F01CFCF068069000BF6846A9
:103E0000002190F83E2061F3000280F83E2000BFC0
:103E100030690590684610F057FC00BF00BF66E7A8
:103E2000E8670020EDFA020899FD0208C9FC0208C3
:103E300010B514210148FFF773FE10BDE86700209C
:103E40002DE9FE4F04460F4690464FF0000900252D
:103E50006BE1E06800EBC5004068C0F3406000B172
:103E600062E1E16801EBC501496821F07F4021F082
:103E700094FE064626EA070008B9012000E000206B
:103E8000029026EA080008B9012000E00020019015
:103E9000DDE90101814272D0E06850F835A04FF0B1
:103EA000000B6A4641F61001504623F043FC10B166
:103EB0004FF0010BA9E06A4641F61101504623F08C
:103EC00039FC10B14FF0010B9FE06A4641F6120138
:103ED000504623F02FFC10B14FF0010B95E06A46DD
:103EE00041F61301504623F025FC10B14FF0010BB1
:103EF0008BE06A4641F61501504623F01BFC10B1D9
:103F00004FF0010B81E06A4641F61401504623F060
:103F100011FC10B14FF0010B77E06A4641F26901E4
:103F2000504623F007FC10B14FF0010B6DE06A46DC
:103F300043F20C01504623F0FDFB10B14FF0010B92
:103F400063E06A4643F20D01504623F0F3FB10B1E3
:103F50004FF0010B59E06A4641F20101504623F04F
:103F6000E9FB10B14FF0010B4FE06A4641F204014A
:103F7000504623F0DFFB18B14FF0010B45E0D2E0D3
:103F80006A4641F20201504623F0D4FB10B14FF0D3
:103F9000010B3AE06A4641F20301504623F0CAFBA6
:103FA00010B14FF0010B30E06A4641F20501504676
:103FB00023F0C0FB10B14FF0010B26E06A4641F23E
:103FC0000601504623F0B6FB10B14FF0010B1CE088
:103FD0006A4641F23201504623F0ACFB10B14FF07B
:103FE000010B12E06A4643F60F01504623F0A2FB94
:103FF00010B14FF0010B08E06A4643F60E0150463F
:1040000023F098FB08B14FF0010BBBF1000F02D079
:104010000320BDE8FE8F6A4640F60A01504623F0B1
:1040200089FB10B14FF002097CE06A4640F60B01B3
:10403000504623F07FFB10B14FF0020972E06A4650
:1040400043F60F01504623F075FB10B14FF0020903
:1040500068E06A4643F60E01504623F06BFB10B150
:104060004FF002095EE06A4640F63C01504623F0FC
:1040700061FB10B14FF0020954E06A4640F63D0181
:10408000504623F057FB10B14FF002094AE06A4650
:1040900040F63A01504623F04DFB10B14FF00209B3
:1040A00040E06A464FF40461504623F043FB10B1F0
:1040B0004FF0020936E06A4640F64501504623F0CB
:1040C00039FB10B14FF002092CE06A4640F641017D
:1040D000504623F02FFB10B14FF0020922E06A4650
:1040E00040F64201504623F025FB10B14FF0020983
:1040F00018E06A4640F64301504623F01BFB10B11E
:104100004FF002090EE06A4640F64901504623F09E
:1041100011FB10B14FF0020904E0B9F1000F01D119
:104120004FF0010900BF00BF6D1C608CC0F3C500DB
:10413000A8423FF68EAE48466BE700000148006893
:1041400070470000AC01002010B5024826F057FE71
:1041500010BD0000006600200146C1F30412072ACA
:1041600000DD0722D0B2704710B518210348FFF7D1
:10417000D7FC012025F024FA10BD00009467002030
:104180002DE9F04105460F4616460DB9BDE8F08110
:104190002846FCF78AF88046394628460A4A1268BB
:1041A00090470746E8193146074A12689047064685
:1041B0003C4603E0A019285C2855641CA8EB0600C7
:1041C000A042F7D200BFE1E7380300202DE9F0411B
:1041D00006460C4617461D4629463046084A1268D0
:1041E00090472060206830B1296888190021044A6E
:1041F0001268904700E000203860BDE8F0810000C0
:10420000300300202DE9F04F87B004460F46924658
:104210009846DDE910560DB1002028801CB9002019
:1042200007B0BDE8F08F207808B90020F8E70FB993
:104230000020F5E74FF0000906F0020010B906F083
:10424000040098B1002000E0401C215C0A2905D040
:10425000215C0D2902D0215C0029F5D1215C01B13E
:10426000401C15B14FF0FF312980D9E706F002005C
:1042700008B141F6FF7800200690059038E0002054
:104280000490059808B9012000E0002006A904AABE
:10429000CDE90062CDE90210059960184346524607
:1042A000394625F02DFC83460498A8EB00000FFA50
:1042B00080F8049848440FFA80F9BBF1000F00D150
:1042C0001CE005985844059020780A2802D02078F0
:1042D0000D2800D112E00598205C0A2803D005982B
:1042E000205C0D2803D10598401C059006E000BF16
:1042F0000598205C10B1B8F1000FC0DC00BF059834
:1043000070B905A92046094A12689047834635B11D
:1043100000225946384617F0D4FC0FFA80F900BF46
:104320000DB1A5F8009005987AE700003003002051
:104330002DE9F04706468846174606B10FB9BDE895
:10434000F0873046FBF7B1FF81463846FBF7ADFFFB
:10435000044604B9F3E704EB090A414630460B4A28
:10436000126890478046554603E0281B305C705524
:104370006D1E08EB0400A842F7D906EB08002246A0
:1043800039461BF0F2FD00BFD9E7000038030020DA
:10439000024600200FA31B788B4211D113781BB962
:1043A0000123137001200BE01378012B02D10023AD
:1043B000137005E01378022B02D100231370012043
:1043C0001378012B04D1202901D10223137001207D
:1043D000704700002300000073B582B006460398C2
:1043E0000190324600210846019B25F0A5FE0546B6
:1043F000002001900024681C1BF018FB044600BF3D
:104400001CB900BF00BF00BFFEE700BF14B9002009
:1044100004B070BD002060553246691C2046039BE5
:1044200025F08AFE2046F3E72DE9F04781460E4647
:1044300014461F46DDF820A035461BE0600800FB4F
:10444000075529464846D047B0F1000809DD04F079
:10445000010080F00100C0EB5404E819054606464F
:1044600008E0B8F1000F02DA6408354602E0284699
:10447000BDE8F087002CE1D10020F9E72DE9FF4FDE
:1044800085B08346DDE9158ADDE91349DDE9177555
:10449000129E05F00200F8B94FB105F0010030B1ED
:1044A000B9F1000F02D105F00C0000B17F1E03E04E
:1044B00030222046641C3254544501D2202CF7D3BC
:1044C00003E030222046641C325405F0010018B18C
:1044D000BC4201D2202CF4D305F01000B0B305F497
:1044E000806050B94CB1544501D0BC4205D1641E26
:1044F0001CB1B8F1100F00D1641EB8F1100F09D132
:1045000005F0200030B9202C04D278222046641C0B
:10451000325415E0B8F1100F09D105F0200030B188
:10452000202C04D258222046641C325408E0B8F1F2
:10453000020F05D1202C03D262222046641C325483
:10454000202C03D230222046641C3254202C16D258
:10455000B9F1000F04D02D222046641C32540EE025
:1045600005F0040020B12B222046641C325406E0E2
:1045700005F0080018B120222046641C3254CDE911
:104580000275CDE90064584606A90EC900F0A2F8EC
:1045900009B0BDE8F08F2DE9FF4F8FB08046DDE90F
:1045A0001FABDDE91D96219D1C9C00270CB925F051
:1045B000100505F4806000B1E4B100BFB4FBF6F172
:1045C00006FB1141C8B20A2802DA00F1300107E007
:1045D00005F0200109B1412100E0612101440A39BF
:1045E000CBB239467F1C07AA5354B4FBF6F40CB186
:1045F000202FE3D307A8CDE904AB8DE88102039611
:104600000695404610A90EC9FFF738FF13B0BDE864
:10461000F08F2DE9FF4F8FB0DDE9217BDDF8908031
:10462000209EDDE91C454FF00009002184EA0100CD
:104630006940084301D128F0100808F4806028B1CF
:10464000002184EA0100694008432DD000BF3246B2
:104650003B4620462946FBF7D3FD02F0FF0ABAF19C
:104660000A0F02DA0AF1300007E008F0200008B172
:10467000412000E0612050440A38C2B2484609F1A6
:10468000010907A90A5432463B4620462946FBF752
:10469000B7FD04460D46002184EA01006940084345
:1046A00002D0B9F1200FD2D32398CDE9036BCDE925
:1046B000050807A91E98CDE9001902900FA80FC898
:1046C000FFF7DCFE13B0BDE8F08F9A4200D28854A9
:1046D000704770472DE9FF5F05461446DDE90EA6D9
:1046E000DDE91087A34607F0020078B907F0010062
:1046F00060B9B14607E02246641C2020039B019963
:10470000A84709F10109C145F5D300BF08E02246D9
:10471000641C711E0E461AF80100039B0199A847FC
:10472000002EF4D107F0020050B105E02246641CCF
:104730002020039B0199A847A4EB0B004045F5D32B
:10474000204604B0BDE8F09F2DE9FF4F8DB00F4625
:104750000546002606E025280BD0DDE90F1290471C
:104760006D1C761C28780028F5D111B03046BDE8C4
:10477000F08F0024A246A1460122EC4900E0044348
:1047800015F8013F203B02FA03F00842F7D12878E0
:104790002A2810D06FF02F022878A0F130010929C3
:1047A00014D80AEB8A0102EB410144F0020400EB49
:1047B000010A6D1CF0E701CF5FEA000A03D544F45B
:1047C0000054CAF1000A44F002046D1C28782E2817
:1047D00017D115F8010F44F004042A280ED06FF009
:1047E0002F022878A0F1300109290AD809EB8901A4
:1047F00002EB410100EB01096D1CF2E757F8049B45
:104800006D1C28786C280FD006DC4C2817D068283F
:104810000DD06A2814D104E0742810D07A280FD162
:104820000DE044F400140AE044F4801401E044F480
:1048300040146978814202D104F580146D1C6D1C0E
:104840002A786E2A1FD00CDC632A31D004DC002ABF
:104850008BD0582A11D1A3E0642A68D0692A0CD1E0
:1048600065E0732A2ED004DC6F2A73D0702A04D13D
:104870009BE0752A6FD0782A6ED01046DDE90F12C2
:104880009047761C50E1C4F30250022806D003285A
:1048900009D0042801CF09D0066045E101CFF11706
:1048A000C0E9006140E101CF06803DE106703BE1D7
:1048B00017F8040B8DF8000000208DF80100EB467E
:1048C000012003E057F804BB4FF0FF3061074FF0C1
:1048D000000102D40DE008F10101884649450FDAD4
:1048E0008045F8DB1BF808100029F4D108E008F136
:1048F000010188468142FADB1BF808100029F6D135
:10490000DDE90F23AAEB08008146214600F036F9C5
:10491000304400EB080604E0DDE90F121BF8010B40
:104920009047B8F10108F7D221464846F7E00A213E
:10493000C4F302534FF0000B0891022B04D001CFB7
:10494000C117032B09D00AE0FF1D27F00707F7E87E
:10495000020108E032E01FE020E000B2C117042BA2
:1049600001D140B2C117031E71F1000307DA4FF005
:10497000000CD0EB0C006CEB01012D2302E02305B1
:1049800004D52B238DF82430012303E0E30701D065
:104990002023F7E7984658E00A2110E010210EE0A6
:1049A00010204FF0000B08900CE010214FF0000B8E
:1049B00044F004044FF00809089103E008214FF087
:1049C000000B0891C4F30253022B04D001CF002145
:1049D000032B06D006E0FF1D27F00707F7E80201CA
:1049E00003E080B2042B00D1C0B24FF000082307CF
:1049F0002BD5702A07D0DDF820C08CF0100C5CEAB3
:104A00000B0C05D00EE040238DF82430012308E084
:104A100050EA010306D030238DF824308DF825208C
:104A200002239846DDF820C08CF0080C5CEA0B0CE1
:104A30000BD150EA010301D1630706D530238DF86D
:104A400024304FF00108A9F10109582A04D038A2F6
:104A50000B9208AA0A920BE03AA2F9E75B46089A81
:104A6000FBF7CEFB0B9B9B5C0A9A521E0A921370BB
:104A700050EA0102F2D10A98ADEB000000F1200BE0
:104A8000600702D524F4803401E04FF00109D945D4
:104A900002DDA9EB0B0000E0002000EB0B0141441C
:104AA0000890AAEB010AE00306D4DDE90F232146B2
:104AB000504600F063F806444FF0000908E009A9E9
:104AC00011F80900DDE90F12904709F10109761C80
:104AD000C145F4DBE0030CD5DDE90F232146504648
:104AE00000F04CF8064404E0DDE90F123020904756
:104AF000761C0899481E08900029F5DC08E00A9801
:104B00000A990078491C0A91DDE90F129047761C3A
:104B1000BBF10001ABF1010BF1DC21465046DDE9B0
:104B20000F2300F019F806446D1C1BE6092801004C
:104B30003031323334353637383961626364656613
:104B400000000000303132333435363738394142D5
:104B500043444546000000002DE9F041044600258D
:104B60001E461746880404D405E039462020B04785
:104B70006D1C641EF9D52846BDE8F0812DE9F04191
:104B8000044600251E469046C80301D5302700E0A4
:104B90002027880404D505E041463846B0476D1CFF
:104BA000641EF9D52846BDE8F08100002DE9FF4FCD
:104BB0008BB0074600250C9800B9FA4FEAE20E9830
:104BC000007825280AD02A466D1C0E990878DDE960
:104BD0000C13B8470E98401C0E90DBE20E98401C58
:104BE0000E90002400BF0E9800782B2819D004DC0A
:104BF00020281ED023282CD123E02D2809D03028AE
:104C000027D144F001040E98401C0E9001200A9018
:104C100022E044F002040E98401C0E9001200A90FD
:104C20001AE044F004040E98401C0E9001200A90F3
:104C300012E044F008040E98401C0E9001200A90E7
:104C40000AE044F010040E98401C0E9001200A90D7
:104C500002E000200A9000BF00BF0A980028C2D1DD
:104C600080460E990878FDF7B5FB20B10EA8FDF738
:104C70009CFB804612E00E9800782A280ED11899E5
:104C800001C91891002804DA44F00204C0F10008B8
:104C900000E080460E99491C0E9100BF4FF00009BC
:104CA0000E9800782E281FD144F480640E98401C82
:104CB0000E900E990878FDF78DFB20B10EA8FDF738
:104CC00074FB814610E00E9800782A280CD11899C0
:104CD00001C91891002801DD014600E00021894644
:104CE0000E99491C0E9100BF0E9800786C280AD0CE
:104CF00004DC682816D06A2835D128E0742820D032
:104D00007A2830D129E044F480740E98401C0E902B
:104D10000E9800786C2804D144F400740E98401C5E
:104D20000E9021E044F080040E98401C0E900E98E6
:104D30000078682804D144F040040E98401C0E907E
:104D400012E044F480740E98401C0E900CE044F481
:104D500000740E98401C0E9006E044F480740E9887
:104D6000401C0E9000E000BF00BF0E98007869283C
:104D70001DD00EDC622821D006DC25287ED05028EC
:104D80001AD058287BD115E0632879D06428F9D14E
:104D90000CE0732875D004DC6F280ED07028F1D198
:104DA00009E0752804D07828ECD102E000BF00BFEC
:104DB00000BF00BF00BF00BF00BF00BF0E9800785B
:104DC000782803D00E980078582801D1102623E0C7
:104DD0000E980078702803D00E98007850280CD1D7
:104DE000102644F0100444F480740E98407856283D
:104DF00012D10E98401C0E900EE00E9800786F288D
:104E000001D1082608E00E980078622801D1022618
:104E100002E00A2624F010040E980078582803D0E7
:104E20000E980078502801D144F020040E980078A4
:104E3000692805D00E980078642801D024F00C046D
:104E400004F4806008B124F001040E980078692809
:104E500003D00E98007864287CD104F40070B8B3B5
:104E60001898C01D20F007001890D0E900AB189AE0
:104E7000083218920020CDE9069803E073E17CE146
:104E8000F2E01CE1CDE904600894BAEB00017BEB91
:104E9000000001DA012000E0002000210290084615
:104EA000B1EB0A0170EB0B0002DA5046594605E0FF
:104EB00000200146B0EB0A0061EB0B01CDE90001D7
:104EC0002A463846DDE90C13FFF7A3FB0546C7E089
:104ED000FFE704F48070D0B1189850F804AB189034
:104EE0004FEADA70CDE9039802960594BAF1000F03
:104EF00001DD514601E0CAF10001CDE900102A466A
:104F00003846DDE90C13FFF746FB0546A8E004F040
:104F1000400028B1189810F8041B1890C8B20DE092
:104F200004F0800028B1189830F8041B189008B2DB
:104F300004E0189800681899091D189182464FEAF4
:104F4000DA70CDE9039802960594BAF1000F02DDFC
:104F5000514602E00BE0CAF10001CDE900102A46FB
:104F60003846DDE90C13FFF716FB054678E00E988E
:104F70000078562818D1189850F804AB1890DAF831
:104F800004000068099009980090DAF800300D9844
:104F9000421B0C9841193846FFF708FE05440020D3
:104FA00009905DE0D346000804F40070D0B1189871
:104FB000C01D20F00700CDE9069808941890002045
:104FC000CDE904600290189903C9189A0832189222
:104FD000CDE900012A463846DDE90C13FFF719FB3D
:104FE00005463DE004F4807098B10022CDE90398B5
:104FF00002960594189800681899091DCDE90002D9
:1050000018912A463846DDE90C13FFF7C4FA054625
:1050100026E004F0400028B1189810F8041B1890FE
:10502000C8B20DE004F0800028B1189830F8041BD5
:10503000189088B204E0189800681899091D189112
:1050400082460020CDE900A0CDE9039802960594A0
:105050002A463846DDE90C13FFF79DFA054600BFE6
:105060000E98401C0E9093E0012604F0020050B907
:1050700005E02A466D1C2020DDE90C13B8473046B8
:10508000761C4045F5D3189911F8043BD8B22A464E
:105090006D1C1891DDE90C13B84704F0020050B103
:1050A00005E02A466D1C2020DDE90C13B847304688
:1050B000761C4045F5D30E98401C0E9068E0189879
:1050C00050F804AB18905046B9F1000F01D0494692
:1050D00001E04FF0FF310A46014600E0491C0B7821
:1050E0001BB1131EA2F10102F8D10E1A04F4806064
:1050F00028B14E4501D2304600E04846064604F04D
:10510000020050B905E02A466D1C2020DDE90C1391
:10511000B8473046761C4045F5D306E01AF8010B37
:105120002A466D1CDDE90C13B8479AF8000040B11F
:1051300004F480600028F1D0B9F10000A9F1010960
:10514000ECD104F0020050B105E02A466D1C20208D
:10515000DDE90C13B8473046761C4045F5D30E9870
:10516000401C0E9014E02A466D1C2520DDE90C132E
:10517000B8470E98401C0E900AE02A466D1C0E9906
:105180000878DDE90C13B8470E98401C0E9000BF5C
:1051900000BF00BF0E98007800287FF410AD0D9876
:1051A000854201D2284601E00D98401E02460020AB
:1051B000DDE90C13B84728460FB0BDE8F08F2DE9A4
:1051C000F04104460E46002774B13146204600F0F7
:1051D0002DF80546B5F5004F05D20C2D01D928460E
:1051E00000E00C20074600BF3846BDE8F0810246CB
:1051F00000BF481E084018B100BF00BF00BFFEE757
:1052000000BF481E1040101A704710B502464B1ED2
:1052100013444C1E23EA040000BF4B1E0B401BB17D
:1052200000BF00BF00BFFEE700BF10BD024600BFC9
:10523000481E084018B100BF00BF00BFFEE700BF16
:10524000481E10444B1E9843704700002DE9F04162
:1052500080460E46444601206086002500270DE06A
:1052600056F8270025A1FBF727F810B1681C85B276
:1052700002E0608E401C6086781C87B256F82700DA
:1052800020B156F8270000780028E9D1208EA842E6
:1052900001D1BDE8F081A06A20B1A06A1AF094FCA7
:1052A0000020A062E06A20B1E06A1AF08DFC0020C4
:1052B000E062E8001AF0BAFBA06200BFA06A18B969
:1052C00000BF00BF00BFFEE700BF68001AF0AEFBE2
:1052D000E06200BFE06A18B900BF00BF00BFFEE790
:1052E00000BFA06A08B1E06A00B900256900E06A61
:1052F0001AF081FE258600BFCBE700000A000000FF
:105300002DE9F84F81460E46924699F8090000F0C3
:105310000700022801D1304600E05046834656453A
:1053200001DD304600E050460746032000EB470011
:1053300020F0030000F11005394800683949096878
:10534000A0EB0108002405EB0800374909688842F2
:1053500006D233480468606820F0004060603AE09C
:1053600031480068854221D813E04FF0FF300090AB
:10537000002269462D480EF02BFD002269462C487C
:105380000EF026FD2648006826490968A0EB0108B2
:1053900000BF08EB0500244909688842E5D8204889
:1053A0000468606820F00040606014E028461AF04D
:1053B0003DFB044600BF1CB900BF00BF00BFFEE7B5
:1053C00000BF14B90020BDE8F88F606820F00040ED
:1053D00000F10040606032465946484601F069FEDF
:1053E0002060606800F04040401C6060606820F011
:1053F00080406060A781A4F80EB06068C00F20B143
:10540000204600F11001A16008E005480068103056
:10541000A060034800682844014908602046D2E79C
:10542000B401002000030020B0010020A100010809
:10543000513E0108F0B585B006460D4634460020C1
:1054400004900390029094F83C0000F0030020B117
:10545000012838D0022866D000BF94F83C0000F044
:1054600003005A49097888421BD02620005D00EBD2
:10547000001000EB4000142190FBF1F0544908703B
:105480002720005D00EB001000EB4000142190FB92
:10549000F1F05049087094F83C0000F003004B49CB
:1054A000087002A803A9CDE9001005EB45014FF6ED
:1054B000FF7202EA410004AB46490A784449097880
:1054C0000AF0C4FA5FE094F83C0000F003003F49A2
:1054D000097888421AD0A08C00EB400040024FF4BB
:1054E000B471B0FBF1F03C4908802720005D00EB6F
:1054F000001000EB4000142190FBF1F035490870DA
:1055000094F83C0000F003003049087002A803A999
:10551000CDE90010E9B204AB2E4802782E4800888D
:105520000AF094FA2FE094F83C0000F003002749B9
:10553000097888421AD0A08C00EB400040024FF45A
:10554000B471B0FBF1F0244908802620005D00EB27
:10555000001000EB4000142190FBF1F01C49087092
:1055600094F83C0000F003001849087002A803A951
:10557000EAB204ABCDE9001015480178164800885E
:105580000AF064FA00BF00BF9DF810009DF80C10EF
:105590009DF80820D708BDF8003067F304038F0892
:1055A0000093BDF8003067F34A13C7080093BDF8B5
:1055B000003067F3CF230093BDF800703B460193A2
:1055C000BDF80410084605B0F0BD000066020020DA
:1055D00064020020650200206202002010B5012054
:1055E000074908700748FEF770FA20B906480068B6
:1055F00024F0C8F803E00448006824F0CFF810BD98
:10560000E8020020C4670020EC02002010B5044628
:1056100094F83E00C0F3400050B9A08F002807DD89
:10562000A08F4FF6FF71884202D0A08F401EA08746
:10563000A08FA8B9606B20B194F83E00C0F3400081
:1056400070B121461748FEF7BFFAFFF7C7FFE068C1
:1056500010B12046E168884720461AF0B5FA1FE0ED
:10566000A06B4042E062606BD0B194F83E10C1F391
:10567000400111B9216B4942E16294F83E1049089A
:10568000C94394F83E2061F3410284F83E20E0696A
:10569000616AE1616062A06A616BA162606300BFE0
:1056A00010BD0000C46700202DE9F041804642484B
:1056B000006823F0DDFE06464048007880F00100D7
:1056C0003E4908703E48FEF700FA04466BE00020B1
:1056D0003C49087094F83E00C0F3800037490978CF
:1056E000884253D0354801782C34A07C61F3820085
:1056F000A07420688719A07C2C3CC0F3C00010BBAC
:10570000E06A00281FDC002F1DDB94F83E0000F04B
:10571000010060B9206950B12046216988470546DB
:10572000E0692844E061606A2844606200BFA068C4
:1057300010B12046A168884794F83E0020F0080088
:10574000083084F83E00E06A3044E062E06A0028F5
:105750001BDBD4E90A10884201DDA06AE062204622
:10576000A16988470546206AA84206D0256260687C
:1057700018B12946D4E900029047D4E90A108842BA
:1057800002DB2046FFF742FF00BF00BF0D48007854
:1057900020B10B48FEF799F9044604E02146084879
:1057A000FEF7ABF90446002C91D123F06EFE0249BE
:1057B0000860BDE8F0810000E4020020E90200205A
:1057C000C4670020E8020020F7B582B004460E4608
:1057D00014B9049805B0F0BD00BF632231462046DD
:1057E0001DF0C8FE0190019D00BFBDB12868A8B1A1
:1057F00000BF6422314620461DF0BCFE0190019896
:10580000C0B207464FB13A462B68284604999847DC
:105810000190BDF80400ADF8100000BF0498D9E76E
:1058200070B504460D46606818B129466068FFF7F8
:10583000F7FF206818B1294620462268904770BDBE
:1058400070B505460C46A1B228460FF0D5FB70BDD9
:1058500070B505460C46A1B228460FF01EFC70BD7F
:1058600070B504460D4600BF204600F03BF818B165
:1058700000BF00BF00BFFEE700BF284600F050F9A0
:10588000001D616808446060204600F03AF8204638
:1058900070BD70B505460C46284600F041F904F18C
:1058A0001001884201D3012070BD0020FCE70146B1
:1058B000A1F1080070477CB505460C46204600F073
:1058C0002FF906466A4601A924F0FEFF2146284624
:1058D000DDE900320DF0FEFD7CBD0146087900F0E7
:1058E0000100704710B50446204600F019F908B9C8
:1058F000012010BD0020FCE70146087900F00200FD
:10590000704770B50446204600F097F805462C60B5
:10591000284670BD7CB506460C46002001900090DC
:1059200000256CB16A4601A9204624F0EAFF0198DF
:10593000092805DA6A4601A9304626F0F3FD054636
:1059400085B100BF284600F0EBF8A04203D200BFAB
:1059500000BF00BFFEE700BF29463046DDE9003248
:1059600026F048FA28467CBD70B504462046FFF76D
:10597000C8FF0546284600F0BEF8204600F0B6F8FD
:1059800070BD70B50446204600F057F8054628461D
:1059900000F0B6F8204600F0BEF870BD70B50646BF
:1059A0000D46284600F049F8044600BF1CB900BF68
:1059B00000BF00BFFEE700BF2046FFF78EFF90B19B
:1059C00000BF2846FFF78EFF18B100BF00BF00BF21
:1059D000FEE700BF2146304600F076F82146284613
:1059E000FFF73EFF0546284670BD70B506460D46DA
:1059F0002846FFF781FFF0B1284600F057F804462B
:105A000000BF1CB900BF00BF00BFFEE700BF00BF62
:105A10002046FFF762FF18B900BF00BF00BFFEE7D6
:105A200000BF2146304600F04FF829462046FFF7D8
:105A300017FF054600BF284670BD2DE9F04104461A
:105A4000204600F06DF8061F204600F0B8F8074623
:105A5000314625F0D1F9054600BF2046FFF742FF49
:105A600018B100BF00BF00BFFEE700BF2846BDE879
:105A7000F0812DE9F04106460C461546002794B109
:105A800000BF1DB900BF00BF00BFFEE700BF2A4630
:105A90002146304600F097F82046FFF772FF204677
:105AA00000F08DF807463846BDE8F08110B5044691
:105AB00000BF2046FFF720FF18B900BF00BF00BF9E
:105AC000FEE700BF206810BD7CB505460C462046A9
:105AD00000F026F806466A4601A924F0F5FE2146A4
